:100000000C9444070C9475070C9475070C947507B1
:100010000C9475070C9475070C9475070C94750770
:100020000C9475070C9475070C9475070C94750760
:100030000C9475070C9475070C9475070C94750750
:100040000C9475070C9475070C9475070C94750740
:100050000C9475070C9475070C9475070C94F7268F
:100060000C9475070C9492260C94BA250C94750781
:100070000C9475070C9475070C9475070C94750710
:100080000C9475070C9475070C9475070C94750700
:100090000C945F260C947B250C9475070C947507C3
:1000A0000C9475070C9475070C9475070C947507E0
:1000B0000C9475070C9475070C9475070C947507D0
:1000C0000C9475070C9475070C9475070C942C26EA
:1000D0000C943C250C9475070C94F9250C94FD2484
:1000E0000C9475078E0E910E840E880EC80E950E18
:1000F000990E9F0EA30EA70EAD0EB10EB50EC80E33
:10010000BB0EBF0EC30E0C94AD0E0C943A1B0C9498
:100110004B170C94ED200C942E0C0C943D100C9469
:100120008F170C94910E0C94880E0C94BF0E0C94A7
:100130009D210C94C30E0C9456210C94A30E0C9488
:100140004D0C0C94FE0C0C9478190C9484180C949F
:100150001D0C0C945C170C948E0E0C94B50E0C9424
:100160007D0A0C9414210C94990E0C94BB0E0C94E3
:10017000A7090C941E0C0C94C7210C943A0C0C94F7
:10018000950E0C9441270C94B10E0C94A70E0C9470
:1001900009130C945E100C949F0E0C9461210C9426
:1001A000840E0C9499170C9400210C94460C0C941A
:1001B00081210C94DC0A0C947D330C94FF1A0C946E
:1001C000C80E11007F96290001007F9628003A0191
:1001D00055C0021010C10141C50400228040360103
:1001E00068B00100B102B011B40102B60302023BD3
:1001F000B701C63A0155F704A9512C82C0020D0D72
:10020000C1024300C20100C50400480048B4010017
:10021000B60302023BE00F0F211C0B0E0849983871
:10022000091103141000E10F0F2F2B0C0E06477657
:1002300037071104231E00B00100B30402000000C0
:10024000B40100D003074218D103000710D2020105
:1002500002D3020102D4020102C005123B000211C6
:10026000C103101088C50103C60102C80C00323654
:10027000450616377577540C00CC0100F6030101D2
:1002800000CF03008130ED0464031281E803851080
:1002900078CB05392C003402F70120EA020000B0C7
:1002A0000100B102001BB40100C00121C10111C550
:1002B000023F3CC701B5360148F20100260101E0CA
:1002C0000F0F26240B0E0954A8460C17090F070020
:1002D000E10F00191B0410072A47390306063038BE
:1002E0000F360100B80101C0010EB00100C10410B9
:1002F000100202C006003500000102C50104D2024E
:100300000104CA0100EA0180B903FF83577F967F89
:1003100096B60125C0065050013C1E08B4070240A5
:10032000002A2A0D787F01F20B1616030808080828
:1003300010041616FD03110235B2050C0C00333300
:10034000B70135BB012BC00104C20201FFC301117B
:10035000C40120C6010FD002A4A1E00ED000050EFA
:10036000150D3743470915121619E10ED000050D7A
:100370000C062D44400E1C1816193A01557F0AB080
:100380000103E2013FC00122E20100B00100C0010F
:100390000AB00100000000000000000000000000A2
:1003A00000000000FFFF0F000004006208000808C2
:1003B0000003000C01030B5A020306090303171084
:1003C0000403002305030017060309630703090C50
:1003D00008030C100903322210001600110001015D
:1003E0001200000013000100000130030101370278
:1003F0000301000D800200610201B0C1FFFF320065
:10040000010000010200000103003010090001009A
:100410000C000000900000800F000000100200009F
:100420001102EF001202000013028F01000500000C
:100430000105000002055F00010401000404000042
:10044000FFFF320007000001FFFF32000002000042
:100450000102000000000000000000000000000099
:1004600000000100A4000100FFFF0A006000002757
:100470000800080830001402310015373200040665
:100480003300160E340011223500001536000785A2
:1004900037000714380003143900200090001500BD
:1004A0001000100411003702290046002A004600FF
:1004B000070000001200890113000011FFFF9600E1
:1004C0001200B90101000001020000020300301017
:1004D000090001000A0000000D0000000E003000BD
:1004E000610001006A00000080000000810000003F
:1004F00082005F009200000193000107FFFF50009F
:1005000007000001E500F078010000010200000290
:10051000030030100400000005000000080007027E
:10052000090000000A0000000C0000000D0000009F
:100530000F00000010000000110007001200000072
:100540001300000007000100FFFFC8001000901614
:1005500011002702FFFF320012000D00FFFF3200E2
:100560001300001229000A002B000D00FFFF3200CB
:1005700020000000210000003000000031000404D1
:100580003200030035000504360008083700070470
:1005900038000303390007073C0004053D00080844
:1005A00060000027610001006A0000008000000078
:1005B0008100000082000000830000008400000031
:1005C0008500000090001000920000000700330139
:1005D000E5000080000001000100000102000007AA
:1005E00003003010040000000800020209000000AF
:1005F0000A0000000C0000000D0000000F000000C9
:10060000100000001100070012000000130000009D
:10061000FFFF32001000B01711000700FFFF0A00B3
:1006200012003A01FFFF0A001300001A29000C0013
:10063000FFFF0A0030000000310005053200040011
:1006400035000600360007073700050138000200B4
:10065000390007073C0004073D000708600000A7B9
:10066000610001006A00000021000000200000007D
:100670008000000081000000820000008300000074
:10068000840000008500000090001000920000002F
:1006900093000300950010019700000098000000EF
:1006A00007007301FFFF3200FF000100F3000800A4
:1006B00000000100010000010200000703003010EB
:1006C00008000203090000001000000011000700EC
:1006D0001200000013000000FFFF32001000B014F1
:1006E000FFFF0A0011000700FFFF0A0012008E0042
:1006F0001300000C29001500FFFF0A003000000065
:100700003100070132000000350003023600020408
:100710003700000038000702390000003C000302E7
:100720003D000304600000A7610001009000290063
:1007300007003301FFFF3200150030009A0010005F
:10074000110020001000283412000200130038109D
:10075000FFFF280012001200FFFF280010002034C5
:1007600013004530FFFF4600300000003100020456
:100770003200070333000403340004003500010491
:100780003600070737000503380010063900100649
:1007900001000001020000030300301008000808F7
:1007A0000A000800600000276100010090003E017F
:1007B0009200000193000001A0000030A30010008F
:1007C0000700010007002100070023000700330095
:1007D0000700330111001A001200213113006C00D0
:1007E0001400494210000008FFFF0A0011001A011E
:1007F000FFFF0A0011001A03FFFF0A0011001A0789
:10080000FFFF0A0011001A0FFFFF0A0011003A0F44
:10081000FFFF1E000100280102000001030030104C
:1008200007001210080003030B0000110C00000069
:100830000F000118150020005000010151000306AF
:100840005200080453000000540005065500060439
:10085000560003035700030358001000590000100E
:1008600007001200FFFF2800070013000700170011
:1008700000002100240027002A002D003000330052
:1008800001010000040107010A0100002200250007
:1008900028002B002E003100340002010000050169
:1008A00008010B01050505050705080808080202EF
:1008B00002020A0A080804040404010101010101FA
:1008C00001010303030303030303040707070C0CDD
:1008D0000C0C0C0C0C0C02020202060606060606A4
:1008E00006060B0B0B0B0B0B0B0B01021020200849
:1008F000081020401020408002010201080402017B
:1009000001020408102040808040201008040201E9
:100910008004020180402010080402010804020142
:1009200001020408102040800102040810204080C9
:100930000000090A02080B0C0D0706030401000061
:1009400000000000000000000000000000000000A7
:1009500000000000000000000000000011100F0067
:100960000000000000000000000000000000000087
:1009700000000000000000000000003E5B4F5B3EF6
:100980003E6B4F6B3E1C3E7C3E1C183C7E3C181C54
:10099000577D571C1C5E7F5E1C00183C1800FFE74B
:1009A000C3E7FF0018241800FFE7DBE7FF30483AF1
:1009B000060E2629792926407F050507407F052553
:1009C0003F5A3CE73C5A7F3E1C1C08081C1C3E7FDB
:1009D00014227F22145F5F005F5F06097F017F00A2
:1009E0006689956A606060606094A2FFA2940804C2
:1009F0007E040810207E201008082A1C08081C2AE3
:100A000008081E101010100C1E0C1E0C30383E383A
:100A100030060E3E0E06000000000000005F0000E1
:100A20000007000700147F147F14242A7F2A122352
:100A30001308646236495620500008070300001C62
:100A40002241000041221C002A1C7F1C2A08083E6B
:100A5000080800807030000808080808000060607E
:100A60000020100804023E5149453E00427F4000EC
:100A700072494949462141494D331814127F1027C4
:100A8000454545393C4A4949314121110907364913
:100A9000494936464949291E0000140000004034E7
:100AA00000000008142241141414141400412214EC
:100AB0000802015909063E415D594E7C1211127C13
:100AC0007F494949363E414141227F4141413E7F74
:100AD000494949417F090909013E414151737F0854
:100AE00008087F00417F41002040413F017F0814FA
:100AF00022417F404040407F021C027F7F0408105B
:100B00007F3E4141413E7F090909063E4151215E38
:100B10007F09192946264949493203017F01033FCC
:100B20004040403F1F2040201F3F4038403F63145B
:100B300008146303047804036159494D43007F415D
:100B400041410204081020004141417F040201029A
:100B500004404040404000030708002054547840BF
:100B60007F284444383844444428384444287F3853
:100B70005454541800087E090218A4A49C787F08D5
:100B800004047800447D40002040403D007F102850
:100B9000440000417F40007C047804787C08040411
:100BA000783844444438FC1824241818242418FCA9
:100BB0007C08040408485454542404043F44243C4E
:100BC0004040207C1C2040201C3C4030403C4428BD
:100BD0001028444C9090907C4464544C4400083657
:100BE00041000000770000004136080002010204C5
:100BF000023C2623263C1EA1A161123A4040207AE5
:100C0000385454555921555579412254547842212C
:100C10005554784020545579400C1E527212395563
:100C20005555593954545459395554545800004560
:100C30007C410002457D420001457C407D1211123D
:100C40007DF0282528F07C545545002054547C54D0
:100C50007C0A097F4932494949323A4444443A328C
:100C60004A4848303A4141217A3A42402078009D32
:100C7000A0A07D3D4242423D3D4040403D3C24FFDE
:100C80002424487E4943662B2FFC2F2BFF0929F68D
:100C900020C0887E090320545479410000447D41DE
:100CA0003048484A32384040227A007A0A0A727D37
:100CB0000D19317D2629292F282629292926304852
:100CC0004D4020380808080808080808382F10C8C0
:100CD000ACBA2F102834FA00007B000008142A1444
:100CE0002222142A14085500550055AA55AA55AABF
:100CF000FF55FF55FF000000FF00101010FF00140B
:100D00001414FF001010FF00FF1010F010F0141466
:100D100014FC001414F700FF0000FF00FF1414F48B
:100D200004FC141417101F10101F101F1414141F8C
:100D300000101010F0000000001F101010101F1005
:100D4000101010F010000000FF1010101010101004
:100D50001010FF10000000FF140000FF00FF000053
:100D60001F10170000FC04F414141710171414F4C7
:100D700004F40000FF00F714141414141414F70002
:100D8000F7141414171410101F101F141414F41453
:100D90001010F010F000001F101F0000001F1400C2
:100DA0000000FC140000F010F01010FF10FF1414ED
:100DB00014FF141010101F00000000F010FFFFFFC0
:100DC000FFFFF0F0F0F0F0FFFFFF0000000000FF79
:100DD000FF0F0F0F0F0F3844443844FC4A4A4A347F
:100DE0007E02020606027E027E0263554941633896
:100DF00044443C04407E201E2006027E020299A547
:100E0000E7A5991C2A492A1C4C7201724C304A4DA4
:100E10004D303048784830BC625A463D3E494949D9
:100E2000007E0101017E2A2A2A2A2A44445F444482
:100E300040514A444040444A51400000FF0103E011
:100E400080FF000008086B6B083612362436060F48
:100E5000090F06000018180000001010003040FFB5
:100E60000101001F01011E00191D1712003C3C3C2E
:100E70003C00000000007C3C3E5E2B3D3F2F5B5D54
:100E80003B2C2A225C007D3311241FBECFEFD1E220
:100E9000DEBFCDBF00E00CBF12E0A0E0B2E0E0EFAB
:100EA000FBE600E00BBF02C007900D92A63FB10722
:100EB000D9F728E0A6EFB2E001C01D92A633B20731
:100EC000E1F717E0C4E4D7E000E006C0219701098C
:100ED000802FFE010E94D435C334D10780E008077B
:100EE000A9F70E945E270C9489340C9400002F927D
:100EF0003F924F925F926F927F928F929F92AF92AA
:100F0000BF92CF92DF92EF92FF920F931F93CF93F6
:100F1000DF93CDB7DEB76B970FB6F894DEBF0FBE89
:100F2000CDBF9B8F8A8F5B011A01D22E1F830E8348
:100F30003701C982DC0158962D913C9159972115B2
:100F4000310509F0E6C018968D919C9119976817A4
:100F500079070CF0CDC11A968D919C911B9748177B
:100F600059070CF0C5C18C2C912CFB0126E0C29EC8
:100F7000E00DF11D1124FB87EA871E161F060CF0F9
:100F8000B7C1A40183E0440F551F8A95E1F75D873F
:100F90004C87CA01820D931D181619060CF0A8C1C2
:100FA00057968C91811104C05FEA5D1508F4D394C3
:100FB000AA8DBB8DED91FC9111970680F781E02DF4
:100FC000CD011995B5E0DB9EC0011124F5013596E0
:100FD000FF87EE87BB82AA8225019C012A193B0963
:100FE000398B288BA101485F5F4F5B8B4A8BE88967
:100FF000F989E40DF51DEA58F64F549158876101BF
:101000003D822C82888580FF13C0AA8DBB8DED9117
:10101000FC91B981B13031F40084F185E02D2E814D
:101020003F8116C00284F385E02DEE80FF801AC058
:10103000EE81FF81E615F705F1F0AA8DBB8DED91EC
:10104000FC91B981B13051F40084F185E02D930118
:10105000A601B2018A8D9B8D19950DC00284F3857E
:10106000E02D7301840194014C815D816A817B8153
:101070008A8D9B8D1995E885E695E887FFEFCF1A55
:10108000DF0A2C813D81280D391D3D832C834A893F
:101090005B89C416D50609F0B5CF5FEF451A550A2E
:1010A0008A819B81880D991D9B838A83AE85BF852C
:1010B0004A165B0609F09BCFEE81FF81E615F70526
:1010C00009F4F4C0EA8DFB8DA081B181F981F13082
:1010D00079F4B5016B5F7F4F1C96ED91FC911D97E4
:1010E000830128E030E0A1018A8D9B8D1995DEC037
:1010F0006A857B85681979091A96ED91FC911B9791
:1011000073010C851D859401A1018A8D9B8D199514
:10111000CDC0F9013496E491DE1AF9013296859139
:101120009491B7E0DB9E800D911D1124F90125916A
:1011300034913B8B2A8BFC01259134912901FC01D0
:101140003296C490319634913E87329614913196FE
:10115000D4904981423058F0612E012E000C77085E
:101160008D2D0D2C000C990B9987888704C019864A
:101170001886612C712CAA8DBB8DED91FC91119775
:101180000680F781E02DCD011995B9818B2E912C28
:10119000689CC001699C900D789C900D1124FC0105
:1011A000EA0DFB1DFD87EC871A82712C612CE12F63
:1011B000110FFF0B95012E0F3F1F3B872A87AC0CA9
:1011C000B11CA5014E0F5F1F5F8B4E8BC1018D0DB2
:1011D000911DD7FC9A95998F888F9E85691608F086
:1011E00065C0862D90E048855985480F591F489D58
:1011F0009001499D300D589D300D1124D101A20F51
:10120000B31FB98BA88BEC85FD85FD83EC83AA8485
:10121000BB84DA80FA85DF1A288D398D280F391FB3
:101220003D8B2C8B8D2D8A0D4E895F89A416B506BA
:10123000C1F1877041F4C2010196EA89FB89E40D8E
:10124000F51D74902C0177FE21C0AA8DBB8DED9108
:10125000FC91B981B13061F40084F185E02D2E81DB
:101260003F814C895D89B5018A8D9B8D19950EC092
:101270000284F385E02DEE80FF808401940148898B
:1012800059896C817D818A8D9B8D1995770CEFEF43
:10129000AE1ABE0A2C813D81280D391D3D832C8359
:1012A000C1CF3A813C0D3A83639497CFAA8DBB8D11
:1012B000ED91FC9111970288F389E02DCD016B9699
:1012C0000FB6F894DEBF0FBECDBFDF91CF911F9157
:1012D0000F91FF90EF90DF90CF90BF90AF909F90D5
:1012E0008F907F906F905F904F903F902F901994C8
:1012F0006B960FB6F894DEBF0FBECDBFDF91CF91D6
:101300001F910F91FF90EF90DF90CF90BF90AF9023
:101310009F908F907F906F905F904F903F902F9015
:1013200008950895FC016370658B84819581268101
:101330003781613039F0633029F0918780873387B6
:101340002287089531872087938782870895AF92F7
:10135000BF92CF92EF92FF920F931F93CF93DF93A1
:10136000EC01262F888D998D009709F040C06A30D6
:1013700059F41D861C862C898E859F8538E0239F15
:10138000800D911D112441C06D3009F4AAC08E89D1
:101390008823C1F03C898C859D8546E0349F800D73
:1013A000911D112448855985481759075CF41D86FD
:1013B0001C868E859F8548E0349F800D911D1124E9
:1013C0009F878E87EA88FB88088919894E855F8503
:1013D0006C857D85CC88CE010E9477072C898C8511
:1013E0009D8536E0239F800D911D112442C06A30F7
:1013F00079F41D861C862C89FC013696E4918E8535
:101400009F852E9F800D911D11249F878E8769C017
:101410006D3009F466C0FC0134963491631708F40A
:1014200060C03196E491E61708F45BC0FC01329687
:1014300065917491422F50E0431B510937E0349F6E
:101440005001359FB00C1124A60EB71EF50132963F
:1014500034913196E491332311F0E1110DC0F5017F
:101460003496E4912C898C859D85E29F800D911D99
:1014700011249D878C8735C0F501359644915E898E
:10148000552311F16C89E32FF0E0E40FF11D47FDC6
:10149000FA956E9FD0016F9FB00D11244C855D852C
:1014A0004A0F5B1FE885F985E417F5076CF41D8684
:1014B0001C86FC013696E4918E859F856E9F800D7B
:1014C000911D11249F878E87EA88FB8808891989D6
:1014D0004E855F856C857D85CC88CE010E9477071F
:1014E000BECF81E090E0DF91CF911F910F91FF90EF
:1014F000EF90CF90BF90AF9008956F927F928F92B0
:101500009F92AF92BF92CF92DF92EF92FF920F9392
:101510001F93CF93DF93EC014B015A01690138010E
:10152000E881F9810680F781E02D1995E881F9813C
:101530000684F785E02D87019601A501B401CE014F
:101540001995A501460D571D41505109E881F981B2
:101550000684F785E02D9601B401CE011995E88146
:10156000F9810484F585E02D9301A501B401CE0134
:101570001995C80CD91CB60161507109E881F9812F
:101580000484F585E02D9301A501CE011995E8812C
:10159000F9810288F389E02DCE01DF91CF911F916F
:1015A0000F91FF90EF90DF90CF90BF90AF909F9002
:1015B0008F907F906F9019948F929F92AF92BF926D
:1015C000CF92DF92EF92FF920F931F93CF93DF930F
:1015D0004C016B015A01E901DC01ED91FC916217AC
:1015E000730781F40417150724F48B2D5801042F79
:1015F000182F0A191B0998012F5F3F4F008CF18D9E
:10160000E02D12C04017510709F52617370724F4BB
:101610008D2D6901C62FD82F9E012C193D092F5FF2
:101620003F4F028CF38DE02D8701A501B601C40167
:101630001995DF91CF911F910F91FF90EF90DF905F
:10164000CF90BF90AF909F908F9008950680F781C4
:10165000E02D1995D401ED91FC910088F189E02DE0
:101660009E01A501B601C4011995D401ED91FC912B
:101670000288F389E02DC401DF91CF911F910F9172
:10168000FF90EF90DF90CF90BF90AF909F908F90A2
:101690001994EF92FF920F931F93DC011A960D910C
:1016A0001C911B9718962D913C911997ED91FC91E7
:1016B000048CF58DE02D7B0140E050E060E070E0AF
:1016C00019951F910F91FF90EF9008954F925F929F
:1016D0006F927F928F929F92AF92BF92CF92DF9242
:1016E000EF92FF920F931F93CF93DF936C012B0127
:1016F0005A0139014801DC01ED91FC910680F78126
:10170000E02D1995E201640C751CD601ED91FC9158
:10171000C615D7055CF40484F585E02D8701940196
:10172000A501BE01C60119952196EFCF0288F38964
:10173000E02DC601DF91CF911F910F91FF90EF90A7
:10174000DF90CF90BF90AF909F908F907F906F90E1
:101750005F904F9019948F929F92AF92BF92CF92C9
:10176000DF92EF92FF920F931F93CF93DF93EC01E1
:101770005B014A016901E881F9810680F781E02D6A
:10178000199595012C0D3D1D21503109E881F981F4
:101790000088F189E02D78018401A401B501CE0112
:1017A0001995E881F9810288F389E02DCE01DF9156
:1017B000CF911F910F91FF90EF90DF90CF90BF904E
:1017C000AF909F908F9019948F929F92AF92BF92FB
:1017D000CF92DF92EF92FF920F931F93CF93DF93FD
:1017E000EC015B014A0169017801E881F981068019
:1017F000F781E02D1995C80CD91C860101501109FB
:10180000E881F9810088F189E02D9501A401B501F5
:10181000CE011995E881F9810288F389E02DCE0186
:10182000DF91CF911F910F91FF90EF90DF90CF90BC
:10183000BF90AF909F908F9019940895EF92FF9270
:101840000F931F93DC01ED91FC91048CF58DE02D3D
:1018500019951F910F91FF90EF9008950F931F938B
:10186000DC01ED91FC91028CF38DE02D19951F9117
:101870000F9108950F931F93DC01ED91FC91008C63
:10188000F18DE02D19951F910F910895DC01ED91D7
:10189000FC910480F581E02D19942F923F924F9294
:1018A0005F926F927F928F929F92AF92BF92CF92F0
:1018B000DF92EF92FF920F931F93CF93DF9300D0AD
:1018C00000D0CDB7DEB72C017E836D836A0159014C
:1018D000C801FC82EB824801841A950A97FE03C076
:1018E00091948194910835012D813E81621A730A89
:1018F00077FE03C0719461947108681479045CF4F4
:101900003A2D2B2D5C01832F922F3D812E81DE827B
:10191000CD82C32ED22EAD81BE81AA16BB065CF449
:101920003C2D2D2D6C01832F922F3D812E81BE8267
:10193000AD82A32EB22E85012D813E81021B130B99
:101940001C012C183D0837FE03C031942194310846
:10195000780117FF03C03FEFE31AF30AF594E79409
:10196000C816D9062CF08FEF9FEF9A83898304C0A5
:10197000A1E0B0E0BA83A9832D813E81A216B3060F
:1019800024F1D201ED91FC910084F185E02D2B81B1
:101990003C816814790424F44D815E81B60103C052
:1019A000A6016D817E81C2011995E218F308F7FE48
:1019B00006C029813A81C20ED31EE00EF11E8D8130
:1019C0009E8101969E838D83D7CF26960FB6F8947D
:1019D000DEBF0FBECDBFDF91CF911F910F91FF9062
:1019E000EF90DF90CF90BF90AF909F908F907F90BF
:1019F0006F905F904F903F902F90089508950F93B0
:101A00001F93CF93DF93EC01162F8091FF0281117A
:101A100002C00E94BE208B988A988091020187782C
:101A200080930201A5988EB1877C8EB94091020106
:101A30008D2F99279C012370332755E0220F331FE8
:101A40005A95E1F7242B209302014EB19C012C7092
:101A50003327220F331F220F331F242B2EB944B3F9
:101A60009C0120713327220F331F242B24BB4EB13E
:101A70009C01207233273595279535952795242B82
:101A80002EB920910201807C9927F3E095958795E6
:101A9000FA95E1F7822B809302018998899A8091C7
:101AA0000201877880930201A5988EB1877C8EB958
:101AB00020910201CE0183709927A5E0880F991F1C
:101AC000AA95E1F7822B809302012EB1CE018C7092
:101AD0009927880F991F880F991F822B8EB924B3DD
:101AE000CE0180719927880F991F822B84BB2EB15C
:101AF000CE01807299279595879595958795822B2C
:101B00008EB980910201C07CDD2743E0D595C79551
:101B10004A95E1F7C82BC09302018998899A8A9A5D
:101B2000809101018778809301019D988DB1877C18
:101B30008DB961E070E080E090E00E94C526889A4F
:101B4000889888988898609100018CB1A2B34CB1B4
:101B500000910001889A889A889888988898E091DE
:101B60000001FCB132B32CB1C0910001889A115030
:101B700017FFE5CF889A8B9A90910101986790930F
:101B800001019D9A9DB198639DB9487050E0440F42
:101B9000551F440F551F087198E0099F80011124BB
:101BA000402B512BA072B0E0B595A7954A2B5B2B2B
:101BB000807390E09595879595958795482B592B3F
:101BC000607670E0B5E075956795BA95E1F7462BBC
:101BD000572B542F44272870220F220F8C2F8871E7
:101BE00098E0899FE00111249C2F922B3072232FC3
:101BF00030E035952795292B9F2F907396959695D4
:101C0000922B2E2F2076229526952770292BCA01FC
:101C1000822BDF91CF911F910F910895FF920F9327
:101C20001F93CF93DF93EC0160E00E94FF0C8C01C7
:101C300061E0CE010E94FF0CF82E62E0CE010E940E
:101C4000FF0C20E030E0302F22271127002740E052
:101C500050E05F2D60E070E0042B152B262B372B16
:101C6000492F50E060E070E0CB01BA01602B712B8E
:101C7000822B932BDF91CF911F910F91FF900895AD
:101C80000F931F93CF93DF938C0160E00E94FF0CB2
:101C9000EC0161E0C8010E94FF0CAC01CE01A0E0A4
:101CA000B0E0DC019927882760E070E08C019D019D
:101CB000042B152B262B372BC901B801DF91CF91AF
:101CC0001F910F910895362F90E0FC01E05DF64FD3
:101CD0004491FC01E651F74F2491FC01EC55F74F7C
:101CE0009491992309F468C0442309F451C050E049
:101CF000FA013197E131F10508F04AC08827EE5822
:101D0000FF4F8F4F0C94D435809180008F7703C0A4
:101D1000809180008F7D809380003AC084B58F775A
:101D200002C084B58F7D84BD33C08091B0008F77B1
:101D300003C08091B0008F7D8093B00029C0809156
:101D400090008F7707C0809190008F7D03C08091B5
:101D50009000877F809390001BC08091A0008F77B8
:101D600007C08091A0008F7D03C08091A000877F75
:101D70008093A0000DC0809120018F7707C08091D3
:101D800020018F7D03C080912001877F80932001F7
:101D9000E92FF0E0EE0FFF1FE657F74FA591B49142
:101DA0009FB7F894311104C08C912095282302C06C
:101DB000EC912E2B2C939FBF0895CF93DF9390E04F
:101DC000FC01E651F74F2491FC01EC55F74F84914B
:101DD000882361F190E0880F991FFC01E059F74FCB
:101DE000C591D491FC01E657F74FA591B4916111CB
:101DF00009C09FB7F8948881209582238883EC914D
:101E00002E230BC0623061F49FB7F8948881322F83
:101E1000309583238883EC912E2B2C939FBF06C093
:101E20008FB7F894E8812E2B28838FBFDF91CF9155
:101E300008954F925F926F927F928F929F92AF928E
:101E4000BF92CF92DF92EF92FF920F931F93CF93A7
:101E5000DF93EC01423051056105710510F480E01B
:101E600078C089859A85AB85BC850196A11DB11D79
:101E700084179507A607B70790F3CB88DC88ED8811
:101E8000FE888F89803129F4BB27A72F962F852FB5
:101E900009C0DB01CA01E7E0B695A795979587953C
:101EA000EA95D1F7480159012A013B01C80ED91E14
:101EB000EA1EFB1E8091060290910702A091080283
:101EC000B0910902C816D906EA06FB0681F48F898B
:101ED0008031A9F4B301A201552766277727440F63
:101EE000551FFA01ED5FFC4F9182808219C040E0DE
:101EF000C701B6010E9487128111E9CFB0CFB301AB
:101F0000A2014F77552766277727440F551F440FA7
:101F1000551FFA01ED5FFC4F80829182A282B3824D
:101F2000809102038160809302038A89823080F06D
:101F30008D819E81AF81B885C80ED91EEA1EFB1E19
:101F4000C092F902D092FA02E092FB02F092FC02F7
:101F500081E0DF91CF911F910F91FF90EF90DF9083
:101F6000CF90BF90AF909F908F907F906F905F9039
:101F70004F9008958F929F92AF92BF92CF92DF922F
:101F8000EF92FF920F931F93CF93DF93FC01818514
:101F90009285A385B4850196A11DB11D841795076F
:101FA000A607B70710F480E05BC083889488A588F3
:101FB000B6888789803129F4BB27A72F962F852FD4
:101FC00009C0DB01CA01C7E0B695A795979587952B
:101FD000CA95D1F7E9016A017B018F01BC01CD01EE
:101FE000680D791D8A1D9B1D809006029090070246
:101FF000A0900802B0900902681579058A059B0532
:1020000091F4F80187898031A1F4DD24EE24FF24C6
:10201000C601880F991FFC01ED5FFC4F8081918103
:10202000A0E0B0E018C040E00E9487128111E9CF23
:10203000BACFE894C7F8DD24EE24FF24C601880F48
:10204000991F880F991FFC01ED5FFC4F80819181E2
:10205000A281B381BF7088839983AA83BB8381E007
:10206000DF91CF911F910F91FF90EF90DF90CF9074
:10207000BF90AF909F908F900895DC015996ED919D
:10208000FC915A973097B9F083899489A589B689CC
:102090004285538564857585841B950BA60BB70B0C
:1020A000811520E89207A105B10538F08FEF9FE771
:1020B000A0E0B0E0089580E090E00895CF93DF9332
:1020C0001F92CDB7DEB76983DC01ED91FC910280F0
:1020D000F381E02D41E050E0BE016F5F7F4F199525
:1020E0000F90DF91CF91089561E0FC0184810C9401
:1020F000630EF89498E02F9887FF02C02D9A01C0D4
:102100002D98880F2F9A9150B1F700000000000021
:1021100000002F9878940895F8942D9A98E080E024
:102120002F9A00000000880F1E9981602F9891500F
:10213000B9F7789408950F931F93CF93DF93EB0132
:102140000E94EB268B010E948C108F3F49F00E9469
:10215000EB26601B710B6C177D07A8F380E001C0B4
:1021600081E0DF91CF911F910F910895CF93DF937D
:10217000EC018E81882389F08F8198859C012F5FE7
:102180003F4F38872F838230924018F40E948C1082
:10219000F3CFCE010E9474101E82DF91CF9108957B
:1021A0008F929F92AF92BF92FF920F931F93CF9304
:1021B000DF93EC01F62E49015A010E94B61060E04F
:1021C0008C810E94630E6CE271E0CE010E949B1034
:1021D0008F2D80640E94791008E110E0D501C401C0
:1021E000002E04C0B695A795979587950A94D2F7C7
:1021F0000E94791008501109083F8FEF180771F7F6
:10220000FF2029F088E0F81204C087E803C085E9C0
:1022100001C08FEF0E94791010E00E948C108A8715
:1022200087FF04C01F3F11F01F5FF7CFDF91CF91F1
:102230001F910F91FF90BF90AF909F908F90089546
:10224000AF92BF92CF92DF92EF92FF920F931F93C4
:10225000CF93DF93EC016901C801820F931F813096
:10226000924008F070C08E81882371F08881998136
:10227000AA81BB8184179507A607B70729F48F8128
:102280009885C816D906B0F5488359836A837B833D
:102290008B85833039F089E0440F551F661F771F07
:1022A0008A95D1F79A01AB0161E1CE010E94D0106D
:1022B000882319F083E08D8346C00E94EB265B01E2
:1022C0000E948C108A878F3F49F40E94EB266A197E
:1022D0007B096D327140A0F38FE003C08E3F31F077
:1022E0008DE08D83CE010E9474102DC018861F8250
:1022F00081E08E838F8198858C159D0540F40E9426
:102300008C108F819885019698878F83F3CF670112
:10231000E00EF11EEC14FD0431F00E948C10F60169
:1023200081936F01F7CF8F819885080F191F188748
:102330000F838985882319F00115124048F0CE01DA
:102340000E94B61005C0CE010E94741080E001C04A
:1023500081E0DF91CF911F910F91FF90EF90DF907F
:10236000CF90BF90AF900895CF92DF92EF92FF92FF
:102370000F931F93CF93DF93EC0179014115510522
:102380006105710511F482E165C08B85833039F0F8
:10239000E9E0440F551F661F771FEA95D1F79A01B0
:1023A000AB0168E1CE010E94D010882311F084E0D7
:1023B00051C08C8597013E5F6901882321F1F701A7
:1023C00000E010E0819190E081279C0144E0359588
:1023D00027954A95E1F782279327102F0027082792
:1023E00019279C01322F22273295307F022713278D
:1023F00075E0880F991F7A95E1F708271927CE16FF
:10240000DF0601F702C00FEF1FEF8EEF0E94791079
:10241000F70181917F010E947910CE14DF04C1F78A
:10242000812F0E947910802F0E9479100E948C10B9
:102430008A878F71853031F081E18D83CE010E94D2
:10244000741009C068E572E0CE010E949B108111F2
:1024500007C085E18D83CE010E94741080E013C017
:1024600020E030E0A9016DE0CE010E94D010811182
:1024700004C00E948C10882311F084E1EBCFCE01C0
:102480000E94741081E0DF91CF911F910F91FF9016
:10249000EF90DF90CF900895809102038823A9F1F7
:1024A0004091060250910702609108027091090262
:1024B00023E033E080910003909101030E94B41166
:1024C000811102C080E008954091F9025091FA0212
:1024D0006091FB027091FC02411551056105710587
:1024E00091F023E033E080910003909101030E947A
:1024F000B411882339F31092F9021092FA02109263
:10250000FB021092FC021092020381E008958F9268
:102510009F92AF92BF92EF92FF920F931F93CF9330
:102520004B015C01C42F8091060290910702A0919B
:102530000802B091090288159905AA05BB0501F1A9
:102540000E944C12811102C080E020C083E0E82E7E
:1025500083E0F82E00E012E020E030E0B501A401B5
:1025600080910003909101030E942011882361F360
:102570008092060290920702A0920802B09209028D
:1025800080910203C82BC093020381E0CF911F9179
:102590000F91FF90EF90BF90AF909F908F90089514
:1025A000CF93DF93EC018D81882379F18C8187FFB4
:1025B00028C06E857F858889998941E00E948712AD
:1025C000882319F1EA8980E2E89FF0011124ED5F88
:1025D000FC4F3097D1F08D81823040F48B899C89FB
:1025E000AD89BE89848F958FA68FB78F8F89988D7F
:1025F000A98DBA8D938F828FB58BA48B8C818F77A9
:102600008C83DF91CF910C944C1280E0DF91CF91BD
:102610000895FC01818D928D009711F00C94D012D9
:1026200008958F929F92AF92BF92CF92DF92EF92D6
:10263000FF920F931F93CF93DF93EC018D81811154
:1026400002C080E078C00B891C892D893E8904175F
:10265000150726073707A8F36A017B01823029F4A2
:10266000CA86DB86EC86FD860DC0C114D104E10468
:10267000F10451F41E821F82188619861A861B8661
:102680001C861D8681E057C08A849B84AC84BD84EF
:10269000EB8DFC8D258530E0275F3F4FB501A40110
:1026A0004150510961097109022E04C07695679560
:1026B000579547950A94D2F7D701C6010197A1090A
:1026C000B10904C0B695A795979587952A95D2F735
:1026D00084179507A607B70720F089288A288B2832
:1026E00071F44F89588D698D7A8D4E835F83688729
:1026F00079874C015D018E010A5F1F4F16C0841B54
:10270000950BA60BB70BF5CF4E815F816885798558
:1027100098018B8D9C8D0E94BA0F91E0891A9108C7
:10272000A108B108882309F48CCF81149104A10475
:10273000B10451F795CFDF91CF911F910F91FF9089
:10274000EF90DF90CF90BF90AF909F908F900895C3
:102750002F923F924F925F926F927F928F929F92B1
:10276000AF92BF92CF92DF92EF92FF920F931F939F
:10277000CF93DF93EC016B014A018D81811103C07E
:102780008FEF9FEFD7C08C8180FFFACF4B885C889A
:102790006D887E884A855B856C857D85C401A0E057
:1027A000B0E093018201041B150B260B370B0817B1
:1027B00019072A073B0718F44201841A950A5401A5
:1027C0001E0126E0220E311CA114B10409F47EC0C2
:1027D0004A855B856C857D852A0181E05822ED81E3
:1027E0008B8D9C8D8A019B01F9E036952795179575
:1027F0000795FA95D1F7E23061F4FC01828D938D53
:10280000A48DB58DBC01CD01600F711F821F931F78
:102810003FC0FC0174807A94702241145104C9F4C1
:10282000711017C0452B462B472B49F48F89988D83
:10283000A98DBA8D8E839F83A887B9870AC04E81E0
:102840005F816885798591010E94BA0F882309F418
:1028500097CFEB8DFC8D8E819F81A885B9850297DE
:10286000A109B109058404C0880F991FAA1FBB1FC5
:102870000A94D2F74685578560897189840F951F20
:10288000A61FB71FBC01CD01670D711D811D911DD4
:1028900020E032E02419350935012A153B0508F4FA
:1028A00039012C8126FD04C06114F2E07F0681F419
:1028B000009106021091070220910802309109024E
:1028C0006017710782079307B1F402C0C40132C0D8
:1028D00040E00E948712882309F452CFF201ED5F95
:1028E000FC4FD601CF01860D971D8E179F0789F0EB
:1028F00021912D93FACF760183019201AB01BC01A6
:1029000080910003909101030E942011882309F413
:1029100037CFC60CD71C8A859B85AC85BD85860DB7
:10292000971DA11DB11D8A879B87AC87BD87A618FF
:10293000B7084ACFDF91CF911F910F91FF90EF9091
:10294000DF90CF90BF90AF909F908F907F906F90CF
:102950005F904F903F902F900895CF93DF93EC01BD
:102960000E94D012882311F01D8281E0DF91CF9167
:1029700008953F924F925F926F927F928F929F92B3
:10298000AF92BF92CF92DF92EF92FF920F931F937D
:10299000CF93DF93CDB7DEB72C970FB6F894DEBF99
:1029A0000FBECDBF5C01DC015B968D909C905C9767
:1029B0001696CD90DD90ED90FC901997C114D1043E
:1029C000E104F10439F0BFEFCB1ADB0AEB0AFB0A92
:1029D000312C07C0F401C080D180E280F380332421
:1029E0003394F40181859285A385B4859C01AD0162
:1029F0002F5F3F4F4F4F5F4F29873A874B875C8749
:102A0000260137011D821E821F821886F4018185EE
:102A10009285A385B4852D813E814F8158852817E5
:102A200039074A075B0708F063C089859A85AB853B
:102A3000BC858C159D05AE05BF0550F482E0C82EFF
:102A4000D12CE12CF12C92E0492E512C612C712CCF
:102A50009E012F5F3F4FB701A601C4010E94BA0F2C
:102A6000882309F445C089819A81AB81BC81892B77
:102A70008A2B8B2B41F0260137019FEF491A590A07
:102A8000690A790A05C0C414D504E604F70491F074
:102A90002D813E814F8158852F5F3F4F4F4F5F4FB4
:102AA0002D833E834F8358873FEFC31AD30AE30A2F
:102AB000F30AACCF0FEF1FEF2FEF3FE0B301A201FE
:102AC000C4010E94190F882399F0D50116964D91E3
:102AD0005D916D917C9119974115510561057105C5
:102AE00049F093018201C4010E94190F811102C0B3
:102AF00080E02AC0D50116964D925D926D927C922F
:102B00001997332051F0D301C2010196A11DB11DC7
:102B1000F40180839183A283B383F5018789908D2B
:102B2000A18DB28D892B8A2B8B2B69F4D5015796F9
:102B30004D925D926D927C925A9714968C91149757
:102B4000806814968C9381E02C960FB6F894DEBFC3
:102B50000FBECDBFDF91CF911F910F91FF90EF90EE
:102B6000DF90CF90BF90AF909F908F907F906F90AD
:102B70005F904F903F9008952F923F924F925F92B7
:102B80006F927F928F929F92AF92BF92CF92DF927D
:102B9000EF92FF920F931F93CF93DF9300D01F927A
:102BA000CDB7DEB78C015B011A01DC0115968C9163
:102BB00015978130C9F414968C9181FF15C082FF5E
:102BC0001DC0F8014389548965897689828593857A
:102BD000A485B58584179507A607B70779F0C801BE
:102BE0000E94111381110AC081E090E0D801139670
:102BF0009C938E93129780E090E036C1610183C070
:102C00005B968D919C915C97FC0174802FEF270D52
:102C10002A013B0139E076946794579447943A959A
:102C2000D1F7722E74207A01F1E0FF22772009F4A7
:102C300076C080E092E08E199F0946018C159D05B3
:102C400008F44C01D8015B962D913C915C97169647
:102C50008D919D910D90BC91A02D0297A109B10974
:102C6000F901058404C0880F991FAA1FBB1F0A948D
:102C7000D2F74685578560897189840F951FA61FF5
:102C8000B71F9C01AD01270D311D411D511D2901AB
:102C90003A01811432E0930609F088C0809106025F
:102CA00090910702A0910802B091090248165906B6
:102CB0006A067B0659F48FEF9FEFDC0180930602D2
:102CC00090930702A0930802B09309029501B30103
:102CD000A20180910003909101030E94B411882306
:102CE00009F482CF9EEFB91AC818D908F801828575
:102CF0009385A485B585880D991DA11DB11D828779
:102D00009387A487B587D8011A964D915D916D91EF
:102D10007C911D97C114D10409F072CF87C0E114D2
:102D2000F10409F086CF16964D915D916D917C91DD
:102D30001997411551056105710559F457968D9103
:102D40009D910D90BC91A02D0097A105B10541F575
:102D500021C09E012F5F3F4F0E94BA0F882309F4C4
:102D60004BCF89819A81AB81BC81F801238D348D51
:102D7000F9012789203129F048EF5FEF6FEF7FE0FD
:102D800004C048EF5FEF60E070E084179507A60786
:102D9000B70730F0C8010E94B91481114ACF24CF7F
:102DA000F80186839783A087B18743CFE114F104AC
:102DB00029F5D8011A964D915D916D917C911D97E1
:102DC00053968D919D910D90BC91A02D4817590758
:102DD0006A077B0798F00E944C12882309F404CFFD
:102DE0004092060250920702609208027092090215
:102DF0008091020381608093020308C041E0C30117
:102E0000B2010E948712882309F4EECED501F701A2
:102E1000ED5FFC4F9F01280D391D2E173F0719F05C
:102E20008D918193FACFA80CB91C5ECFF8018389EC
:102E30009489A589B68984179507A607B70738F43A
:102E4000438B548B658B768B848180688483F801F7
:102E5000848183FD02C0C10107C0C8010E94D01255
:102E6000882309F4C1CEF7CF0F900F900F900F90E9
:102E7000DF91CF911F910F91FF90EF90DF90CF9056
:102E8000BF90AF909F908F907F906F905F904F908A
:102E90003F902F900895CF93DF931F92CDB7DEB769
:102EA000698341E050E0BE016F5F7F4F0E94BC1517
:102EB0000F90DF91CF910895CF93DF93EC01898D2F
:102EC0009A8D009739F481E090E09B838A8380E0BB
:102ED00090E00BC0FC01138212820E94BC15E98DA8
:102EE000FA8D22813381232B71F7DF91CF910895E1
:102EF000CF93DF931F92CDB7DEB741E050E0BE0124
:102F00006F5F7F4F0E94A813019719F4898190E0A9
:102F100002C08FEF9FEF0F90DF91CF910895FC01DA
:102F2000818D928D009711F00C9478178FEF9FEFA1
:102F300008950F931F93CF93DF93FC01818D928DA2
:102F40000097B9F0EF010E9478178C010F3F8FEFC7
:102F5000180791F0898D9A8DFC014285538564850F
:102F6000758541505109610971090E941113C80109
:102F700005C080E090E002C08FEF9FEFDF91CF911E
:102F80001F910F910895FC01DB0112968D919C9188
:102F900013979383828389E292E0918380831496CE
:102FA0008C911497848315968C911597858316962A
:102FB0004D915D916D917C91199746835783608700
:102FC00071871A964D915D916D917C911D97428705
:102FD0005387648775871E964D915D916D917C91A5
:102FE000519746875787608B718B52968C91529779
:102FF000828B53964D915D916D917C915697438B49
:10300000548B658B768B57964D915D916D917C912C
:103010005A97478B508F618F728F5B968D919C91E1
:103020005C97948F838F08950F931F93CF93DF93B3
:10303000EC018B0110161106B4F4FE0185919491F8
:103040002496FE013297659174918F3F2FEF92077E
:1030500029F480E090E00E94C52602C00E946B2304
:1030600004501109E7CFDF91CF911F910F9108957F
:10307000DF92EF92FF920F931F93CF93DF93CDB721
:10308000DEB768970FB6F894DEBF0FBECDBF7C01E8
:103090008B011016110654F5F70184913196D490E6
:1030A000F2E0EF0EF11C8F3741F46D2D70E080E0FF
:1030B00090E00E94C526D12C13C02E2DDE01119662
:1030C000F701AD019E2F921B9D1520F494919D93C5
:1030D0003196F8CFED0CF11C6D2D90E00E9414227A
:1030E000ED2DF0E032960E1B1F0BD3CF68960FB676
:1030F000F894DEBF0FBECDBFDF91CF911F910F912E
:10310000FF90EF90DF900895FC01848D958D292F1D
:1031100022952F7030E021703327A9014627BA018C
:1031200071A360A380FF0CC0672B19F480E290E0CC
:1031300002C081E290E040E050E060E00C94142294
:10314000868D978D833957E79507E1F040F48435F4
:1031500041E0940779F080329445C1F413C086327F
:1031600023E9920779F0893045EB940759F08532CD
:10317000924961F4660F771F660F771F636187E0DE
:1031800090E006C0626081E094E002C081E690E0D9
:103190000C946B238F929F92AF92BF92CF92DF924B
:1031A000EF92FF920F931F93CF93DF9300D01F9264
:1031B000CDB7DEB77C014B015A016901FC01868D58
:1031C000978D8732F3E99F0799F4F701858982305B
:1031D00031F4F0E2AF0EB11C005E1F4F1EC0833011
:1031E000E1F420E2820E911C80E2C80ED11C15C0D1
:1031F0008632954191F4F701858980FF0EC0C801A0
:10320000841B950B19F40F5F1F4F07C062177307DC
:1032100021F46B01C80ED91E8A01F701848D80FF4D
:103220001AC084A599828A82DB82CC82AE014F5F6C
:103230005F4F64E090E00E941422F70180A9B982F8
:10324000AA821B830C83AE014F5F5F4F64E090E066
:103250000E9414223CC0B401F70186A197A10E94EC
:103260006B23B501F70180A591A50E946B23C814BB
:10327000D90419F40A151B0551F1F701848D85FF56
:103280000EC0858980FF06C0102F0027A02AB12A12
:10329000850105C0DC2CCC248C289D286401B40158
:1032A000F70184A595A50E946B23B501F70180A9BC
:1032B00091A90E946B23B601F70186A597A50E94EC
:1032C0006B23B801F70182A993A90E946B230F9089
:1032D0000F900F900F90DF91CF911F910F91FF9062
:1032E000EF90DF90CF90BF90AF909F908F90089518
:1032F000AF92BF92CF92DF92EF92FF920F931F9304
:10330000CF93DF93EC018091FD02882349F0C70140
:103310008F719927880F991FE1ECEE22E82AF92A8C
:1033200037FF05C0620F731F319521953109260FB4
:10333000371F77FF02C060E070E0E885F9852E173F
:103340003F070CF4F9015F01A61AB70A17FF05C081
:10335000400F511F119501951109CA01800F911F4E
:1033600057FF02C040E050E00A851B858017910797
:103370000CF48C016801C41AD50A015011099F018F
:1033800021503109CE010E94CA188B988A988AA5CB
:103390009BA520910201277820930201A5982EB1C8
:1033A000277C2EB960910201292F3327A901437090
:1033B000552705E0440F551F0A95E1F7462B40932A
:1033C00002016EB1A9014C705527440F551F440FDF
:1033D000551F462B4EB964B3A90140715527440FC0
:1033E000551F462B44BB6EB1A90140725527559518
:1033F000479555954795462B4EB940910201207C43
:103400003327A3E035952795AA95E1F7242B209340
:1034100002018998899A209102012778209302015C
:10342000A5982EB1277C2EB9409102019C012370F2
:103430003327B5E0220F331FBA95E1F7242B2093F1
:1034400002014EB19C012C703327220F331F220F33
:10345000331F242B2EB944B39C0120713327220F34
:10346000331F242B24BB4EB19C012072332735958A
:10347000279535952795242B2EB920910201807C24
:10348000992763E0959587956A95E1F7822B80935C
:1034900002018998899A8A9AAC14BD042CF49A2D59
:1034A0008B2D5601C92ED82E8F2D99279C01237064
:1034B00033272295220F207EAC014C705527342FE4
:1034C000330F330FAC0140715527440FBC01769583
:1034D000679576956795562F587063E09695879512
:1034E0006A95E1F78871B70163707727962F9295F7
:1034F000990F907EB7016C707727660F660FF70102
:10350000E071FF277E2F770FD701B695A795B69567
:10351000A795A870F701B3E0F695E795BA95E1F79E
:103520001E2F18711C141D040CF043C0F501B0913E
:103530000201B778B0930201A598BEB1B77CBEB9BD
:10354000B0910201B22BB0930201BEB1B32BBEB950
:10355000B4B3B42BB4BBBEB1B52BBEB9B0910201AC
:10356000B82BB09302018998899AB0910201B7787B
:10357000B0930201A598BEB1B77CBEB9B09102016B
:10358000B92BB0930201BEB1B62BBEB9B4B3B72B01
:10359000B4BBBEB1BA2BBEB9B0910201B12BB0938E
:1035A00002018998899A319711F6E1E0CE1AD10883
:1035B000B9CF8B9A8C8D80FF08C08E8D9F8D8632FF
:1035C000954191F48D8980FF0FC00A851B850150BC
:1035D0001109288539852150310940E050E060E02B
:1035E00070E0CE010E94CA18DF91CF911F910F9118
:1035F000FF90EF90DF90CF90BF90AF900895EF9243
:10360000FF920F931F93CF93DF937C01E90177FD26
:103610002AC057FD28C0FC0180859185681779076D
:1036200014F58285938548175907ECF48091FD02C3
:10363000882341F0CE018F719927880F991FC17C93
:10364000C82BD92B8A019B01C7010E94CA18BE0151
:10365000F70182A593A5DF91CF911F910F91FF9064
:10366000EF900C946B23DF91CF911F910F91FF90FE
:10367000EF900895EF92FF920F931F93CF93DF93F4
:10368000CDB7DEB72A970FB6F894DEBF0FBECDBF19
:103690007C01862F8370F701858B962F917060FFD8
:1036A00003C02681378103C0F70124813581F701EA
:1036B00031872087992319F02481358103C0F701D0
:1036C00026813781F70133872287823041F08330AA
:1036D00041F0813011F088E405C088E203C088E938
:1036E00001C088EF8A87F701248D358D30FF03C034
:1036F0008A8580588A8731FF04C09A8580E48927AB
:103700008A8733FF04C09A8588E089278A87F70172
:10371000868D978D20FF71C08431F8E69F07F9F4FC
:103720009A85892F881F8827881F8295880F880F80
:10373000807C96FD02C020E001C020E298729A874A
:103740001F828260822B88878BE38987AE01495F65
:103750005F4F63E086EB90E00E9414222BC083361B
:1037600029E1920741F0813834E9930721F0813152
:1037700045E19407F9F42A8527FF02C021602A87D2
:103780002A8526FF02C022602A878336E9E19E0748
:1037900019F48A858F730DC08138F4E99F0719F4F5
:1037A0008A858F7206C08131954121F48A858F7E8A
:1037B000806C8A872AE230E0F70137A326A38BE2E8
:1037C00090E091A780A74CE250E053A742A735A70D
:1037D00024A737A726A791AB80AB93AB82ABAE01F2
:1037E000465F5F4F61E086E390E00E9414228A8585
:1037F00090E0F70193A382A3CAC02A858339F7E733
:103800009F0709F448C050F4843541E0940781F0E3
:103810008032E4E59E0709F073C03DC08632F3E9CB
:103820009F07C9F1893035EB930709F069C033C0B0
:1038300087E390E0F70195A784A786E390E097A738
:1038400086A789E390E091AB80AB88E390E093ABEF
:1038500082AB80E290E097A386A381E290E091A7FB
:1038600080A782E290E093A782A7822F022E000C0D
:10387000990B8827990F881F9927982F8827990FC8
:1038800026FD03C060E070E002C060E071E0886285
:10389000682B792B66C040E052E0F70157A346A39E
:1038A00041E052E051A740A742E052E053A742A7AF
:1038B00040E152E055A744A741E152E057A746A78F
:1038C00042E152E051AB40AB43E152E053AB42AB7B
:1038D00027FD03C020E030E002C020E030E886325F
:1038E000F3E99F0731F08032944519F060E07AE601
:1038F00002C060E075E3622B732B80E094E027C088
:1039000080E290E0F70197A386A381E290E091A77F
:1039100080A782E290E093A782A780E590E095A738
:1039200084A781E590E097A786A782E590E091AB18
:1039300080AB83E590E093AB82AB27FD03C060E0F2
:1039400070E002C060E070E8776280E690E00E947C
:103950006B238A8586FD03C060E070E002C060E0F2
:1039600071E081E090E00E946B238A8585FD03C0B1
:1039700060E070E002C068E070E083FD7061606349
:10398000F70173A362A383E090E00E946B23F70129
:10399000858980FF1CC0848D958D92FD18C086A1FD
:1039A00097A120A531A537A326A391A780A784A519
:1039B00095A520A931A935A724A791AB80AB86A5F1
:1039C00097A522A933A937A726A793AB82ABF70106
:1039D0000285138501501109208531852150310957
:1039E00040E050E060E070E0C7010E94CA18F701B3
:1039F00066817781868D978D8732F3E99F0741F441
:103A0000F70125892250223018F400E210E002C0AC
:103A100000E010E08732F3E99F0729F022273327DF
:103A2000201B310B04C020E230E0201B310BF701DA
:103A3000448D40FF24C019820A837B836C833D83BD
:103A40002E83AE014F5F5F4F66E083E390E00E94FC
:103A5000142219820A83AE014F5F5F4F62E087E351
:103A600090E00E941422F701848D80FF54C040E052
:103A700050E060E083E190E00E9414224CC0833962
:103A8000F7E79F0779F160F4803234E5930751F14D
:103A9000833847E7940781F08435914079F510C069
:103AA0008632F3E99F07F1F0893025EB9207D1F0D8
:103AB0008532924919F504C0F70160A171A122C0B5
:103AC000600F711F6150710981E390E00E946B23C8
:103AD000B80182E390E00E946B2360E070E083E332
:103AE00090E017C0F70160A171A1626081E094E0ED
:103AF0000E946B23B80184E094E00BC0F70160A141
:103B000071A1626081E690E00E946B23B8018AE6B1
:103B100090E00E946B232A960FB6F894DEBF0FBE8A
:103B2000CDBFDF91CF911F910F91FF90EF9008953E
:103B30000F931F93CF93DF93EC016DE00E9414214C
:103B40008C016AE0CE010E941421800F911FDF9149
:103B5000CF911F910F9108956115710551F0FB01EF
:103B600001900020E9F73197AF01461B570B0C94E9
:103B7000C72180E090E00895EF92FF920F931F938A
:103B8000CF93DF93EC017B018A011B821A8288EEBE
:103B900093E0A0E0B0E08C839D83AE83BF8389E196
:103BA00092E0998388838DE190E00E948C349A8F13
:103BB000898F009779F02DE1F701DC0101900D92DA
:103BC0002A95E1F74CE050E0B801CE010C960E9436
:103BD000C535188EDF91CF911F910F91FF90EF9017
:103BE00008954F925F926F927F92AF92BF92CF9261
:103BF000DF92EF92FF920F931F93CF93DF9300D04A
:103C00001F92CDB7DEB78C0149835A836B837C83C7
:103C10005901C12CD12C7601412C82E0582E612C07
:103C2000712C49815A816B817C819E012F5F3F4FAE
:103C3000C8010E94BA0F882351F1D301C201F801D3
:103C4000058404C0880F991FAA1FBB1F0A94D2F7CE
:103C5000C80ED91EEA1EFB1E49815A816B817C81E8
:103C60008789803129F088EF9FEFAFEFBFE004C074
:103C700088EF9FEFA0E0B0E0481759076A077B077D
:103C800080F2F501C082D182E282F38281E00F905E
:103C90000F900F900F90DF91CF911F910F91FF9098
:103CA000EF90DF90CF90BF90AF907F906F905F903C
:103CB0004F900895CF93DF93EC0180E2689FF0016D
:103CC0001124ED5FFC4F6A8B8091060290910702F0
:103CD000A0910802B09109028E879F87A88BB98BAB
:103CE0004489558960E070E0BA0155274427828DE8
:103CF000938DA0E0B0E0482B592B6A2B7B2B4F8B88
:103D0000588F698F7A8F8385887151F4848D958D52
:103D1000A68DB78D8B8B9C8BAD8BBE8B81E00EC03F
:103D2000803111F080E015C09E012D5E3F4F8B8DDC
:103D30009C8D0E94F11D8823A9F384E08D8381E08E
:103D40008C831E821F82188619861A861B861C8603
:103D50001D86DF91CF910895AF92BF92CF92DF92EF
:103D6000EF92FF920F931F93CF93DF93CDB7DEB700
:103D70002B970FB6F894DEBF0FBECDBF6C01FE01CE
:103D80003196CE010C967F0120E22193E817F907C6
:103D9000E1F7DA0120E037E09D91992331F19E327D
:103DA00031F43A3009F4AAC028E03AE0F5CFE6E76A
:103DB000FEE08491882321F031969813FACF9EC0BB
:103DC000321708F49BC08FED890F8E3508F096C02E
:103DD00081E0820FF701E20FF11D2FE9290F2A314F
:103DE00008F490529083282FD7CF8981803209F42C
:103DF00085C08B01FB01838D948DF601948F838F99
:103E0000FB0116821782108611861286138614868D
:103E10001586B12CF80182859385A485B5854389E3
:103E200054896589768984179507A607B70708F02E
:103E300065C025E0B695A795979587952A95D1F702
:103E4000F82FFF70AF2EF8018581823008F456C03C
:103E5000C8010E94781797FD51C0F80182859385AB
:103E6000A485B5854F96A11DB11D82879387A48730
:103E7000B587F0E2AF9EB00111246D5F7C4F6115F4
:103E80007105E1F1FB0180818823F1F0853E99F114
:103E90004BE050E0C7010E94AD35892B09F0BACF45
:103EA0006A2DC6012B960FB6F894DEBF0FBECDBFAC
:103EB000DF91CF911F910F91FF90EF90DF90CF9006
:103EC000BF90AF900C945A1EB11018C0F601A28A90
:103ED0008091060290910702A0910802B091090218
:103EE00086879787A08BB18BFB018081882331F077
:103EF000BB24B3948FCFB110FBCFE8CF80E02B96DB
:103F00000FB6F894DEBF0FBECDBFDF91CF911F91EA
:103F10000F91FF90EF90DF90CF90BF90AF900895FA
:103F20008F929F92AF92BF92CF92DF92EF92FF92C9
:103F3000CF93DF93C82F83E095E0909301038093A4
:103F40000003CC2369F1C53010F080E00CC140E0E3
:103F500060E070E0CB010E9487128823B1F320E17A
:103F6000C29FC00111248D509D4FFC01E254FE4FB1
:103F700020812F7751F73C96408151816281738176
:103F8000443651056105710500F33497C080D18036
:103F9000E280F380C114D104E104F10421F4D5CF0F
:103FA000C12CD12C760140E0C701B6010E948712D6
:103FB000882359F280910E0390910F03811592404E
:103FC00021F6A0911303AA2309F4BFCF6091110336
:103FD000709112036115710509F4B7CF2091100398
:103FE000222309F4B2CFA09322052093140580E088
:103FF00030E041E050E0C82FFA01082E02C0EE0F79
:10400000FF1F0A94E2F72E173F0739F08F5FC83081
:1040100091F789E080931D0598CF80931D0520912D
:10402000190330911A032115310519F040E050E0D1
:1040300008C0209127033091280340912903509113
:104040002A032093150530931605409317055093C6
:10405000180546015701860E971EA11CB11C8092BF
:10406000230590922405A0922505B0922605E091A3
:104070001403F0911503F0932905E0932805B0E0AF
:104080000E94DC35860E971EA81EB91E80922A0556
:1040900090922B05A0922C05B0922D0585E0EE0F95
:1040A000FF1F8A95E1F7E150FE4FEF2FFF27E695BE
:1040B0008E0E9F1EA11CB11C80921E0590921F05A2
:1040C000A0922005B092210520911603309117038C
:1040D0002115310521F0A90160E070E008C0409190
:1040E0002303509124036091250370912603D70187
:1040F000C60188199909AA09BB09840F951FA61F33
:10410000B71F04C0B695A79597958795CA95D2F71E
:104110008093190590931A05A0931B05B0931C0575
:10412000853F2FE09207A105B10510F48CE018C07F
:10413000853F9F4FA105B10510F480E111C080912A
:104140002F0390913003A0913103B09132038093FB
:104150002A0590932B05A0932C05B0932D0580E2A2
:104160008093270581E0DF91CF91FF90EF90DF9062
:10417000CF90BF90AF909F908F90089581E08093F3
:10418000FF02E1E0F1E08081886780839D9A8DB134
:1041900088638DB9809A819A829A839A849A8B9A3D
:1041A000889A899A8C9A62E370E080E090E00E949D
:1041B000C5268C9864E670E080E090E00E94C526F9
:1041C0008C9A64E670E080E090E00E94C52660E092
:1041D00070E080EB90E00C946B23EF92FF920F93D2
:1041E0001F93DC01ED91FC91048CF58DE02D78019D
:1041F00001E010E019951F910F91FF90EF90089545
:10420000EF92FF920F931F93DC01ED91FC91048CD0
:10421000F58DE02D7801890121E030E019951F919D
:104220000F91FF90EF9008950F931F93CF93DF931B
:10423000FC01A685B7858D01005C1F4FE8018881D0
:10424000998101968F739927AD014E5B5F4FEA010B
:104250002881398128173907D1F3E801288139816C
:10426000A20FB31F6C93A685B785A05CBF4F1196B4
:104270009C938E93A689B7892C9181E090E0078C5E
:1042800002C0880F991F0A94E2F7822B8C9381E079
:1042900081A30488F589E02D80818064808381E09A
:1042A00090E0DF91CF911F910F910895FC0181A1C2
:1042B000882329F0A489B5898C9186FFFBCF11A2B0
:1042C0000895FC01A485B585FD01E05CFF4F2081C8
:1042D00031813296808191812817390779F0808168
:1042E0009181A80FB91F8C91208131812F5F3F4FA1
:1042F0002F7333273183208390E008958FEF9FEF52
:104300000895DC011C96ED91FC911D97DF01A05CE6
:10431000BF4F2D913C91119712968D919C911197C1
:104320002817390739F08D919C91E80FF91F80818A
:1043300090E008958FEF9FEF0895FC012485358567
:10434000F901E05CFF4F80819181329620813181BB
:10435000821B930B8F7399270895FB01E05CFF4F3D
:1043600020813181DB01AE5BBF4F4D915C912F5FAE
:104370003F4F2F7333274217530741F0408151813C
:10438000DB01A40FB51F8C93318320830895CF9256
:10439000DF92EF92FF920F931F93CF93DF936C0105
:1043A000EB017B01E40EF51E00E010E0CE15DF0509
:1043B00061F06991D601ED91FC910190F081E02DC1
:1043C000C6011995080F191FF1CFC801DF91CF91D0
:1043D0001F910F91FF90EF90DF90CF9008953FB71E
:1043E000F89480912D0890912E08A0912F08B091FB
:1043F000300826B5A89B05C02F3F19F00196A11DD6
:10440000B11D3FBFBA2FA92F982F8827820F911D6A
:10441000A11DB11DBC01CD0142E0660F771F881FB1
:10442000991F4A95D1F708958B988A982091020197
:10443000277820930201A5982EB1277C2EB9709180
:104440000201292F3327F901E370FF27A5E0EE0FC2
:10445000FF1FAA95E1F7E72BE09302017EB1F90176
:10446000EC70FF27EE0FFF1FEE0FFF1FE72BEEB9DB
:1044700074B3F901E071FF27EE0FFF1FE72BE4BBD8
:104480007EB1F901E072FF27F595E795F595E7957F
:10449000E72BEEB970910201207C3327E3E03595DC
:1044A0002795EA95E1F7272B209302018998899AAD
:1044B00020910201277820930201A5982EB1277C34
:1044C0002EB9709102019C0123703327F5E0220F71
:1044D000331FFA95E1F7272B209302017EB19C014F
:1044E0002C703327220F331F220F331F272B2EB997
:1044F00074B39C0120713327220F331F272B24BB59
:104500007EB19C01207233273595279535952795E7
:10451000272B2EB9709102019C01207C3327F3E0F8
:1045200035952795FA95E1F7272B20930201899875
:10453000899A8A9AFA01A091FE027FEF760F1616E9
:104540000CF0C7C0219130910201377830930201FD
:10455000A5983EB1377C3EB960910201322F33708D
:10456000B0E23B9FA0011124462B409302016EB1A3
:10457000322F3C70B4E03B9FA0011124462B4EB972
:1045800044B3322F3071330F342B34BB6EB1322F22
:104590003072432F50E05595479555954795462BDA
:1045A0004EB930910201207C269526952695232B25
:1045B000209302018998899A711102C0672FBDCF9B
:1045C000AA23E1F301968A9820910201277820938B
:1045D0000201A5982EB1277C2EB960910201292FE6
:1045E0003327A90143705527B5E0440F551FBA95ED
:1045F000E1F7462B409302016EB1A9014C7055279B
:10460000440F551F440F551F462B4EB964B3A901E3
:1046100040715527440F551F462B44BB6EB1A9016D
:10462000407255275595479555954795462B4EB958
:1046300040910201207C332753E0359527955A9508
:10464000E1F7242B209302018998899A2091020195
:10465000277820930201A5982EB1277C2EB940918E
:1046600002019C012370332765E0220F331F6A95F6
:10467000E1F7242B209302014EB19C012C703327CB
:10468000220F331F220F331F242B2EB944B39C015A
:1046900020713327220F331F242B24BB4EB19C01E2
:1046A000207233273595279535952795242B2EB9DC
:1046B000409102019C01207C3327B3E0359527957A
:1046C000BA95E1F7242B209302018998899A8A9A56
:1046D00075CF8B9A08958B988A98E2E0F1E020815B
:1046E00027782083A5982EB1277C2EB9A081292F69
:1046F0003327A90143705527B5E0440F551FBA95DC
:10470000E1F74A2B4083AEB1A9014C705527440F05
:10471000551F440F551F4A2B4EB9A4B3A901407130
:104720005527440F551F4A2B44BBAEB1A901407217
:10473000552755954795559547954A2B4EB9408134
:10474000207C332753E0359527955A95E1F7242BA4
:1047500020838998899A208127782083A5982EB173
:10476000277C2EB940819C0123703327A5E0220FBE
:10477000331FAA95E1F7242B20834EB19C012C70A6
:104780003327220F331F220F331F242B2EB944B39C
:104790009C0120713327220F331F242B24BB4EB1E1
:1047A0009C01207233273595279535952795242B25
:1047B0002EB92081807C9927B3E095958795BA958D
:1047C000E1F7822B80838998899A8A9A80818778F9
:1047D0008083A5988EB1877C8EB94081872F9927D9
:1047E0009C012370332755E0220F331F5A95E1F7C0
:1047F000242B20834EB19C012C703327220F331FB2
:10480000220F331F242B2EB944B39C012071332770
:10481000220F331F242B24BB4EB19C01207233275F
:104820003595279535952795242B2EB92081807CA9
:104830009927A3E095958795AA95E1F7822B808328
:104840008998899A808187788083A5988EB1877CA2
:104850008EB92081CB0183709927B5E0880F991F0D
:10486000BA95E1F7822B80832EB1CB018C7099270A
:10487000880F991F880F991F822B8EB924B3CB0103
:1048800080719927880F991F822B84BB2EB1CB0191
:10489000807299279595879595958795822B8EB9E6
:1048A0008081607C7727A3E075956795AA95E1F7ED
:1048B000682B60838998899A8B9A0895482F440FB2
:1048C000440F440FE2E0F1E0208127782083A5988F
:1048D0002EB1277C2EB9208120835EB19C01222736
:1048E000387F232F3327B9016C707727660F771F26
:1048F000660F771F652B6EB954B3B90160717727C6
:10490000660F771F652B64BB5EB1B90160727727B4
:104910007595679575956795652B6EB95081207C67
:104920003327B3E035952795BA95E1F7252B2083FA
:104930008998899A208127782083A5982EB1277C91
:104940002EB9208120835EB1807E977023E09695FA
:1049500087952A95E1F79C012C703327220F331F8E
:10496000220F331F252B2EB954B39C0120713327FE
:10497000220F331F252B24BB5EB19C0120723327ED
:104980003595279535952795252B2EB92081807C47
:104990009927B3E095958795BA95E1F7822B8083A7
:1049A0008998899A808187788083A5988EB1877C41
:1049B0008EB9808180839EB1842F8C70880F880F80
:1049C000892B8EB994B3842F8071880F892B84BB77
:1049D0002EB1942F9072892F90E09595879595959B
:1049E0008795822B8EB98081407C46954695469569
:1049F000482B40838998899A08951F920F920FB689
:104A00000F9211240BB60F922F933F938F939F9386
:104A1000EF93FF9320918D0530918E0580918F0546
:104A2000909190052817390731F4809131018F7DDD
:104A30008093310114C0E0918F05F0919005E35B04
:104A4000FA4F208180918F059091900501968F7388
:104A500099279093900580938F0520933601FF91BD
:104A6000EF919F918F913F912F910F900BBE0F90DF
:104A70000FBE0F901F9018951F920F920FB60F92B6
:104A800011240BB60F922F933F938F939F93EF9325
:104A9000FF9320911506309116068091170690918C
:104AA00018062817390731F48091D1008F7D809343
:104AB000D10014C0E0911706F0911806EB52FA4F9E
:104AC0002081809117069091180601968F7399277F
:104AD00090931806809317062093D600FF91EF91CC
:104AE0009F918F913F912F910F900BBE0F900FBE12
:104AF0000F901F9018951F920F920FB60F921124CE
:104B00000BB60F922F933F938F939F93EF93FF9347
:104B100020919D0630919E0680919F069091A0065F
:104B20002817390731F48091C9008F7D8093C9001F
:104B300014C0E0919F06F091A006E35AF94F20813E
:104B400080919F069091A00601968F73992790936C
:104B5000A00680939F062093CE00FF91EF919F9136
:104B60008F913F912F910F900BBE0F900FBE0F9022
:104B70001F9018951F920F920FB60F9211240BB62B
:104B80000F922F933F938F939F93EF93FF932091D7
:104B9000250730912607809127079091280728172D
:104BA000390731F48091C1008F7D8093C10014C01A
:104BB000E0912707F0912807EB51F94F2081809170
:104BC00027079091280701968F73992790932807BC
:104BD000809327072093C600FF91EF919F918F91BB
:104BE0003F912F910F900BBE0F900FBE0F901F9013
:104BF00018951F920F920FB60F9211240BB60F92B9
:104C00002F933F934F935F936F937F938F939F93D4
:104C1000AF93BF93EF93FF938091300182FD07C064
:104C20008091360161E975E00E94AD2102C080915A
:104C30003601FF91EF91BF91AF919F918F917F913D
:104C40006F915F914F913F912F910F900BBE0F90FD
:104C50000FBE0F901F9018951F920F920FB60F92D4
:104C600011240BB60F922F933F934F935F936F9343
:104C70007F938F939F93AF93BF93EF93FF93809115
:104C8000D00082FD07C08091D60069E176E00E94E5
:104C9000AD2102C08091D600FF91EF91BF91AF91FD
:104CA0009F918F917F916F915F914F913F912F9144
:104CB0000F900BBE0F900FBE0F901F9018951F9274
:104CC0000F920FB60F9211240BB60F922F933F93B2
:104CD0004F935F936F937F938F939F93AF93BF9304
:104CE000EF93FF938091C80082FD07C08091CE00B2
:104CF00061EA76E00E94AD2102C08091CE00FF9172
:104D0000EF91BF91AF919F918F917F916F915F9143
:104D10004F913F912F910F900BBE0F900FBE0F90B0
:104D20001F9018951F920F920FB60F9211240BB679
:104D30000F922F933F934F935F936F937F938F9334
:104D40009F93AF93BF93EF93FF938091C00082FD39
:104D500007C08091C60069E277E00E94AD2102C0E1
:104D60008091C600FF91EF91BF91AF919F918F917C
:104D70007F916F915F914F913F912F910F900BBE5B
:104D80000F900FBE0F901F901895CF92DF92EF9269
:104D9000FF92CF93DF936B017C010E94EF21EB0127
:104DA000C114D104E104F10479F00E94EF216C1BDD
:104DB0007D0B683E7340A0F381E0C81AD108E1087A
:104DC000F108C851DC4FECCFDF91CF91FF90EF900D
:104DD000DF90CF9008952FB7F894609129087091D3
:104DE0002A0880912B0890912C082FBF08951F92BC
:104DF0000F920FB60F9211242F933F938F939F938F
:104E0000AF93BF938091290890912A08A0912B0815
:104E1000B0912C083091310823E0230F2D3720F476
:104E20000196A11DB11D05C026E8230F0296A11D04
:104E3000B11D209331088093290890932A08A093EC
:104E40002B08B0932C0880912D0890912E08A091EA
:104E50002F08B09130080196A11DB11D80932D0837
:104E600090932E08A0932F08B0933008BF91AF9174
:104E70009F918F913F912F910F900FBE0F901F9098
:104E80001895EF92FF920F931F93DC011A960D91E4
:104E90001C911B9718962D913C911997ED91FC91BF
:104EA000048CF58DE02D7B0140E050E060E070E087
:104EB00019951F910F91FF90EF9008952F923F92B7
:104EC0004F925F926F927F928F929F92AF92BF921A
:104ED000CF92DF92EF92FF920F931F93CF93DF93C6
:104EE000CDB7DEB7C359D1090FB6F894DEBF0FBEF8
:104EF000CDBF2DB73EB7CE56DF4F39832883C25979
:104F0000D040789484B5826084BD84B5816084BDCE
:104F100085B5826085BD85B5816085BD80916E0057
:104F2000816080936E001092810080918100826088
:104F300080938100809181008160809381008091C5
:104F400080008160809380008091B10084608093B4
:104F5000B1008091B00081608093B0008091910099
:104F60008260809391008091910081608093910094
:104F7000809190008160809390008091A100826078
:104F80008093A1008091A10081608093A100809115
:104F9000A00081608093A0008091210182608093B5
:104FA0002101809121018160809321018091200164
:104FB00081608093200180917A00846080937A00E0
:104FC00080917A00826080937A0080917A0081607B
:104FD00080937A0080917A00806880937A001092A2
:104FE000C100E0918107F091820781E090E09C018F
:104FF00000908D0702C0220F331F0A94E2F720832E
:10500000E0917D07F0917E071082E0917F07F0919B
:1050100080072FEC208310928E07E0918307F09198
:10502000840740819C010090890702C0220F331F32
:105030000A94E2F7242B2083E0918307F091840700
:1050400040819C0100908A0702C0220F331F0A94FE
:10505000E2F7242B2083E0918307F09184074081BD
:105060009C0100908B0702C0220F331F0A94E2F7C5
:10507000242B2083E0918307F09184072081009006
:105080008C0702C0880F991F0A94E2F7809582234B
:10509000808360E080E090E00E94FF0C883034E57F
:1050A000930709F4D7C0803244E5940709F4D5C0CA
:1050B0008938994809F4D4C060E087E690E00E94FE
:1050C000FF0C8734974409F4CEC081EA90E00E9437
:1050D000400E6130F1E67F0709F4C8C06F3F7F4F93
:1050E00019F406E215E1EEC08FEB90E00E940E0E7F
:1050F000673533E8730709F4BCC0613844E97407C5
:1051000009F4BAC0613155E1750709F4B8C06032DD
:1051100085E1780709F4B6C0663295E1790709F3AD
:105120006138E5E17E0709F4B0C06115744109F406
:10513000AFC084ED90E00E94400E6031734509F4E9
:10514000AAC087ED90E00E94400E6133704809F4D8
:10515000A5C08FEE90E00E940E0E6732734909F4ED
:10516000A0C08EEF90E00E94400EBB27A92F982F81
:10517000872F8335904209F497C084E090E00E9425
:10518000400E9B01811124C0211580E8380701F5EC
:105190008091100290911102A091120289839A834A
:1051A000AB83AE014F5F5F4F63E089EB90E00E94FD
:1051B000142260E080ED90E00E94FF0C893929F014
:1051C0008039C9F400E910E97DC009E910E07AC02E
:1051D000263295E1390709F484CF203FE9E83E07FC
:1051E00009F465C02235F5E83F0709F463C02131B1
:1051F0003C4A09F462C083ED90E00E94400EBB2758
:10520000A92F982F872F8336914909F459C083ED30
:1052100090E00E94400E8B01872F7359723008F482
:1052200051C0883909F44EC0873709F44BC0863124
:1052300009F448C0033D110509F444C0033D83ED62
:10524000180709F43FC060E080E090E00E94FF0C86
:105250008C0138C008E014E535C000E214E532C026
:1052600009E812E12FC007E413E82CC003E619E1B6
:1052700029C007E513E826C001E814E923C001E1CD
:1052800015E120C000E215E11DC001E815E11AC0DA
:1052900004E118E617C000E113E514C001E310E8CB
:1052A00011C007E213E90EC003E510E20BC005E3ED
:1052B00017E708C009E817E705C001E11CEA02C0CA
:1052C00003E611E96DE772E08DE697E00E94AC1D00
:1052D000C801A0E0B0E019A2BE016F5D7F4F4C0194
:1052E0005D01F4E0B694A79497948794FA95D1F76A
:1052F000E0E18E9E80191124615071098A3014F406
:10530000805D01C0895CFB018083D501C4018928CF
:105310008A288B2821F78DE697E00E94AC1D8DE648
:1053200097E00E94981D033DF3ED1F0711F401E87B
:1053300014E90E94BE201092AA071092A9071093A8
:10534000AE070093AD07073523E8120709F499C1AA
:1053500008F0A5C0033540E2140709F4F3C108F0D2
:1053600047C0013185E1180709F42CC1B0F40939AF
:10537000110509F49EC138F40130110509F04DC240
:1053800080E091E1B0C10435E1E01E0709F40FC1EE
:105390000530154109F4A5C140C2063225E11207C6
:1053A00009F428C180F40032154109F036C283E1C6
:1053B00094E09093AC078093AB0776E0E72EF12C56
:1053C0000BE813E030C2013855E1150709F4CFC1ED
:1053D0000230164109F021C283E094E09093AC07BB
:1053E0008093AB0716E0E12EF12C04EE12E01BC215
:1053F000043198E6190709F421C108F50031F3E5F5
:105400001F0709F403C178F40533154409F005C2F8
:1054100080E090E19093AC078093AB076CE970E07B
:1054200088E397E0E4C1083044E5140709F459C162
:105430000930184609F0F1C182E091E162C10339F7
:1054400087E7180709F4D6C1A8F40338E7E71E0771
:1054500009F40CC10938174709F0DFC183E194E072
:105460009093AC078093AB0731E4E32EF12C09E372
:1054700013E0D9C1063927E7120709F493C10133B4
:10548000104809F0CAC183E194E19093AC0780937E
:10549000AB0722E1E22EF12C07E213E0C4C108338E
:1054A00043E9140709F454C170F5073283E918077A
:1054B00009F430C1B8F40230E3E91E0709F445C12C
:1054C00038F40039104909F0A8C183E194E1DBC048
:1054D000003233E9130709F404C10532134909F412
:1054E0000BC19BC1093253E9150709F434C108F413
:1054F00003C1013393E9190709F401C105331349C5
:1055000009F4FDC08AC10938F4E91F07C8F5073856
:1055100024E9120708F049C1013834E9130709F4F6
:1055200029C190F4005413490230110508F075C1E7
:1055300083E194E09093AC078093AB07A5E6EA2E55
:10554000F12C0CE712E06FC10638144909F065C16F
:1055500083E094E09093AC078093AB0780EE91E0FA
:10556000909396078093950780E491E09093940739
:1055700080939307EBE3EE2EF12C0CEF11E053C177
:10558000053085EB180709F428C138F401311C4AAD
:1055900009F043C183E194E1E0C00930F5EB1F0756
:1055A00009F428C10530154C09F417C136C182E051
:1055B00090E19093AC078093AB076CE970E084EDC9
:1055C00097E015C183E090E09093AC078093AB0720
:1055D00080EE91E0909396078093950780E491E0A8
:1055E0009093940780939307E3E0EE2EF12C01E96A
:1055F00013E019C183E194E09093AC078093AB076B
:105600006CE0E62EF12C0FE713E00DC183E19EE084
:105610009093AC078093AB0780EE91E09093960750
:105620008093950780E491E090939407809393078B
:1056300052E0E52EF12C0DE713E0F5C083E094E095
:105640009093AC078093AB0780EE91E09093960720
:105650008093950780E491E090939407809393075B
:1056600043E0E42EF12C0AE713E0DDC082E091E193
:105670009093AC078093AB0760E970E088EA96E00E
:10568000B6C083E094E19093AC078093AB0780EEC3
:1056900091E0909396078093950780E491E0909332
:1056A00094078093930792E0E92EF12C05E213E032
:1056B000BAC083E194E19093AC078093AB0780EE8E
:1056C00091E0909396078093950780E491E0909302
:1056D0009407809393078DE1E82EF12C08E013E006
:1056E000A2C084E090E19093AC078093AB0768ED93
:1056F00070E080ED95E07BC080E091E102C080E049
:1057000090E19093AC078093AB076CEC70E084E081
:1057100095E06DC083E094E09093AC078093AB0775
:1057200080E991E0909396078093950780EF90E051
:1057300090939407809393070EE1E02EF12C0AEEEC
:1057400012E071C087E194E108C083E094E005C0F5
:1057500083E194E002C083E096E19093AC078093EC
:10576000AB07B3E0EB2EF12C01EE12E05CC083E15D
:1057700094E002C087E094E09093AC078093AB077D
:1057800080EE91E0909396078093950780E491E0F6
:105790009093940780939307F5E4EF2EF12C07E3A1
:1057A00012E041C083E094E002C083E194E0909372
:1057B000AC078093AB0780EE91E0909396078093BF
:1057C000950780E491E090939407809393077BE2A0
:1057D000E72EF12C01ED11E026C088E090E19093D6
:1057E000AC078093AB0760EB70E084E594E00E9427
:1057F000141817C080E090E19093AC078093AB073A
:1058000060EC70E084E993E00E94141880E991E074
:10581000909396078093950704C010929407109276
:10582000930700E010E02091AC07822F82958F70E3
:1058300090E0817099279093B0078093AF0701158E
:10584000110581F069E070E088EC91E00E94381861
:10585000B701C8010E94381866E070E082EC91E060
:105860000E94381860E08FE897E00E943A1B60E0E1
:105870008FE897E00E9484188091AD079091AE0761
:105880008838944909F062C21092FD0220EE3FEF81
:1058900040E050E060E070E08FE897E00E94FF1A7F
:1058A000E090B907F090BA078091FE02811107C01D
:1058B0008091AB0780FF03C06EE2E62EF12C809151
:1058C000AD079091AE078230964119F45EE2E52E65
:1058D000F12C00E010E020E030E040E050E060E03B
:1058E00070E08FE897E00E94CA188091AB0780FDB6
:1058F00010C060E070E08091B5079091B6070E94FB
:105900006B2360E070E08091B7079091B8070E9428
:105910006B238B988A98809102018778809302018B
:10592000A5988EB1877C8EB9409102018F2D992761
:105930009C012370332765E0220F331F6A95E1F73E
:10594000242B209302014EB19C012C703327220F8F
:10595000331F220F331F242B2EB944B39C01207117
:105960003327220F331F242B24BB4EB19C012072FE
:1059700033273595279535952795242B2EB92091DA
:105980000201807C9927A3E095958795AA95E1F778
:10599000822B809302018998899A809102018778ED
:1059A00080930201A5988EB1877C8EB92091020167
:1059B000C70183709927B5E0880F991FBA95E1F761
:1059C000822B809302012EB1C7018C709927880F1A
:1059D000991F880F991F822B8EB924B3C70180713C
:1059E0009927880F991F822B84BB2EB1C701807223
:1059F00099279595879595958795822B8EB92091B6
:105A00000201C701807C992743E0959587954A95C7
:105A1000E1F7822B809302018998899A8A9A809172
:105A200001018778809301019D988DB1877C8DB9A4
:105A3000E091AB07F091AC078091AD079091AE0774
:105A4000E6FD1EC0889A8898889888982091000161
:105A50002CB122B32CB120910001889AE0FD10C036
:105A6000893852E1950761F0889A889888988898D3
:105A7000209100012CB122B32CB120910001889A11
:105A80008131954161F4889A8898889888988091A6
:105A900000018CB182B38CB180910001889ADF0142
:105AA000A470BB27889A889888988898E4FF8CC04F
:105AB000409100018CB192B35CB13091000140760D
:105AC000242F229526952770807386958695482FDA
:105AD000422B9072892F90E095958795842B452FC6
