:100000000C94E30A0C94140B0C94140B0C94140B26
:100010000C94140B0C94140B0C94140B0C94140BE4
:100020000C94140B0C94140B0C94140B0C94140BD4
:100030000C94140B0C94140B0C94140B0C94140BC4
:100040000C94140B0C94140B0C94140B0C94140BB4
:100050000C94140B0C94140B0C94140B0C94DF22C2
:100060000C94140B0C94181D0C94401C0C94140B41
:100070000C94140B0C94140B0C94140B0C94140B84
:100080000C94140B0C94140B0C94140B0C94140B74
:100090000C94E51C0C94011C0C94140B0C94140B84
:1000A0000C94140B0C94140B0C94140B0C94140B54
:1000B0000C94140B0C94140B0C94140B0C94140B44
:1000C0000C94140B0C94140B0C94140B0C94B21C85
:1000D0000C94C21B0C94140B0C947F1C0C94831B6B
:1000E0000C94140B0E1E111E041E081E481E151E15
:1000F000191E1F1E231E271E2D1E311E351E481EB3
:100100003B1E3F1E431E0C94E9180C94290B0C94C3
:10011000CD180C94FA190C94041E0C943F1E0C94E8
:10012000160B0C94170F0C94DD180C94311E0C94C4
:10013000271E0C94481E0C941F1E0C94CB1E0C946E
:10014000081E0C94191E0C94601A0C94112E0C9419
:10015000151E0C94AD1A0C94AD190C940E1E0C9433
:100160009D0D0C94431E0C942D1E0C94CC180C94D5
:100170003B1E0C942C170C941A1A0C94EF190C9427
:10018000FC180C94351E0C94231E0C94111E0C9418
:100190003E200C94F5180C94361A0C94C5210C943E
:1001A0008B17000000000500010000030D0602F49B
:1001B000050007050901F40A000A0C0A00F51900F8
:1001C000090F0A01F32A00100D1000F444000C0D71
:1001D0000D01F4580003050501F45A00061106014B
:1001E000F4670006110600F4740005060701F478B0
:1001F0000007080B02F97F0003050401FF810005D9
:10020000020600FB830003020401FF8400050D05C4
:1002100000F48D00090D0A01F49C00050D0A02F49A
:10022000A500090D0A01F4B400080D0A01F4C1008B
:10023000080D0A02F4CE00090D0A01F4DD00090DD3
:100240000A01F4EC00090D0A00F4FB000A0D0A0093
:10025000F40C01090D0A01F41B0103090401F81F44
:1002600001030C0401F8240109090B01F82F01090D
:10027000060B01FA360109090B01F84101090D0BC2
:1002800001F45001100F1200F46E010C0D0D00F47A
:1002900082010B0D0D01F494010C0D0D01F4A80168
:1002A0000C0D0D01F4BC01090D0C01F4CB01090D7D
:1002B0000B01F4DA010B0D0E01F4EC010B0D0D0135
:1002C000F4FE01030D0601F40302080D0A01F41007
:1002D000020C0D0D01F42402080D0B01F431020E85
:1002E0000D1001F448020B0D0E01F45A020D0D0E13
:1002F00001F470020B0D0C01F482020D0E0E01F4DC
:1003000099020C0D0D01F4AD020B0D0C01F4BF02AE
:10031000090D0C02F4CE020B0D0D01F4E0020C0DE0
:100320000C00F4F402110D1100F410030C0D0C007C
:10033000F424030B0D0C01F43603090D0B01F445F5
:100340000304110601F44E03050D0500F4570304E0
:10035000110600F4600308080B01F468030A010A9F
:1003600000046A0303020500F46B030A0A0A01F79A
:1003700078030A0D0B01F48903090A0A01F79503B2
:10038000090D0B01F4A403090A0A01F7B003050DD6
:100390000601F4B903090E0B01F7C903090D0B019E
:1003A000F4D803030D0501F4DD0304110500F4E6A0
:1003B00003090D0A01F4F503030D0501F4FA030E18
:1003C0000A1001F70C04090A0B01F718040A0A0BBA
:1003D00001F725040A0E0B01F73704090E0B01F78C
:1003E0004704060A0701F74F04090A0A01F75B04EC
:1003F000050C0601F56304090A0B01F76F040A0AEC
:100400000A00F77C040E0A0E00F78E040A0A0A009E
:10041000F79B040A0E0A00F7AD04080A0901F7B7B2
:100420000404110701F4C00401110502F4C304041B
:10043000110702F4CC0408020900FCFFFFFE487E0D
:10044000EFDFBF7440198667FDFF330CC333FEFF37
:1004500099866190101F1FDEFF3F83C0FC1F09FCBF
:10046000FEF7F1E04038107C30C620C640C6407C24
:1004700080399C013E0363026304630C3E081C0E3A
:1004800001F83B83B83F01E03E6776E3EE1CF3C71B
:10049000FE3F70FFF418631C738E38E38E1870C330
:1004A000060861830E3871C71C71C638E3184021F5
:1004B0003E45283870E7FFE70E1CFC9CFFC0FC0897
:1004C000C4231084621188003E3F9DDC7E3F1F8F55
:1004D000C7E3F1DDCFE3E008FFF39CE739CE73809B
:1004E0003E3FB8FC70381C1C1C1C1C1C0FF7F83C51
:1004F0007FE7E7070C0E0707E7E77E3C0E1E1E2E80
:100500002E4E4E8EFFFF0E0E0E7F3F90180DE7FB16
:100510009E070381F1FFE7C03E3F9CFC0EE7FBDF37
:10052000C7E3F1DDEFE3E0FFFFC0E0E060703038EB
:100530001C0C0E0703803F1FEE3F87E3CFC7FBCFA6
:10054000E1F87F3DFE3F003E3FBDDC7E3F1FDEFF0A
:100550003B81F9CFE3C0FC0007E0FC0007E5E000C9
:1005600083C7DF0C0780F81F0180FFFFC0000FFF6B
:10057000FC00703F03E0387DF1E080003E3FB8FCB6
:1005800070381C1C1C1C0E000381C003F00FFC1EE5
:100590000E380270E96319C219C611C633C6326338
:1005A000FE73DC3C001FF807F00700F00F80F81D19
:1005B000819C19C38C3FE7FE706607E070FF9FFBCC
:1005C00083F07E0FFF3FF706E0FC1F83FFEFF81F6D
:1005D00083FE78E707E00E00E00E00E0070778F3FF
:1005E000FE1F80FF8FFCE0EE0EE07E07E07E07E05E
:1005F0007E0EE0EFFCFF80FFFFF81C0E07FBFDC046
:10060000E070381FFFF8FFFFF81C0E07FBFDC0E08D
:1006100070381C0E000F87F9E3B83E01C038FF1F89
:10062000E06E0DE39FD0F2E0FC1F83F07E0FFFFF32
:10063000FF07E0FC1F83F07E0EFFFFFFFFFE0707B2
:10064000070707070707E7E7E77E3CE0EE1CE38EB6
:1006500070EE0FC0FE0F70E70E38E1CE0EE0E0E066
:10066000E0E0E0E0E0E0E0E0E0E0FFFFF87FE1FF75
:1006700087FE1FEC7FB37ECDFB37ECDF9E7E79F9E2
:10068000E7E79CE0FE1FC3FC7FCFD9FBBF37E7FC49
:100690007F87F0FE0E0F81FF1E3CE0EE03F01F800F
:1006A000FC07E03B839E3C7FC0F800FF9FFB87F088
:1006B0007E0FC3FFF7FCE01C0380700E000F81FF6C
:1006C0001E3CE0EE03F01F80FC07E1BB8F9E3C7FE9
:1006D000E0FB8008FF8FFCE0EE0EE0EE0EFFCFFCAB
:1006E000E0EE0EE0EE0EE0F03F0FFBC7F07E01FC07
:1006F0001FF03F00FC1DC7BFE1F8FFFFC70381C02B
:10070000E070381C0E070381C0E0FC1F83F07E0FF1
:10071000C1F83F07E0FC1FC7BFE1F060670E70E360
:100720000C30C39C1981981F80F00F00F006006107
:10073000C3B8E19C70CE3CE336719B30ED98367CBB
:100740001B3C0F1E078F01C380E18070E78E39C10B
:10075000F81F80F00700F01F819C39C70E70E0E0A1
:10076000FC39C718C3B83607C0700E01C03807007F
:10077000E0FFFFC0E0E0F07070707838381FFFF8DD
:10078000FFEEEEEEEEEEEEEFF08610861084308493
:100790003080FF7777777777777FF0181C3C3E368D
:1007A0006663C3FFC0CC3F1FEE380E3F9EEE3B9EFC
:1007B000FF9EE0E0380E03BCFFBCEE1F87E1F87F30
:1007C0003BFEEF001F3FDC7C0E070380E37F8F00C2
:1007D0000381C0E777FBBF8FC7E3F1FDEFF3B83EBE
:1007E0003F9CDC3FFFFF81C37F8F003BDDFFB9CE25
:1007F000739CE7003BBFDDFC7E3F1F8FEF7F9DC0FA
:10080000FC77F1F0E070381DEFFF9F8FC7E3F1F840
:10081000FC7E38FC7FFFFFFE770777777777777F5F
:10082000E0E070381C7E7773F1F8FE7739DC6E38C3
:10083000FFFFFFFFFEEF7BFFFE39F8E7E39F8E7EB1
:1008400039F8E7E39F8E70EF7FF8FC7E3F1F8FC77C
:10085000E3F1C01E1FE73B87E1F87E1DCE7F878056
:10086000EF3FEF3B87E1F87E1FCEFFBBCE0380E07A
:1008700038003BBFFDFC7E3F1F8FEF7F9DC0E070C7
:10088000381CEFFF38E38E38E3803E3FB8FC0FC3DF
:10089000FC3FC7FF1F0073BFF739CE739E70E3F1B3
:1008A000F8FC7E3F1F8FC7FFBDC0E1986739CC338E
:1008B0000DC3E0781E0700E31D9E667999E677B8C0
:1008C000D2C3CF0F3C3CF07380739CE3F0781E07DB
:1008D00081E0FC739CE0E1D86739CE330EC3E07849
:1008E0001E0300C070380E00FEFE0E1C383870E08B
:1008F000FFFF3766666EE666666730FFFF80CE668E
:1009000066677666666EC0718E11007F962900015B
:10091000007F9628003A0155C0021010C10141C560
:100920000400228040360168B00100B102B011B469
:100930000102B60302023BB701C63A0155F704A90A
:10094000512C82C0020D0DC1024300C20100C5043A
:1009500000480048B40100B60302023BE00F0F213B
:100960001C0B0E08499838091103141000E10F0FF1
:100970002F2B0C0E06477637071104231E00B001FB
:1009800000B30402000000B40100D003074218D1F4
:1009900003000710D2020102D3020102D4020102B5
:1009A000C005123B000211C103101088C50103C627
:1009B0000102C80C003236450616377577540C0014
:1009C000CC0100F603010100CF03008130ED046487
:1009D000031281E803851078CB05392C003402F727
:1009E0000120EA020000B00100B102001BB40100C6
:1009F000C00121C10111C5023F3CC701B536014804
:100A0000F20100260101E00F0F26240B0E0954A865
:100A1000460C17090F0700E10F00191B0410072AE5
:100A2000473903060630380F360100B80101C0010E
:100A30000EB00100C10410100202C0060035000013
:100A40000102C50104D2020104CA0100EA0180B911
:100A500003FF83577F967F96B60125C0065050014D
:100A60003C1E08B4070240002A2A0D787F01F20BD1
:100A70001616030808080810041616FD031102359F
:100A8000B2050C0C003333B70135BB012BC0010498
:100A9000C20201FFC30111C40120C6010FD002A48C
:100AA000A1E00ED000050E150D37434709151216AB
:100AB00019E10ED000050D0C062D44400E1C181631
:100AC000193A01557F0AB00103E2013FC00122E259
:100AD0000100B00100C0010AB001000000000000E8
:100AE0000000000000000000000000FFFF0F0000F9
:100AF000040062080008080003000C01030B5A02FE
:100B00000306090303171004030023050300170657
:100B10000309630703090C08030C100903322210B0
:100B20000016001100010112000000130001000076
:100B3000013003010137020301000D800200610250
:100B400001B0C1FFFF3200010000010200000103FB
:100B5000003010090001000C000000900000800F20
:100B6000000000100200001102EF0012020000134A
:100B7000028F01000500000105000002055F000171
:100B800004010004040000FFFF320007000001FF21
:100B9000FF3200000200000102000000000000001F
:100BA0000000000000000000000100A4000100FFA0
:100BB000FF0A006000002708000808300014023116
:100BC000001537320004063300160E3400112235AA
:100BD0000000153600078537000714380003143964
:100BE00000200090001500100010041100370229A9
:100BF0000046002A00460007000000120089011389
:100C0000000011FFFF96001200B90101000001026F
:100C100000000203003010090001000A0000000D6E
:100C20000000000E003000610001006A000000803A
:100C30000000008100000082005F0092000001932C
:100C4000000107FFFF500007000001E500F07801F8
:100C50000000010200000203003010040000000543
:100C600000000008000702090000000A0000000C54
:100C70000000000D0000000F000000100000001137
:100C8000000700120000001300000007000100FF31
:100C9000FFC8001000901611002702FFFF3200125B
:100CA000000D00FFFF32001300001229000A002B84
:100CB000000D00FFFF320020000000210000003086
:100CC0000000003100040432000300350005043642
:100CD0000008083700070438000303390007073C01
:100CE0000004053D00080860000027610001006A5B
:100CF00000000080000000810000008200000083EE
:100D000000000084000000850000009000100092A8
:100D100000000007003301E5000080000001000131
:100D2000000001020000070300301004000000086A
:100D3000000202090000000A0000000C0000000D83
:100D40000000000F0000001000000011000700125A
:100D500000000013000000FFFF32001000B0171168
:100D6000000700FFFF0A0012003A01FFFF0A00130C
:100D700000001A29000C00FFFF0A003000000031BB
:100D8000000505320004003500060036000707376D
:100D900000050138000200390007073C0004073D48
:100DA000000708600000A7610001006A0000002140
:100DB0000000002000000080000000810000008290
:100DC0000000008300000084000000850000009007
:100DD000001000920000009300030095001001979E
:100DE0000000009800000007007301FFFF3200FFC1
:100DF000000100F3000800000001000100000102F2
:100E00000000070300301008000203090000001072
:100E1000000000110007001200000013000000FF96
:100E2000FF32001000B014FFFF0A0011000700FF9E
:100E3000FF0A0012008E001300000C29001500FFAD
:100E4000FF0A0030000000310007013200000035C9
:100E500000030236000204370000003800070239A0
:100E60000000003C0003023D000304600000A76195
:100E70000001009000290007003301FFFF32001538
:100E80000030009A001000110020001000283412D9
:100E900000020013003810FFFF280012001200FFAC
:100EA000FF28001000203413004530FFFF460030BB
:100EB0000000003100020432000703330004033451
:100EC0000004003500010436000707370005033829
:100ED00000100639001006010000010200000303A3
:100EE000003010080008080A0008006000002761B0
:100EF00000010090003E019200000193000001A05B
:100F0000000030A3001000070001000700210007C7
:100F1000002300070033000700330111001A0012FC
:100F200000213113006C001400494210000008FF3A
:100F3000FF0A0011001A01FFFF0A0011001A03FF47
:100F4000FF0A0011001A07FFFF0A0011001A0FFF25
:100F5000FF0A0011003A0FFFFF1E000100280102E6
:100F60000000010300301007001210080003030BFB
:100F70000000110C0000000F0001181500200050A7
:100F80000001015100030652000804530000005400
:100F900000050655000604560003035700030358D6
:100FA0000010005900001007001200FFFF28000782
:100FB000001300070017003B04A201207E1600006A
:100FC0000000003E5B4F5B3E3E6B4F6B3E1C3E7C29
:100FD0003E1C183C7E3C181C577D571C1C5E7F5ED7
:100FE0001C00183C1800FFE7C3E7FF001824180096
:100FF000FFE7DBE7FF30483A060E2629792926402D
:101000007F050507407F05253F5A3CE73C5A7F3E58
:101010001C1C08081C1C3E7F14227F22145F5F00EA
:101020005F5F06097F017F006689956A6060606086
:101030006094A2FFA29408047E040810207E201071
:1010400008082A1C08081C2A08081E101010100C7A
:101050001E0C1E0C30383E3830060E3E0E060000C8
:1010600000000000005F00000007000700147F146C
:101070007F14242A7F2A12231308646236495620DB
:10108000500008070300001C2241000041221C0000
:101090002A1C7F1C2A08083E0808008070300008BF
:1010A00008080808000060600020100804023E5193
:1010B00049453E00427F4000724949494621414925
:1010C0004D331814127F1027454545393C4A49498C
:1010D0003141211109073649494936464949291EF6
:1010E00000001400000040340000000814224114E5
:1010F00014141414004122140802015909063E4137
:101100005D594E7C1211127C7F494949363E41415E
:1011100041227F4141413E7F494949417F090909B7
:10112000013E414151737F0808087F00417F410023
:101130002040413F017F081422417F404040407FD2
:10114000021C027F7F0408107F3E4141413E7F091F
:101150000909063E4151215E7F0919294626494960
:10116000493203017F01033F4040403F1F204020A0
:101170001F3F4038403F631408146303047804039E
:101180006159494D43007F4141410204081020004C
:101190004141417F040201020440404040400003BD
:1011A00007080020545478407F2844443838444489
:1011B0004428384444287F385454541800087E0981
:1011C0000218A4A49C787F0804047800447D4000A1
:1011D0002040403D007F1028440000417F40007CBB
:1011E000047804787C080404783844444438FC18B3
:1011F00024241818242418FC7C0804040848545497
:10120000542404043F44243C4040207C1C204020C3
:101210001C3C4030403C44281028444C9090907C2A
:101220004464544C4400083641000000770000003C
:101230004136080002010204023C2623263C1EA17E
:10124000A161123A4040207A3854545559215555DD
:10125000794122545478422155547840205455798C
:10126000400C1E527212395555555939545454591F
:1012700039555454580000457C410002457D4200D8
:1012800001457C407D1211127DF0282528F07C5408
:101290005545002054547C547C0A097F4932494901
:1012A00049323A4444443A324A4848303A4141216A
:1012B0007A3A42402078009DA0A07D3D4242423DC6
:1012C0003D4040403D3C24FF2424487E4943662B5A
:1012D0002FFC2F2BFF0929F620C0887E09032054FC
:1012E0005479410000447D413048484A32384040FA
:1012F000227A007A0A0A727D0D19317D2629292F5A
:1013000028262929292630484D4020380808080871
:1013100008080808382F10C8ACBA2F102834FA0073
:10132000007B000008142A142222142A14085500F5
:10133000550055AA55AA55AAFF55FF55FF000000B4
:10134000FF00101010FF00141414FF001010FF0015
:10135000FF1010F010F0141414FC001414F700FF28
:101360000000FF00FF1414F404FC141417101F10E5
:10137000101F101F1414141F00101010F000000094
:10138000001F101010101F10101010F0100000009F
:10139000FF101010101010101010FF10000000FFB0
:1013A000140000FF00FF00001F10170000FC04F4F1
:1013B00014141710171414F404F40000FF00F714A9
:1013C000141414141414F700F71414141714101030
:1013D0001F101F141414F4141010F010F000001F4C
:1013E000101F0000001F14000000FC140000F0108B
:1013F000F01010FF10FF141414FF141010101F0031
:10140000000000F010FFFFFFFFFFF0F0F0F0F0FF32
:10141000FFFF0000000000FFFF0F0F0F0F0F384409
:10142000443844FC4A4A4A347E02020606027E02DE
:101430007E0263554941633844443C04407E201E8B
:101440002006027E020299A5E7A5991C2A492A1CBA
:101450004C7201724C304A4D4D303048784830BCA7
:10146000625A463D3E494949007E0101017E2A2AD1
:101470002A2A2A44445F444440514A444040444A52
:1014800051400000FF0103E080FF000008086B6B83
:10149000083612362436060F090F06000018180009
:1014A00000001010003040FF0101001F01011E006C
:1014B000191D1712003C3C3C3C00000000000102DA
:1014C0001020200808102040102040800201020156
:1014D000080402010102040810204080804020100E
:1014E0000804020180040201804020100804020167
:1014F00008040201010204081020408001020408CF
:101500001020408000002200250028002B002E0023
:101510003100340002010000050108010B0105053E
:101520000505070508080808020202020A0A080859
:101530000404040401010101010101010303030387
:1015400003030303040707070C0C0C0C0C0C0C0C16
:101550000202020206060606060606060B0B0B0B27
:101560000B0B0B0B00002100240027002A002D008C
:101570003000330001010000040107010A010000EE
:10158000090A02080B0C0D07060304010000000005
:10159000000000000000000000000000000000004B
:1015A0000000000000000000000011100F0000000B
:1015B000000000000000000000000000000000002B
:1015C00000000000112E11241FBECFEFD1E2DEBFBC
:1015D000CDBF00E00CBF13E0A0E0B2E0E2E3F4E630
:1015E00000E00BBF02C007900D92A834B107D9F7F5
:1015F00026E0A8E4B3E001C01D92AE35B207E1F7E2
:101600001AE0C3EEDAE000E006C021970109802F5E
:10161000FE010E940F32C23ED10780E00807A9F701
:101620000E9429230C94792F0C940000EF92FF92D2
:101630000F931F93DC01ED91FC91048CF58DE02D4F
:10164000780101E010E019951F910F91FF90EF9044
:101650000895EF92FF920F931F93DC01ED91FC919F
:10166000048CF58DE02D7801890121E030E0199599
:101670001F910F91FF90EF9008950895FC01637002
:10168000658B8481958126813781613039F06330A3
:1016900029F09187808733872287089531872087B3
:1016A0009387828708958B988A98209102012778E2
:1016B00020930201A5982EB1277C2EB970910201CA
:1016C000292F3327F901E370FF27A5E0EE0FFF1F55
:1016D000AA95E1F7E72BE09302017EB1F901EC70E6
:1016E000FF27EE0FFF1FEE0FFF1FE72BEEB974B3BE
:1016F000F901E071FF27EE0FFF1FE72BE4BB7EB17E
:10170000F901E072FF27F595E795F595E795E72B49
:10171000EEB970910201207C3327E3E035952795DF
:10172000EA95E1F7272B209302018998899A209165
:101730000201277820930201A5982EB1277C2EB9AB
:10174000709102019C0123703327F5E0220F331FB3
:10175000FA95E1F7272B209302017EB19C012C70B2
:101760003327220F331F220F331F272B2EB974B3B9
:101770009C0120713327220F331F272B24BB7EB1FE
:101780009C01207233273595279535952795272B72
:101790002EB9709102019C01207C3327F3E035952E
:1017A0002795FA95E1F7272B209302018998899ACA
:1017B0008A9AFA01A0915A067FEF760F16160CF05E
:1017C000C7C0219130910201377830930201A5986A
:1017D0003EB1377C3EB960910201322F3370B0E2E6
:1017E0003B9FA0011124462B409302016EB1322F82
:1017F0003C70B4E03B9FA0011124462B4EB944B38A
:10180000322F3071330F342B34BB6EB1322F307224
:10181000432F50E05595479555954795462B4EB922
:1018200030910201207C269526952695232B209326
:1018300002018998899A711102C0672FBDCFAA232E
:10184000E1F301968A982091020127782093020102
:10185000A5982EB1277C2EB960910201292F33273C
:10186000A90143705527B5E0440F551FBA95E1F71C
:10187000462B409302016EB1A9014C705527440FCD
:10188000551F440F551F462B4EB964B3A901407133
:101890005527440F551F462B44BB6EB1A90140721A
:1018A00055275595479555954795462B4EB94091E7
:1018B0000201207C332753E0359527955A95E1F7AF
:1018C000242B209302018998899A2091020127787C
:1018D00020930201A5982EB1277C2EB940910201D8
:1018E0009C012370332765E0220F331F6A95E1F7CF
:1018F000242B209302014EB19C012C703327220F20
:10190000331F220F331F242B2EB944B39C012071A7
:101910003327220F331F242B24BB4EB19C0120728E
:1019200033273595279535952795242B2EB940914A
:1019300002019C01207C3327B3E035952795BA95A9
:10194000E1F7242B209302018998899A8A9A75CF0E
:101950008B9A08958B988A98E2E0F1E020812778AD
:101960002083A5982EB1277C2EB9A081292F33275B
:10197000A90143705527B5E0440F551FBA95E1F70B
:101980004A2B4083AEB1A9014C705527440F551F17
:10199000440F551F4A2B4EB9A4B3A90140715527D6
:1019A000440F551F4A2B44BBAEB1A90140725527C5
:1019B00055954795559547954A2B4EB94081207CC2
:1019C000332753E0359527955A95E1F7242B20834B
:1019D0008998899A208127782083A5982EB1277C21
:1019E0002EB940819C0123703327A5E0220F331FBD
:1019F000AA95E1F7242B20834EB19C012C7033274C
:101A0000220F331F220F331F242B2EB944B39C0106
:101A100020713327220F331F242B24BB4EB19C018E
:101A2000207233273595279535952795242B2EB988
:101A30002081807C9927B3E095958795BA95E1F749
:101A4000822B80838998899A8A9A8081877880837B
:101A5000A5988EB1877C8EB94081872F99279C01EC
:101A60002370332755E0220F331F5A95E1F7242BBB
:101A700020834EB19C012C703327220F331F220F7D
:101A8000331F242B2EB944B39C0120713327220F1E
:101A9000331F242B24BB4EB19C0120723327359574
:101AA000279535952795242B2EB92081807C992761
:101AB000A3E095958795AA95E1F7822B8083899875
:101AC000899A808187788083A5988EB1877C8EB92A
:101AD0002081CB0183709927B5E0880F991FBA95B3
:101AE000E1F7822B80832EB1CB018C709927880F70
:101AF000991F880F991F822B8EB924B3CB01807157
:101B00009927880F991F822B84BB2EB1CB0180723D
:101B100099279595879595958795822B8EB9808184
:101B2000607C7727A3E075956795AA95E1F7682B08
:101B300060838998899A8B9A0895EF92FF920F9308
:101B40001F93CF93DF937C01E90177FD69C157FDB6
:101B500067C1FC0180859185681779070CF060C129
:101B600082859385481759070CF05AC18091590610
:101B7000882341F0CE018F719927880F991FC17C6E
:101B8000C82BD92B8A019B01C7010E94901F80910D
:101B90005A06882309F438C18B988A98F70182A5E0
:101BA00093A520910201277820930201A5982EB1D8
:101BB000277C2EB960910201292F3327A901437098
:101BC000552775E0440F551F7A95E1F7462B409352
:101BD00002016EB1A9014C705527440F551F440FE7
:101BE000551F462B4EB964B3A90140715527440FC8
:101BF000551F462B44BB6EB1A90140725527559520
:101C0000479555954795462B4EB940910201207C4A
:101C10003327B3E035952795BA95E1F7242B209328
:101C200002018998899A2091020127782093020164
:101C3000A5982EB1277C2EB9409102019C012370FA
:101C4000332715E0220F331F1A95E1F7242B209339
:101C500002014EB19C012C703327220F331F220F3B
:101C6000331F242B2EB944B39C0120713327220F3C
:101C7000331F242B24BB4EB19C0120723327359592
:101C8000279535952795242B2EB920910201807C2C
:101C9000992773E0959587957A95E1F7822B809344
:101CA00002018998899A8A9A2C2F220F220F220FDB
:101CB00080910201877880930201A5988EB1877C7C
:101CC0008EB980910201809302013EB1CE01882736
:101CD000987F892F9927AC014C705527440F551FC9
:101CE000440F551F432B4EB934B3AC0140715527F7
:101CF000440F551F432B44BB3EB1AC0140725527E6
:101D00005595479555954795432B4EB9309102010E
:101D1000807C992713E0959587951A95E1F7832B99
:101D2000809302018998899A809102018778809333
:101D30000201A5988EB1877C8EB9809102018093B3
:101D400002013EB1C07ED77003E0D695C7950A95D3
:101D5000E1F7CE018C709927880F991F880F991F82
:101D6000832B8EB934B3CE0180719927880F991FC8
:101D7000832B84BB3EB1CE018072992795958795C0
:101D800095958795832B8EB980910201C07CDD27C4
:101D900073E0D595C7957A95E1F7C82BC0930201FA
:101DA0008998899A80910201877880930201A59889
:101DB0008EB1877C8EB980910201809302019EB121
:101DC000822F8C70880F880F892B8EB994B3822F45
:101DD0008071880F892B84BB3EB1922F9072892F1E
:101DE00090E09595879595958795832B8EB98091F1
:101DF0000201207C269526952695282B209302010A
:101E00008998899A8B9A0CC0BE01F70182A593A587
:101E1000DF91CF911F910F91FF90EF900C94AA0C3E
:101E2000DF91CF911F910F91FF90EF900895DF9276
:101E3000EF92FF920F931F93CF93DF93CDB7DEB74F
:101E40002A970FB6F894DEBF0FBECDBF7C01862F58
:101E50008370D70155968C935597462F417060FF3C
:101E600005C016962D913C91179703C0F701248168
:101E70003581D70119963C932E931897442329F066
:101E800014962D913C91159703C0F7012681378157
:101E9000D7011B963C932E931A97823041F08330E2
:101EA00041F0813011F088E405C088E203C088E980
:101EB00001C088EF8A87F701248D358D30FF03C07C
:101EC0008A8580588A8731FF04C09A8580E48927F3
:101ED0008A8733FF04C09A8588E089278A87D701DB
:101EE0005E968D919C915F9720FFD5C010915A0608
:101EF0008431B8E69B07F9F49A85892F881F8827D3
:101F0000881F8295880F880F807C96FD02C020E094
:101F100001C020E298729A871F828260822B888794
:101F20008BE38987AE01495F5F4F63E086EB90E00A
:101F30000E94530B89C08336E9E19E0741F0813846
:101F4000F4E99F0721F0813125E1920709F52A85FF
:101F500027FF02C021602A872A8526FF02C022604F
:101F60002A87833639E1930719F48A858F730EC067
:101F7000813844E9940719F48A858F7207C081314A
:101F8000954109F061C08A858F7E806C8A875CC02C
:101F9000112309F459C062E070E0F70177A366A34A
:101FA00026E030E031A720A7E2E2F0E0D7019B96DF
:101FB000FC93EE939A979D967C936E939C9764E026
:101FC00070E09F967C936E939E97D1963C932E9350
:101FD000D09728E030E0D3963C932E93D297853665
:101FE000910521F58A85982F916084FD02C09A871A
:101FF00003C083ED89278A87442351F082E890E06B
:10200000F70197A386A380E890E091A780A732C24A
:1020100080E890E0D70197969C938E93969782E8FC
:1020200090E099969C938E93989724C2823592451E
:1020300001F58A85982F926084FD02C09A8719C0A5
:1020400084ED89278A8715C02AE230E0F70137A39B
:1020500026A38BE290E091A780A74CE250E053A723
:1020600042A735A724A737A726A791AB80AB93AB90
:1020700082AB1111FFC186E390E0AE01465F5F4F76
:1020800061E00E94530B8A8590E0D70193969C9360
:102090008E939297E6C02A858339B7E79B0709F4A8
:1020A00048C050F48435F1E09F0781F0803234E578
:1020B000930709F081C03DC0863243E99407C9F116
:1020C0008930A5EB9A0709F077C033C087E390E029
:1020D000F70195A784A786E390E097A786A789E3F1
:1020E00090E091AB80AB88E390E093AB82AB80E271
:1020F00090E097A386A381E290E091A780A782E277
:1021000090E093A782A7822F022E000C990B8827BC
:10211000990F881F9927982F8827990F26FD03C0AC
:1021200060E070E002C060E071E08862682B792BAB
:1021300082C040E052E0D70197965C934E93969709
:1021400041E052E099965C934E93989742E052E0BA
:102150009B965C934E939A9740E152E09D965C93D8
:102160004E939C9741E152E09F965C934E939E97CD
:1021700042E152E0D1965C934E93D09743E152E016
:10218000D3965C934E93D29727FD03C020E030E0B6
:1021900002C020E030E88632B3E99B0731F080329C
:1021A000944519F060E07AE602C060E075E3622BC6
:1021B000732B80E094E035C080E290E0D7019796E1
:1021C0009C938E93969781E290E099969C938E9340
:1021D000989782E290E09B969C938E939A9780E5E5
:1021E00090E09D969C938E939C9781E590E09F96BE
:1021F0009C938E939E9782E590E0D1969C938E93CC
:10220000D09783E590E0D3969C938E93D29727FD49
:1022100003C060E070E002C060E070E8776280E6D2
:1022200090E00E94AA0C8A8586FD03C060E070E001
:1022300002C060E071E081E090E00E94AA0C8A8513
:1022400085FD03C060E070E002C068E070E083FDDF
:1022500070616063F70173A362A383E090E00E9462
:10226000AA0CD70155968C91559780FF36C05C9685
:102270008D919C915D9792FD30C096968D919C9129
:10228000979798962D913C91999797963C932E937A
:10229000969799969C938E9398979C968D919C91E6
:1022A0009D97D0962D913C91D1979D963C932E93DE
:1022B0009C97D1969C938E93D0979E968D919C914E
:1022C0009F97D2962D913C91D3979F963C932E93B6
:1022D0009E97D3969C938E93D297F7010285138590
:1022E00001501109208531852150310940E050E02D
:1022F00060E070E0C7010E94901FD70116966D91B3
:102300007C9117975E968D919C915F978732B3E988
:102310009B0741F4F70125892250223018F400E28E
:1023200010E002C000E010E08732F3E99F0729F0D7
:1023300022273327201B310B04C020E230E0201B72
:10234000310BD7015C964C9140FF45C01982D02ECD
:102350000A837B836C833D832E8310915A0611116F
:1023600003C083E390E002C08EE090E0AE014F5FD7
:102370005F4F66E00E94530B1982DA82111103C08D
:1023800087E390E002C084E190E0AE014F5F5F4FD1
:1023900062E00E94530B112389F01982F701868DA8
:1023A000978D8734934819F081E090E002C088E16E
:1023B00090E0AE014F5F5F4F61E00AC0D7015C96CD
:1023C0008C9180FF5AC040E050E060E083E190E0F3
:1023D0000E94530B52C08339B7E79B0779F160F431
:1023E0008032F4E59F0751F1833827E7920781F0A7
:1023F0008435914089F510C0863243E99407F1F0A5
:102400008930A5EB9A07D1F08532924929F504C0AD
:10241000F70160A171A124C0600F711F61507109A3
:1024200081E390E00E94AA0CB80182E390E00E9450
:10243000AA0C60E070E083E390E019C0D7019096A9
:102440006D917C919197626081E094E00E94AA0C6A
:10245000B80184E094E00BC0F70160A171A1626053
:1024600081E690E00E94AA0CB8018AE690E00E9402
:10247000AA0C03C086E190E000CE2A960FB6F8942D
:10248000DEBF0FBECDBFDF91CF911F910F91FF90A7
:10249000EF90DF900895089561E0809199050C9484
:1024A000E31D80919B058823A9F080919C05909164
:1024B0009D059C012F5F3F4F30939D0520939C0508
:1024C0008230924018F40E94111FEFCF0E944C12EC
:1024D00010929B05089581E08093EA05E1E0F1E028
:1024E0008081886780839D9A8DB188638DB9809A39
:1024F000819A829A839A849A8B9A889A899A8C9ADA
:1025000062E370E080E090E00E94991E8C9864E69F
:1025100070E080E090E00E94991E8C9A64E670E082
:1025200080E090E00E94991E60E070E080EB90E017
:102530000C94AA0C0F931F93CF93DF93EC01162FEB
:102540008091EA05811102C00E946B128B988A98D3
:1025500080910201877880930201A5988EB1877CD3
:102560008EB9409102018D2F99279C01237033274A
:1025700055E0220F331F5A95E1F7242B20930201D7
:102580004EB19C012C703327220F331F220F331FB3
:10259000242B2EB944B39C0120713327220F331F03
:1025A000242B24BB4EB19C012072332735952795EF
:1025B00035952795242B2EB920910201807C9927EF
:1025C000F3E095958795FA95E1F7822B80930201C8
:1025D0008998899A80910201877880930201A59851
:1025E0008EB1877C8EB920910201CE01837099272C
:1025F000A5E0880F991FAA95E1F7822B809302012D
:102600002EB1CE018C709927880F991F880F991FC2
:10261000822B8EB924B3CE0180719927880F991F20
:10262000822B84BB2EB1CE01807299279595879518
:1026300095958795822B8EB980910201C07CDD270C
:1026400043E0D595C7954A95E1F7C82BC0930201A1
:102650008998899A8A9A80910101877880930101EB
:102660009D988DB1877C8DB961E070E080E090E04D
:102670000E94991E889A889888988898609100018D
:102680008CB1A2B34CB100910001889A889A8898C5
:1026900088988898E0910001FCB132B32CB1C091C8
:1026A0000001889A115017FFE5CF889A8B9A909174
:1026B00001019867909301019D9A9DB198639DB91E
:1026C000487050E0440F551F440F551F087198E0A3
:1026D000099F80011124402B512BA072B0E0B595C9
:1026E000A7954A2B5B2B807390E0959587959595E0
:1026F0008795482B592B607670E0B5E07595679506
:10270000BA95E1F7462B572B542F44272870220FF8
:10271000220F8C2F887198E0899FE00111249C2F53
:10272000922B3072232F30E035952795292B9F2F40
:10273000907396959695922B2E2F2076229526951E
:102740002770292BCA01822BDF91CF911F910F9106
:102750000895FF920F931F93CF93DF93EC0160E0F6
:102760000E949A128C0161E0CE010E949A12F82E0A
:1027700062E0CE010E949A1220E030E0302F222742
:102780001127002740E050E05F2D60E070E0042B4F
:10279000152B262B372B492F50E060E070E0CB0142
:1027A000BA01602B712B822B932BDF91CF911F915C
:1027B0000F91FF9008950F931F93CF93DF938C0198
:1027C00060E00E949A12EC0161E0C8010E949A1236
:1027D000AC01CE01A0E0B0E0DC019927882760E0E1
:1027E00070E08C019D01042B152B262B372BC90182
:1027F000B801DF91CF911F910F9108952F923F92D1
:102800004F925F926F927F928F929F92AF92BF9200
:10281000CF92DF92EF92FF920F931F93CF93DF93AC
:10282000CDB7DEB76B970FB6F894DEBF0FBECDBF46
:102830009B8F8A8F5B011A01D22E1F830E83370173
:10284000C982DC0158962D913C915997211531058B
:1028500009F0E6C018968D919C9119976817790731
:102860000CF0CDC11A968D919C911B974817590772
:102870000CF0C5C18C2C912CFB0126E0C29EE00D12
:10288000F11D1124FB87EA871E161F060CF0B7C145
:10289000A40183E0440F551F8A95E1F75D874C87BB
:1028A000CA01820D931D181619060CF0A8C157967F
:1028B0008C91811104C05FEA5D1508F4D394AA8D50
:1028C000BB8DED91FC9111970680F781E02DCD0134
:1028D0001995B5E0DB9EC0011124F5013596FF87FF
:1028E000EE87BB82AA8225019C012A193B09398BFC
:1028F000288BA101485F5F4F5B8B4A8BE889F98980
:10290000E40DF51DE254F04F5491588761013D826A
:102910002C82888580FF13C0AA8DBB8DED91FC9120
:10292000B981B13031F40084F185E02D2E813F81F1
:1029300016C00284F385E02DEE80FF801AC0EE8180
:10294000FF81E615F705F1F0AA8DBB8DED91FC91A5
:10295000B981B13051F40084F185E02D9301A601D5
:10296000B2018A8D9B8D19950DC00284F385E02DEF
:102970007301840194014C815D816A817B818A8D20
:102980009B8D1995E885E695E887FFEFCF1ADF0A5A
:102990002C813D81280D391D3D832C834A895B891B
:1029A000C416D50609F0B5CF5FEF451A550A8A81DE
:1029B0009B81880D991D9B838A83AE85BF854A16AE
:1029C0005B0609F09BCFEE81FF81E615F70509F460
:1029D000F4C0EA8DFB8DA081B181F981F13079F4E9
:1029E000B5016B5F7F4F1C96ED91FC911D978301A4
:1029F00028E030E0A1018A8D9B8D1995DEC06A85A3
:102A00007B85681979091A96ED91FC911B977301E2
:102A10000C851D859401A1018A8D9B8D1995CDC0D2
:102A2000F9013496E491DE1AF90132968591949178
:102A3000B7E0DB9E800D911D1124F90125913491A1
:102A40003B8B2A8BFC01259134912901FC013296A4
:102A5000C490319634913E87329614913196D49039
:102A60004981423058F0612E012E000C77088D2DDF
:102A70000D2C000C990B9987888704C0198618863D
:102A8000612C712CAA8DBB8DED91FC911197068064
:102A9000F781E02DCD011995B9818B2E912C689C81
:102AA000C001699C900D789C900D1124FC01EA0DE9
:102AB000FB1DFD87EC871A82712C612CE12F110F11
:102AC000FF0B95012E0F3F1F3B872A87AC0CB11CD3
:102AD000A5014E0F5F1F5F8B4E8BC1018D0D911DA8
:102AE000D7FC9A95998F888F9E85691608F065C0E6
:102AF000862D90E048855985480F591F489D9001C3
:102B0000499D300D589D300D1124D101A20FB31FE6
:102B1000B98BA88BEC85FD85FD83EC83AA84BB84EF
:102B2000DA80FA85DF1A288D398D280F391F3D8B01
:102B30002C8B8D2D8A0D4E895F89A416B506C1F1A7
:102B4000877041F4C2010196EA89FB89E40DF51D05
:102B500074902C0177FE21C0AA8DBB8DED91FC9164
:102B6000B981B13061F40084F185E02D2E813F817F
:102B70004C895D89B5018A8D9B8D19950EC00284A3
:102B8000F385E02DEE80FF80840194014889598906
:102B90006C817D818A8D9B8D1995770CEFEFAE1A34
:102BA000BE0A2C813D81280D391D3D832C83C1CF68
:102BB0003A813C0D3A83639497CFAA8DBB8DED91FA
:102BC000FC9111970288F389E02DCD016B960FB629
:102BD000F894DEBF0FBECDBFDF91CF911F910F9153
:102BE000FF90EF90DF90CF90BF90AF909F908F902D
:102BF0007F906F905F904F903F902F9019946B96BD
:102C00000FB6F894DEBF0FBECDBFDF91CF911F91FD
:102C10000F91FF90EF90DF90CF90BF90AF909F907B
:102C20008F907F906F905F904F903F902F9008957E
:102C3000863308F0865390917B00282F2870977F69
:102C4000922B90937B008770806480937C008091AE
:102C50007A00806480937A0080917A0086FDFCCFB0
:102C6000809178002091790090E0922B0895F8945B
:102C700098E02F9887FF02C02D9A01C02D98880FE9
:102C80002F9A9150B1F700000000000000002F982B
:102C900078940895CF92DF92EF92FF921F93CF9393
:102CA000DF93182F6A017B010E94511260E080912E
:102CB00099050E94E31D0E94BF1EEB010E94111F97
:102CC0008F3F39F4812F80640E943716C8E1D0E02D
:102CD00008C00E94BF1E6C1B7D0B6C32714070F3EC
:102CE000F1CFD701C6010C2E04C0B695A7959795D4
:102CF00087950A94D2F70E9437162897C83F8FEF1E
:102D0000D80779F7112321F0183021F487E803C0A0
:102D100085E901C08FEF0E943716C0E00E94111FA5
:102D200080939F0587FF04C0CF3F11F0CF5FF6CFA0
:102D3000DF91CF911F91FF90EF90DF90CF9008959A
:102D4000CF92DF92EF92FF920F931F93CF93DF9377
:102D5000142F052F20919B052223A1F0C0909505EB
:102D6000D0909605E0909705F0909805C616D70686
:102D7000E806F90639F420919C0530919D05232B36
:102D800009F43FC06093950570939605809397056D
:102D9000909398052091A005233039F029E0660F23
:102DA000771F881F991F2A95D1F7AB01BC0181E1DC
:102DB0000E944A16882321F083E080939A053EC042
:102DC0000E94BF1EEB010E94111F80939F058F3F41
:102DD00049F40E94BF1E6C1B7D0B6D32714098F34D
:102DE0008FE003C08E3F31F08DE080939A050E9402
:102DF0004C1224C010929D0510929C0581E0809396
:102E00009B05C12FD02F8E011E5F0E94111F899339
:102E1000C017D107D1F780919C0590919D059E5FC9
:102E200090939D0580939C0520919E05222319F087
:102E30008115924038F00E94511204C00E944C1239
:102E400080E001C081E0DF91CF911F910F91FF9051
:102E5000EF90DF90CF9008956F927F928F929F9224
:102E6000AF92BF92CF92DF92EF92FF920F931F9398
:102E7000CF93DF93EC014B015A0169013801E881DE
:102E8000F9810680F781E02D1995E881F9810684A2
:102E9000F785E02D87019601A501B401CE011995B2
:102EA000A501460D571D41505109E881F98106845D
:102EB000F785E02D9601B401CE011995E881F981DD
:102EC0000484F585E02D9301A501B401CE01199587
:102ED000C80CD91CB60161507109E881F9810484DC
:102EE000F585E02D9301A501CE011995E881F981C1
:102EF0000288F389E02DCE01DF91CF911F910F91D0
:102F0000FF90EF90DF90CF90BF90AF909F908F9009
:102F10007F906F9019948F929F92AF92BF92CF92B1
:102F2000DF92EF92FF920F931F93CF93DF934C01A9
:102F30006B015A01E901DC01ED91FC916217730705
:102F400081F40417150724F48B2D5801042F182F32
:102F50000A191B0998012F5F3F4F008CF18DE02D5E
:102F600012C04017510709F52617370724F48D2D95
:102F70006901C62FD82F9E012C193D092F5F3F4FA5
:102F8000028CF38DE02D8701A501B601C4011995CE
:102F9000DF91CF911F910F91FF90EF90DF90CF9035
:102FA000BF90AF909F908F9008950680F781E02D9D
:102FB0001995D401ED91FC910088F189E02D9E01D5
:102FC000A501B601C4011995D401ED91FC910288C7
:102FD000F389E02DC401DF91CF911F910F91FF90F4
:102FE000EF90DF90CF90BF90AF909F908F9019940B
:102FF000EF92FF920F931F93DC011A960D911C9193
:103000001B9718962D913C911997ED91FC91048C8A
:10301000F58DE02D7B0140E050E060E070E0199517
:103020001F910F91FF90EF9008954F925F926F92D2
:103030007F928F929F92AF92BF92CF92DF92EF9248
:10304000FF920F931F93CF93DF936C012B015A01D3
:1030500039014801DC01ED91FC910680F781E02DFA
:103060001995E201640C751CD601ED91FC91C61511
:10307000D7055CF40484F585E02D87019401A50152
:10308000BE01C60119952196EFCF0288F389E02D84
:10309000C601DF91CF911F910F91FF90EF90DF90CC
:1030A000CF90BF90AF909F908F907F906F905F90E8
:1030B0004F9019948F929F92AF92BF92CF92DF92CE
:1030C000EF92FF920F931F93CF93DF93EC015B017D
:1030D0004A016901E881F9810680F781E02D19959F
:1030E00095012C0D3D1D21503109E881F9810088A1
:1030F000F189E02D78018401A401B501CE01199573
:10310000E881F9810288F389E02DCE01DF91CF912A
:103110001F910F91FF90EF90DF90CF90BF90AF90F5
:103120009F908F9019948F929F92AF92BF92CF925F
:10313000DF92EF92FF920F931F93CF93DF93EC01F7
:103140005B014A0169017801E881F9810680F78114
:10315000E02D1995C80CD91C860101501109E88190
:10316000F9810088F189E02D9501A401B501CE0116
:103170001995E881F9810288F389E02DCE01DF916C
:10318000CF911F910F91FF90EF90DF90CF90BF9064
:10319000AF909F908F9019940895EF92FF920F93A4
:1031A0001F93DC01ED91FC91048CF58DE02D1995B8
:1031B0001F910F91FF90EF9008950F931F93DC01E3
:1031C000ED91FC91028CF38DE02D19951F910F91DB
:1031D00008950F931F93DC01ED91FC91008CF18D0C
:1031E000E02D19951F910F910895DC01ED91FC914F
:1031F0000480F581E02D19942F923F924F925F92B7
:103200006F927F928F929F92AF92BF92CF92DF92F6
:10321000EF92FF920F931F93CF93DF9300D000D0D4
:10322000CDB7DEB72C017E836D836A015901C801D9
:10323000FC82EB824801841A950A97FE03C09194A0
:103240008194910835012D813E81621A730A77FEBF
:1032500003C0719461947108681479045CF43A2D88
:103260002B2D5C01832F922F3D812E81DE82CD821A
:10327000C32ED22EAD81BE81AA16BB065CF43C2DB6
:103280002D2D6C01832F922F3D812E81BE82AD8228
:10329000A32EB22E85012D813E81021B130B1C0132
:1032A0002C183D0837FE03C0319421943108780171
:1032B00017FF03C03FEFE31AF30AF594E794C8162B
:1032C000D9062CF08FEF9FEF9A83898304C0A1E089
:1032D000B0E0BA83A9832D813E81A216B30624F102
:1032E000D201ED91FC910084F185E02D2B813C8190
:1032F0006814790424F44D815E81B60103C0A601EF
:103300006D817E81C2011995E218F308F7FE06C0AF
:1033100029813A81C20ED31EE00EF11E8D819E815D
:1033200001969E838D83D7CF26960FB6F894DEBF85
:103330000FBECDBFDF91CF911F910F91FF90EF9006
:10334000DF90CF90BF90AF909F908F907F906F90C5
:103350005F904F903F902F9008950F931F93CF93BE
:10336000DF93FC01A685B7858D01005C1F4FE80146
:103370008881998101968F739927AD014E5B5F4FCC
:10338000EA012881398128173907D1F3E80128811A
:103390003981A20FB31F6C93A685B785A05CBF4F80
:1033A00011969C938E93A689B7892C9181E090E029
:1033B000078C02C0880F991F0A94E2F7822B8C9326
:1033C00081E081A30488F589E02D80818064808379
:1033D00081E090E0DF91CF911F910F910895FC0162
:1033E00081A1882329F0A489B5898C9186FFFBCF20
:1033F00011A20895FC01A485B585FD01E05CFF4F95
:10340000208131813296808191812817390779F0A6
:1034100080819181A80FB91F8C91208131812F5F0C
:103420003F4F2F7333273183208390E008958FEF30
:103430009FEF0895DC011C96ED91FC911D97DF0133
:10344000A05CBF4F2D913C91119712968D919C914C
:1034500011972817390739F08D919C91E80FF91FC2
:10346000808190E008958FEF9FEF0895FC012485FF
:103470003585F901E05CFF4F808191813296208192
:103480003181821B930B8F7399270895FB01E05CB8
:10349000FF4F20813181DB01AE5BBF4F4D915C91CD
:1034A0002F5F3F4F2F7333274217530741F040815F
:1034B0005181DB01A40FB51F8C93318320830895C4
:1034C000CF92DF92EF92FF920F931F93CF93DF93F0
:1034D0006C01EB017B01E40EF51E00E010E0CE155F
:1034E000DF0561F06991D601ED91FC910190F081C9
:1034F000E02DC6011995080F191FF1CFC801DF9102
:10350000CF911F910F91FF90EF90DF90CF90089592
:103510003FB7F8948091550690915606A0915706B2
:10352000B091580626B5A89B05C02F3F19F001960B
:10353000A11DB11D3FBFBA2FA92F982F8827820F39
:10354000911DA11DB11DBC01CD0142E0660F771F89
:10355000881F991F4A95D1F70895AF92BF92CF92D5
:10356000EF92FF920F931F93CF93DF93EC01262FDF
:10357000888D998D009709F040C06A3059F41D86F6
:103580001C862C898E859F8538E0239F800D911D98
:10359000112441C06D3009F4AAC08E898823C1F07E
:1035A0003C898C859D8546E0349F800D911D1124BA
:1035B00048855985481759075CF41D861C868E85F9
:1035C0009F8548E0349F800D911D11249F878E8731
:1035D000EA88FB88088919894E855F856C857D8519
:1035E000CC88CE010E94FE132C898C859D8536E007
:1035F000239F800D911D112442C06A3079F41D86ED
:103600001C862C89FC013696E4918E859F852E9F21
:10361000800D911D11249F878E8769C06D3009F43C
:1036200066C0FC0134963491631708F460C031968B
:10363000E491E61708F45BC0FC0132966591749141
:10364000422F50E0431B510937E0349F5001359F12
:10365000B00C1124A60EB71EF501329634913196A6
:10366000E491332311F0E1110DC0F5013496E4919A
:103670002C898C859D85E29F800D911D11249D874D
:103680008C8735C0F501359644915E89552311F13B
:103690006C89E32FF0E0E40FF11D47FDFA956E9F72
:1036A000D0016F9FB00D11244C855D854A0F5B1FC3
:1036B000E885F985E417F5076CF41D861C86FC0186
:1036C0003696E4918E859F856E9F800D911D112405
:1036D0009F878E87EA88FB88088919894E855F85D0
:1036E0006C857D85CC88CE010E94FE13BECF81E023
:1036F00090E0DF91CF911F910F91FF90EF90CF90CD
:10370000BF90AF9008951F920F920FB60F921124A1
:103710000BB60F922F933F938F939F93EF93FF934B
:103720002091930330919403809195039091960397
:103730002817390731F4809131018F7D8093310151
:1037400014C0E0919503F0919603ED5AFC4F20814F
:10375000809195039091960301968F73992790938A
:1037600096038093950320933601FF91EF919F91EB
:103770008F913F912F910F900BBE0F900FBE0F9026
:103780001F9018951F920F920FB60F9211240BB62F
:103790000F922F933F938F939F93EF93FF932091DB
:1037A0001B0430911C0480911D0490911E04281765
:1037B000390731F48091D1008F7D8093D10014C0FE
:1037C000E0911D04F0911E04E552FC4F2081809190
:1037D0001D0490911E0401968F73992790931E04E7
:1037E00080931D042093D600FF91EF919F918F91BC
:1037F0003F912F910F900BBE0F900FBE0F901F9017
:1038000018951F920F920FB60F9211240BB60F92BC
:103810002F933F938F939F93EF93FF932091A30454
:103820003091A4048091A5049091A604281739072B
:1038300031F48091C9008F7D8093C90014C0E0915C
:10384000A504F091A604ED59FB4F20818091A504B9
:103850009091A60401968F7399279093A604809364
:10386000A5042093CE00FF91EF919F918F913F91FE
:103870002F910F900BBE0F900FBE0F901F901895B9
:103880001F920F920FB60F9211240BB60F922F9327
:103890003F938F939F93EF93FF9320912B0530914C
:1038A0002C0580912D0590912E052817390731F4AC
:1038B0008091C1008F7D8093C10014C0E0912D05DF
:1038C000F0912E05E551FB4F208180912D059091BF
:1038D0002E0501968F73992790932E0580932D05C1
:1038E0002093C600FF91EF919F918F913F912F916F
:1038F0000F900BBE0F900FBE0F901F9018951F9248
:103900000F920FB60F9211240BB60F922F933F9385
:103910004F935F936F937F938F939F93AF93BF93D7
:10392000EF93FF938091300182FD07C080913601B3
:1039300067E973E00E94461A02C080913601FF9148
:10394000EF91BF91AF919F918F917F916F915F9117
:103950004F913F912F910F900BBE0F900FBE0F9084
:103960001F9018951F920F920FB60F9211240BB64D
:103970000F922F933F934F935F936F937F938F9308
:103980009F93AF93BF93EF93FF938091D00082FDFD
:1039900007C08091D6006FE174E00E94461A02C011
:1039A0008091D600FF91EF91BF91AF919F918F9140
:1039B0007F916F915F914F913F912F910F900BBE2F
:1039C0000F900FBE0F901F9018951F920F920FB679
:1039D0000F9211240BB60F922F933F934F935F9347
:1039E0006F937F938F939F93AF93BF93EF93FF93C7
:1039F0008091C80082FD07C08091CE0067EA74E024
:103A00000E94461A02C08091CE00FF91EF91BF91B3
:103A1000AF919F918F917F916F915F914F913F9166
:103A20002F910F900BBE0F900FBE0F901F90189507
:103A30001F920F920FB60F9211240BB60F922F9375
:103A40003F934F935F936F937F938F939F93AF9326
:103A5000BF93EF93FF938091C00082FD07C08091D8
:103A6000C6006FE275E00E94461A02C08091C6004F
:103A7000FF91EF91BF91AF919F918F917F916F9146
:103A80005F914F913F912F910F900BBE0F900FBE02
:103A90000F901F901895DC01ED91FC910190F08141
:103AA000E02D19940F931F93CF93DF93EC016DE0FA
:103AB0000E944B1D8C016AE0CE010E944B1D800FBD
:103AC000911FDF91CF911F910F910895611571059D
:103AD00079F0FB0101900020E9F73197AF01461B17
:103AE000570BDC01ED91FC910280F381E02D1994DC
:103AF00080E090E008958F929F92AF92BF92CF9214
:103B0000DF92EF92FF920F931F93CF93DF93CDB786
:103B1000DEB7A1970FB6F894DEBF0FBECDBF6C0124
:103B2000142FE52FCB01022F19A2223008F40AE04E
:103B30007E0121E2E20EF11C802E912CA12CB12CF1
:103B4000612F7E2FA50194010E94A62F029F1019BC
:103B5000112481E0E81AF1081A3014F4105D01C054
:103B6000195CF7011083122FE32FCA01232B242B9A
:103B7000252B31F7B701C6010E94661DA1960FB62D
:103B8000F894DEBF0FBECDBFDF91CF911F910F9193
:103B9000FF90EF90DF90CF90BF90AF909F908F906D
:103BA00008950F931F93CF93DF93EC010E94661D3E
:103BB0008C01CE010E94521D800F911FDF91CF9189
:103BC0001F910F910895362F90E0FC01E258FA4EB4
:103BD0004491FC01E254FB4E2491FC01E25EFA4E5A
:103BE0009491992309F468C0442309F451C050E02A
:103BF000FA013197E131F10508F04AC08827EE5803
:103C0000FF4F8F4F0C940F32809180008F7703C04D
:103C1000809180008F7D809380003AC084B58F773B
:103C200002C084B58F7D84BD33C08091B0008F7792
:103C300003C08091B0008F7D8093B00029C0809137
:103C400090008F7707C0809190008F7D03C0809196
:103C50009000877F809390001BC08091A0008F7799
:103C600007C08091A0008F7D03C08091A000877F56
:103C70008093A0000DC0809120018F7707C08091B4
:103C800020018F7D03C080912001877F80932001D8
:103C9000E92FF0E0EE0FFF1FEC5FFA4EA591B49113
:103CA0009FB7F894311104C08C912095282302C04D
:103CB000EC912E2B2C939FBF0895CF93DF9390E030
:103CC000FC01E254FB4E2491FC01E25EFA4E849129
:103CD000882361F190E0880F991FFC01EC59FA4E9E
:103CE000C591D491FC01EC5FFA4EA591B49161119C
:103CF00009C09FB7F8948881209582238883EC912E
:103D00002E230BC0623061F49FB7F8948881322F64
:103D1000309583238883EC912E2B2C939FBF06C074
:103D20008FB7F894E8812E2B28838FBFDF91CF9136
:103D30000895CF92DF92EF92FF92CF93DF936B01C2
:103D40007C010E94881AEB01C114D104E104F10442
:103D500079F00E94881A6C1B7D0B683E7340A0F3BB
:103D600081E0C81AD108E108F108C851DC4FECCF56
:103D7000DF91CF91FF90EF90DF90CF9008952FB714
:103D8000F89460915106709152068091530690917B
:103D900054062FBF0895FC01848D958D292F2295FF
:103DA0002F7030E021703327A9014627BA0171A393
:103DB00060A380FF0CC0672B19F480E290E002C082
:103DC00081E290E040E050E060E00C94530B868D7F
:103DD000978D833957E79507E1F040F4843541E04A
:103DE000940779F080329445C1F413C0863223E9F8
:103DF000920779F0893045EB940759F08532924962
:103E000061F4660F771F660F771F636187E090E0AC
:103E100006C0626081E094E002C081E690E00C940C
:103E2000AA0CF8942D9A98E080E02F9A00000000E8
:103E3000880F1E9981602F989150B9F77894089552
:103E40000F931F93CF93DF93EC018B011016110694
:103E5000B4F4FE01859194912496FE013297659108
:103E600074918F3F2FEF920729F480E090E00E9439
:103E7000991E02C00E94AA0C04501109E7CFDF91DD
:103E8000CF911F910F910895DF92EF92FF920F93C0
:103E90001F93CF93DF93CDB7DEB768970FB6F89433
:103EA000DEBF0FBECDBF7C018B011016110654F58D
:103EB000F70184913196D490F2E0EF0EF11C8F3728
:103EC00041F46D2D70E080E090E00E94991ED12CAD
:103ED00013C02E2DDE011196F701AD019E2F921B0E
:103EE0009D1520F494919D933196F8CFED0CF11C23
:103EF0006D2D90E00E94530BED2DF0E032960E1BDD
:103F00001F0BD3CF68960FB6F894DEBF0FBECDBFA0
:103F1000DF91CF911F910F91FF90EF90DF90089567
:103F20008F929F92AF92BF92CF92DF92EF92FF92C9
:103F30000F931F93CF93DF9300D01F92CDB7DEB7BF
:103F40007C014B015A016901FC01868D978D8732F6
:103F5000F3E99F0799F4F7018589823031F4F0E2A3
:103F6000AF0EB11C005E1F4F1EC08330E1F420E293
:103F7000820E911C80E2C80ED11C15C0863295417C
:103F800091F4F701858980FF0EC0C801841B950B51
:103F900019F40F5F1F4F07C06217730721F46B01FD
:103FA000C80ED91E8A01F701848D80FF1AC084A52E
:103FB00099828A82DB82CC82AE014F5F5F4F64E0E0
:103FC00090E00E94530BF70180A9B982AA821B835B
:103FD0000C83AE014F5F5F4F64E090E00E94530B93
:103FE0003CC0B401F70186A197A10E94AA0CB501BB
:103FF000F70180A591A50E94AA0CC814D90419F450
:104000000A151B0551F1F701848D85FF0EC08589C6
:1040100080FF06C0102F0027A02AB12A850105C005
:10402000DC2CCC248C289D286401B401F70184A5E4
:1040300095A50E94AA0CB501F70180A991A90E943B
:10404000AA0CB601F70186A597A50E94AA0CB80193
:10405000F70182A993A90E94AA0C0F900F900F90CC
:104060000F90DF91CF911F910F91FF90EF90DF9014
:10407000CF90BF90AF909F908F900895AF92BF92D6
:10408000CF92DF92EF92FF920F931F93CF93DF9324
:10409000EC0180915906882349F0C7018F71992757
:1040A000880F991FE1ECEE22E82AF92A37FF05C0B4
:1040B000620F731F319521953109260F371F77FF46
:1040C00002C060E070E0E885F9852E173F070CF428
:1040D000F9015F01A61AB70A17FF05C0400F511F6B
:1040E000119501951109CA01800F911F57FF02C058
:1040F00040E050E00A851B85801791070CF48C0185
:104100006801C41AD50A015011099F0121503109D3
:10411000CE010E94901F8B988A988AA59BA520911A
:104120000201277820930201A5982EB1277C2EB991
:1041300060910201292F3327A9014370552705E01B
:10414000440F551F0A95E1F7462B409302016EB1CB
:10415000A9014C705527440F551F440F551F462B7E
:104160004EB964B3A90140715527440F551F462B22
:1041700044BB6EB1A9014072552755954795559599
:104180004795462B4EB940910201207C3327A3E08E
:1041900035952795AA95E1F7242B2093020189985C
:1041A000899A20910201277820930201A5982EB1C7
:1041B000277C2EB9409102019C0123703327B5E082
:1041C000220F331FBA95E1F7242B209302014EB141
:1041D0009C012C703327220F331F220F331F242BF7
:1041E0002EB944B39C0120713327220F331F242B97
:1041F00024BB4EB19C012072332735952795359508
:104200002795242B2EB920910201807C992763E009
:10421000959587956A95E1F7822B8093020189989D
:10422000899A8A9AAC14BD042CF49A2D8B2D5601D0
:10423000C92ED82E8F2D99279C01237033272295C4
:10424000220F207EAC014C705527342F330F330FD3
:10425000AC0140715527440FBC0176956795769562
:104260006795562F587063E0969587956A95E1F7A4
:104270008871B70163707727962F9295990F907E7A
:10428000B7016C707727660F660FF701E071FF27A3
:104290007E2F770FD701B695A795B695A795A870ED
:1042A000F701B3E0F695E795BA95E1F71E2F18717F
:1042B0001C141D040CF043C0F501B0910201B77845
:1042C000B0930201A598BEB1B77CBEB9B09102010E
:1042D000B22BB0930201BEB1B32BBEB9B4B3B42BB1
:1042E000B4BBBEB1B52BBEB9B0910201B82BB0932F
:1042F00002018998899AB0910201B778B0930201BE
:10430000A598BEB1B77CBEB9B0910201B92BB093EC
:104310000201BEB1B62BBEB9B4B3B72BB4BBBEB1AC
:10432000BA2BBEB9B0910201B12BB09302018998AA
:10433000899A319711F6E1E0CE1AD108B9CF8B9A5C
:104340008C8D80FF08C08E8D9F8D8632954191F4B3
:104350008D8980FF0FC00A851B85015011092885B2
:1043600039852150310940E050E060E070E0CE0135
:104370000E94901FDF91CF911F910F91FF90EF90BE
:10438000DF90CF90BF90AF900895EF92FF920F9380
:104390001F93DC011A960D911C911B9718962D9175
:1043A0003C911997ED91FC91048CF58DE02D7B01EA
:1043B00040E050E060E070E019951F910F91FF9090
:1043C000EF9008958F929F92AF92BF92EF92FF92DB
:1043D0000F931F93CF93DF93CDB7DEB7C054D24076
:1043E0000FB6F894DEBF0FBECDBF66EF72E083E775
:1043F00095E00E94D11D83E795E00E94521D6EE07A
:1044000073E083E795E00E94D11D2AE04AE254E080
:1044100060E070E083E795E00E947B1D83E795E014
:104420000E94521D00E010E0EE24E39422E0F22E00
:10443000EC0EFD1E89E0E80EF11C480193E0959416
:1044400087949A95E1F7092C000CAA08BB0899E01B
:10445000990E9DE3A91EB11CAE014F5F5F4FC501D0
:10446000B4010E94A016811107C067E273E083E7E0
:1044700095E00E94D11DF0CFF801E770FF2786E09C
:10448000EE0FFF1F8A95E1F781E090E08C0F9D1FF2
:10449000E80FF91F80E4DE01AF5FBD4F01900D9280
:1044A0008A95E1F7B70183E795E00E94D11D0F5F80
:1044B0001F4F0A3294E0190709F0BFCFC05CDD4FEF
:1044C0000FB6F894DEBF0FBECDBFDF91CF911F9125
:1044D0000F91FF90EF90BF90AF909F908F900895B5
:1044E0008F929F92AF92BF92EF92FF920F931F9382
:1044F000CF93DF93CDB7DEB7D2500FB6F894DEBFBF
:104500000FBECDBF7C018B0197FD079623E09595EB
:1045100087952A95E1F74C01092E000CAA08BB08E3
:1045200029E0920E2DE3A21EB11C40915B06509132
:104530005C06052E000C660B770B84169506A60606
:10454000B706A9F0975F90935C0680935B06AE0177
:104550004F5F5F4FC501B4010E94A016811107C0D3
:1045600067E273E083E795E00E94D11DF0CFC701B9
:1045700068E070E00E94FB31FC0186E0EE0FFF1F57
:104580008A95E1F781E090E08C0F9D1FE80FF91FFD
:1045900080E4D80101900D928A95E1F7DE5F0FB6B5
:1045A000F894DEBF0FBECDBFDF91CF911F910F9169
:1045B000FF90EF90BF90AF909F908F9008951F92C3
:1045C0000F920FB60F9211242F933F938F939F93C7
:1045D000AF93BF938091510690915206A0915306DC
:1045E000B091540630915D0623E0230F2D3720F45F
:1045F0000196A11DB11D05C026E8230F0296A11D3D
:10460000B11D20935D068093510690935206A093AE
:104610005306B09354068091550690915606A0918A
:104620005706B09158060196A11DB11D80935506FD
:1046300090935606A0935706B0935806BF91AF913A
:104640009F918F913F912F910F900FBE0F901F90D0
:104650001895CF93DF93CDB7DEB7C654D1090FB607
:10466000F894DEBF0FBECDBF789484B5826084BD60
:1046700084B5816084BD85B5826085BD85B5816066
:1046800085BD80916E00816080936E0010928100E4
:10469000809181008260809381008091810081609F
:1046A0008093810080918000816080938000809160
:1046B000B10084608093B1008091B00081608093EC
:1046C000B000809191008260809391008091910070
:1046D0008160809391008091900081608093900030
:1046E0008091A10082608093A1008091A1008160EF
:1046F0008093A1008091A00081608093A0008091B0
:104700002101826080932101809121018160809349
:1047100021018091200181608093200180917A00A5
:10472000846080937A0080917A00826080937A001E
:1047300080917A00816080937A0080917A0080680D
:1047400080937A001092C100E0918705F09188056E
:1047500081E090E09C010090930502C0220F331F7E
:104760000A94E2F72083E0918305F091840510829A
:10477000E0918505F09186052FEC20831092940539
:10478000E0918905F0918A0540819C0100908F0598
:1047900002C0220F331F0A94E2F7242B2083E091FA
:1047A0008905F0918A0540819C010090900502C026
:1047B000220F331F0A94E2F7242B2083E09189050E
:1047C000F0918A0540819C010090910502C0220F62
:1047D000331F0A94E2F7242B2083E0918905F0919E
:1047E0008A0520810090920502C0880F991F0A94C3
:1047F000E2F780958223808360E080E090E00E9471
:104800009A12883024E5920709F4D6C0803264E514
:10481000960709F4D4C08938994809F4D3C060E0F8
:1048200087E690E00E949A128734974409F4CDC03D
:1048300081EA90E00E94DB136130F1E67F0709F422
:10484000C7C06F3F7F4F19F406E215E1F5C08FEB4B
:1048500090E00E94A913673583E8780709F4BBC08C
:10486000613894E9790709F4B9C06131E5E17E075F
:1048700009F4B7C06032F5E17F0709F4B5C06632CC
:1048800025E1720709F3613885E1780709F4AFC0C3
:104890006115744109F4AEC084ED90E00E94DB1311
:1048A0006031734509F4A9C087ED90E00E94DB13E5
:1048B0006133704809F4A4C08FEE90E00E94A91300
:1048C0006732734909F49FC08EEF90E00E94DB13BA
:1048D000BB27A92F982F872F8335904209F496C0C4
:1048E00084E090E00E94DB139B01811124C021151C
:1048F00070E8370701F58091000290910102A091C4
:10490000020289839A83AB83AE014F5F5F4F63E0FE
:1049100089EB90E00E94530B60E080ED90E00E94F4
:104920009A12893929F08039C9F400E910E984C064
:1049300009E910E081C0263285E1380709F484CF07
:10494000203F99E8390709F464C02235E5E83E07BD
:1049500009F462C021313C4A09F461C083ED90E062
:104960000E94DB13BB27A92F982F872F83369149ED
:1049700009F458C083ED90E00E94DB13CB013DE6C3
:10498000370F323008F451C0783909F44EC0773708
:1049900009F44BC0763109F448C0633D710509F450
:1049A00046C0833D934D09F445C060E080E090E04F
:1049B0000E949A128C0140C008E014E53DC000E25C
:1049C00014E53AC009E812E137C007E413E834C03F
:1049D00003E619E131C007E513E82EC001E814E948
:1049E0002BC001E115E128C000E215E125C001E876
:1049F00015E122C004E118E61FC000E113E51CC068
:104A000001E310E819C007E213E916C003E510E25C
:104A100013C005E317E710C009E817E70DC001E16F
:104A20001CEA0AC003E611E907C08B0105C003EDCB
:104A300010E002C003ED13ED0E946B121092D1053D
:104A40001092D0051093D5050093D405073573E86F
:104A5000170709F499C108F0A5C0033590E21907BA
:104A600009F4F3C108F047C00131F5E11F0709F46B
:104A70002CC1B0F40939110509F49EC138F4013094
:104A8000110509F04DC280E091E1B0C1043561E04B
:104A9000160709F40FC10530154109F4A5C140C23C
:104AA000063285E1180709F428C180F40032154167
:104AB00009F036C283E194E09093D3058093D20548
:104AC00066E0E62EF12C02ED1AE030C20138F5E185
:104AD0001F0709F4CFC10230164109F021C283E05B
:104AE00094E09093D3058093D205B6E0EB2EF12CA1
:104AF0000BE21AE01BC2043168E6160709F421C173
:104B000008F5003183E5180709F403C178F405338B
:104B1000154409F005C280E090E19093D30580939D
:104B2000D2056CE970E08FE79EE0E4C10830F4E55F
:104B30001F0709F459C10930184609F0F1C182E094
:104B400091E162C1033967E7160709F4D6C1A8F4F9
:104B5000033887E7180709F40CC10938174709F02B
:104B6000DFC183E194E09093D3058093D20521E4E3
:104B7000E22EF12C00E81AE0D9C10639E7E71E075A
:104B800009F493C10133104809F0CAC183E194E1EB
:104B90009093D3058093D20592E1E92EF12C0EE695
:104BA0001AE0C4C1083323E9120709F454C170F5AF
:104BB000073273E9170709F430C1B8F4023093E9FA
:104BC000190709F445C138F40039104909F0A8C1A2
:104BD00083E194E1DBC0003223E9120709F404C148
:104BE0000532134909F40BC19BC1093273E9170758
:104BF00009F434C108F403C1013393E9190709F436
:104C000001C10533134909F4FDC08AC10938F4E92B
:104C10001F07C8F5073824E9120708F049C1013811
:104C200064E9160709F429C190F4005413490230CD
:104C3000110508F075C183E194E09093D30580934A
:104C4000D205F5E6EF2EF12C03EC19E06FC1063822
:104C5000144909F065C183E094E09093D3058093F3
:104C6000D20580EE91E09093BD058093BC0580E471
:104C700091E09093BB058093BA057BE3E72EF12C7E
:104C800003E419E053C1053095EB190709F428C175
:104C900038F401311C4A09F043C183E194E1E0C0DA
:104CA000093025EB120709F428C10530154C09F429
:104CB00017C136C182E090E19093D3058093D2056D
:104CC0006CE970E08BE19FE015C183E090E0909388
:104CD000D3058093D20580EE91E09093BD0580933B
:104CE000BC0580E491E09093BB058093BA0573E026
:104CF000E72EF12C08ED1AE019C183E194E09093BE
:104D0000D3058093D2055CE0E52EF12C06EC1AE089
:104D10000DC183E19EE09093D3058093D20580EE90
:104D200091E09093BD058093BC0580E491E0909361
:104D3000BB058093BA0542E0E42EF12C04EC1AE0A6
:104D4000F5C083E094E09093D3058093D20580EE84
:104D500091E09093BD058093BC0580E491E0909331
:104D6000BB058093BA0533E0E32EF12C01EC1AE089
:104D7000DDC082E091E19093D3058093D20560E994
:104D800070E08FEE9DE0B6C083E094E19093D30590
:104D90008093D20580EE91E09093BD058093BC0591
:104DA00080E491E09093BB058093BA0582E0E82E01
:104DB000F12C0CE61AE0BAC083E194E19093D3059C
:104DC0008093D20580EE91E09093BD058093BC0561
:104DD00080E491E09093BB058093BA050DE1E02E4D
:104DE000F12C0FE41AE0A2C084E090E19093D30587
:104DF0008093D20568ED70E087E19DE07BC080E0A4
:104E000091E102C080E090E19093D3058093D205B8
:104E10006CEC70E08BE49CE06DC083E094E09093D8
:104E2000D3058093D20580E991E09093BD058093EE
:104E3000BC0580EF90E09093BB058093BA051EE11E
:104E4000E12EF12C01E31AE071C087E194E108C082
:104E500083E094E005C083E194E002C083E096E142
:104E60009093D3058093D205A3E0EA2EF12C08E2BB
:104E70001AE05CC083E194E002C087E094E0909384
:104E8000D3058093D20580EE91E09093BD05809389
:104E9000BC0580E491E09093BB058093BA05E5E4FE
:104EA000EE2EF12C0EE719E041C083E094E002C041
:104EB00083E194E09093D3058093D20580EE91E056
:104EC0009093BD058093BC0580E491E09093BB0571
:104ED0008093BA056BE2E62EF12C08E119E026C0BA
:104EE00088E090E19093D3058093D20560EB70E069
:104EF0008BE99BE00E94201F17C080E090E1909317
:104F0000D3058093D20560EC70E08BED9AE00E94AF
:104F1000201F80E991E09093BD058093BC0504C0FB
:104F20001092BB051092BA0500E010E02091D30565
:104F3000822F82958F7090E0817099279093D7058A
:104F40008093D6050115110581F069E070E08FE0CE
:104F500099E00E94441FB701C8010E94441F66E007
:104F600070E089E099E00E94441F60E086EB95E0E4
:104F70000E94170F60E086EB95E00E94CB1E8091A7
:104F8000D4059091D5058838944909F064C21092EF
:104F9000590620EE3FEF40E050E060E070E086EB25
:104FA00095E00E949D0DE090E005F090E105809174
:104FB0005A06811107C08091D20580FF03C05EE2CE
:104FC000E52EF12C8091D4059091D5058230964143
:104FD00019F44EE2E42EF12C00E010E020E030E085
:104FE00040E050E060E070E086EB95E00E94901FAA
:104FF0008091D20580FD10C060E070E08091DC05FA
:105000009091DD050E94AA0C60E070E08091DE05C1
:105010009091DF050E94AA0C8B988A9880910201DA
:10502000877880930201A5988EB1877C8EB94091D4
:1050300002018F2D99279C012370332755E0220F01
:10504000331F5A95E1F7242B209302014EB19C01A6
:105050002C703327220F331F220F331F242B2EB91E
:1050600044B39C0120713327220F331F242B24BB10
:105070004EB19C012072332735952795359527959C
:10508000242B2EB920910201807C9927F3E095957D
:105090008795FA95E1F7822B809302018998899A86
:1050A00080910201877880930201A5988EB1877C58
:1050B0008EB920910201C70183709927A5E0880F5E
:1050C000991FAA95E1F7822B809302012EB1C701A7
:1050D0008C709927880F991F880F991F822B8EB982
:1050E00024B3C70180719927880F991F822B84BB35
:1050F0002EB1C701807299279595879595958795CB
:10510000822B8EB920910201C701807C992733E060
:10511000959587953A95E1F7822B809302018998BE
:10512000899A8A9A809101018778809301019D98DC
:105130008DB1877C8DB94091D2055091D305809176
:10514000D4059091D50546FD1EC0889A8898889808
:105150008898209100012CB122B32CB1209100013C
:10516000889A40FD10C08938F2E19F0761F0889A63
:10517000889888988898209100012CB122B32CB18E
:1051800020910001889A8131954161F4889A88982C
:1051900088988898809100018CB182B38CB18091FD
:1051A0000001889AFA01E470FF27889A8898889805
:1051B000889844FF8CC0609100018CB192B37CB19F
:1051C000309100016076262F2295269527708073F6
:1051D00086958695682F622B9072892F90E0959521
:1051E0008795862B672F6870660F660F862B632F57
:1051F000687198E0699FB0011124682B889A889A99
:10520000889888988898809100012CB192B37CB1DD
:10521000A09100018076382F329536953770207333
:1052200026952695822F832B9072292F30E0359575
:105230002795282B872F8870880F880F282B8A2F77
:10524000887178E0879F70011124822F8E29889AB7
:10525000889A88988898889870910001ACB132B388
:105260002CB1909100017076B72FB295B695B770BA
:10527000A073A695A6957A2F7B2B3072A32FB0E052
:10528000B595A795A72B2870220F220FA22B9871F6
:1052900078E0979F900111242A2B889A8C7FEF2B1E
:1052A00059F0287F98E0899F70011124F22A6695B1
:1052B00066956695E62A7CC0687FE8E08E9F70015F
:1052C0001124F62A269526952695E22A71C0D090BB
:1052D00000018CB192B3BCB1A0910001889A889A68
:1052E000889888988898309100012CB102B36CB1ED
:1052F000C09000013076E32EF12C75E0F594E79430
:105300007A95E1F7207330E0359527953595279507
:10531000E22AF32A007210E015950795E02AF12A97
:10532000687070E0660F771F660F771F9701262B56
:10533000372B6C2D687178E0679F70011124E22A89
:10534000F32A889A2D2D2076322F32953695377094
:10535000807386958695282F232B9072892F90E055
:1053600095958795822BB870BB0FBB0F8B2B2A2F7F
:10537000287198E0299F90011124822BF82A43FF7D
:1053800003C0FE24EF24FE24EF2B91F09701207E32
:105390003770C701892F9927869586958695822B28
:1053A000932BFE2CEE24FF0CFF0CFF0CE82AF92AAD
:1053B00080915906882399F09701207CC70188279E
:1053C000947015E0969587951A95E1F7EFE3EE2234
:1053D000FF24F694E794E82AF92AE22AF32A889A25
:1053E0008B9A809101018867809301019D9A8DB10C
:1053F00088638DB940FD14C00091C0051091C105AE
:10540000015011092091BE053091BF05215031098D
:1054100040E050E060E070E086EB95E00E94901F75
:10542000FFE1EF16FFEFFF06B1F486E08983AE01DE
:105430004F5F5F4F61E08AE390E00E94530B8091E1
:10544000D2059091D3058F7E9093D3058093D2059A
:1054500081E08093590660E070E086EB95E00E9461
:10546000C52161E086EB95E00E94170F65E472E0CC
:1054700083E795E00E94661D1092A00510929E059C
:1054800010929B0510929A051092A1058AE08093D4
:1054900099058FEF80934A038093490380934803D3
:1054A0000E94BF1E8B0161E0809199050E945D1EE4
:1054B0000E944C1260E08CE00E945D1E61E08BE077
:1054C0000E945D1E61E08DE00E945D1EBAE0FB2E31
:1054D0008FEF0E943716FA94F110FACF60E08091B6
:1054E00099050E94E31D40E050E0BA0180E00E946F
:1054F0004A16F82E80939F0521E0821749F00E94FA
:10550000BF1E601B710B613D774068F381E04EC0A8
:105510004AEA51E060E070E088E00E944A1682FFAB
:1055200003C0F092A00510C0A4E0FA2E0E94111F43
:1055300080939F05FA94F110F9CF8A3A11F082E036
:1055400035C082E08093A0058091A005823021F0D3
:10555000C12CD12C760105C0C12CD12CE12CF0E45A
:10556000FF2E40E050E0BA0187E30E944A16B701DF
:10557000A60189E20E944A1680939F05882349F07C
:105580000E94BF1E601B710B613D774050F388E0A5
:105590000DC08091A005823011F540E050E0BA01C5
:1055A0008AE30E944A16882361F086E080939A0578
:1055B0000E944C126BEC72E083E795E00E94D11DD3
:1055C000ABC00E94111F807C803C19F483E0809363
:1055D000A0050E94111F0E94111F0E94111F0E940E
:1055E0004C1265E772E083E795E00E94D11D87EBDE
:1055F0009FE09093CF058093CE058FEF9FEF909320
:10560000C9058093C8059093C7058093C605DD241E
:10561000D394D092CA051092C3051092C20584E1BA
:1056200090E09093C5058093C40569E772E086EB2E
:1056300095E00E94D11D6AE872E086EB95E00E9439
:10564000D11D66E972E086EB95E00E94D11D68E904
:1056500072E086EB95E00E94D11D6AE872E086EB6D
:1056600095E00E94D11D66E972E086EB95E00E940C
:10567000D11D66EA72E086EB95E00E94D11D6AE8D2
:1056800072E086EB95E00E94D11D66E972E086EB40
:1056900095E00E94D11D67EB72E086EB95E00E94D9
:1056A000D11D6AE872E086EB95E00E94D11D65ECA1
:1056B00072E083E795E00E94D11D85E0E3E0F2E02F
:1056C000DE01AF5BBF4F01900D928A95E1F785E057
:1056D000E8E0F2E0DE01119601900D928A95E1F783
:1056E000E12C78EFF72E00EA10E02CE330E040E008
:1056F00050E064EA71E086EB95E00E942C17D092AE
:10570000CA057E01E1E4EE0EF11C07E310E0EDEBCB
:10571000CE2EDD24D39401C0FFCFD092C305C0921A
:10572000C2051093C5050093C405F70161917F017F
:1057300086EB95E00E944B1D86EB95E00E94521D82
:10574000015F1F4F0337110541F7E12C58EFF52E8C
:1057500000EA10E02CE330E040EA50E064EA71E057
:1057600086EB95E00E942C1781E08093CA05BE016C
:105770006F5F7F4F7B0107ED10E06DEBC62EDD24E0
:10578000D394D092C305C092C2051093C50500936F
:10579000C405F70161917F0186EB95E00E944B1DE6
:1057A00086EB95E00E94521D015F1F4F0331F1E02F
:1057B0001F0739F740E2842E43E0942EA12CB12C30
:1057C00060E08091A4050E945D1E60E08091A505C7
:1057D0000E945D1E61E08091A7050E945D1E61E050
:1057E0008091A6050E945D1E9091B205E091AA05E8
:1057F000F091AB058081892B80838091B305E09186
:10580000AE05F091AF0590818095892380838091CA
:10581000A4050E9418168C018091A4050E941816F8
:105820009801281B390B2C5F3F4F2930310548F474
:10583000800F911F9595879521E027962FAF279789
:1058400003C027961FAE279766246A9423E0722E22
:10585000681A790A60E08091A7050E945D1E60E0E9
:105860008091A6050E945D1E61E08091A4050E94C2
:105870005D1E61E08091A5050E945D1E8091B505C9
:10588000E091B005F091B1059081809589238083E6
:105890009091B405E091AC05F091AD058081892B24
:1058A00080838091A6050E9418168C018091A60520
:1058B0000E9418166C01C8018C199D09049609975D
:1058C00028F4C00ED11ED594C79403C027961FAEEE
:1058D000279761E08091A7050E945D1E60E080919E
:1058E000A4050E945D1E8091B205E091AA05F09189
:1058F000AB0590818095892380839091B505E091D7
:10590000B005F091B1058081892B80838091A60537
:105910000E9418168C018091A4050E941816E09030
:10592000A805F090A905E114F104E1F1BC01990F7B
:10593000880B990B0E94EE301B012C01B801110F4E
:10594000880B990B0E94EE309B01AC01C201B101A2
:105950000E94443020E030E040E85FE30E94D72F0F
:105960001B012C01B301072C000C880B990B0E9422
:10597000EE30A20191010E947A311B012C01B70186
:1059800080E090E00E94EC30A20191010E947A3107
:1059900020E030E040E85AE30E947A310E94B630BD
:1059A0008B0107C0BC01601B710B0FEF13E0061BDE
:1059B000170B27966FAD2797611102C000E010E02A
:1059C00061E089E30E945D1E61E088E30E945D1E44
:1059D0000A5011090F3D134008F01CC12FEF33E0AE
:1059E0002C193D09C901330FAA0BBB0B9C01AD015A
:1059F0002456310941095109A0EEB1E00E949B2FC4
:105A000028E433E040E050E00E947C2F2C33310545
:105A10000CF000C1C301770CAA0BBB0B9C01AD01BC
:105A20002857310941095109A0E4B1E00E949B2F98
:105A3000A50194010E947C2F213A31050CF45AC033
:105A40000E94BF1E2B013C010E94E2210E94BF1E4A
:105A50006B01C418D50880915103909152030196AF
:105A60009093520380935103E12CF12C08E210E053
:105A700028EC30E046E150E060E070E086EB95E035
:105A80000E943E201092C3051092C20583E290E06E
:105A90009093C5058093C405A60160E070E02AE0FC
:105AA00086EB95E00E947B1D62EF72E086EB95E04D
:105AB0000E94D11D80914F03909150038C0D9D1D2C
:105AC0009093500380934F03609151037091520360
:105AD0000E94E7316B011092C3051092C205E4E603
