:100000000C9442010C9473010C9473010C947301D1
:100010000C9473010C9473010C9473010C94730190
:100020000C9473010C9473010C9473010C94730180
:100030000C9473010C9473010C9473010C94730170
:100040000C9473010C9473010C9473010C94730160
:100050000C9473010C9473010C9473010C948E0531
:100060000C9473010C945B050C9483040C94730141
:100070000C9473010C9473010C9473010C94730130
:100080000C9473010C9473010C9473010C94730120
:100090000C9428050C9444040C9473010C94730183
:1000A0000C9473010C9473010C9473010C94730100
:1000B0000C9473010C9473010C9473010C947301F0
:1000C0000C9473010C9473010C9473010C94F5045B
:1000D0000C9405040C9473010C94C2040C94C60394
:1000E0000C9473019B019E0191019501D501A20120
:1000F000A601AC01B001B401BA01BE01C201D50133
:10010000C801CC01D0010C94B0010C94D5010C9421
:1001100095010C94C2010C94A2010C94AC010C94B6
:10012000BA010C949B010C9483020C94A6010C94CC
:10013000BE010C94D8050C94CC010C94AD020C9427
:1001400091010C94E8010C9467020C943C020C940D
:100150009E010C94D0010C94B4010C94C8010C9431
:10016000470200002200250028002B002E0031004D
:10017000340002010000050108010B01000021000C
:10018000240027002A002D00300033000101000068
:10019000040107010A0100002000230026002900B5
:1001A0002C002F00320000010000030106010901AC
:1001B00005050505070508080808020202020A0AE3
:1001C0000808040404040101010101010101030301
:1001D000030303030303040707070C0C0C0C0C0CAC
:1001E0000C0C0202020206060606060606060B0BA9
:1001F0000B0B0B0B0B0B01021020200808102040EA
:1002000010204080020102010804020101020408DA
:100210001020408080402010080402018004020168
:1002200080402010080402010804020101020408B1
:100230001020408001020408102040800000090ABC
:1002400002080B0C0D07060304010000000000006B
:10025000000000000000000000000000000000009E
:10026000000000000000000011100F00000000005E
:10027000000000000000000000000000000000007E
:100280000000D80511241FBECFEFD1E2DEBFCDBFE5
:1002900000E00CBF12E0A0E0B2E0ECE7F0E100E02B
:1002A0000BBF02C007900D92A036B107D9F725E029
:1002B000A0E6B2E001C01D92A131B207E1F711E062
:1002C000C2E4D1E000E006C021970109802FFE01C1
:1002D0000E943408C134D10780E00807A9F70E94C2
:1002E000AA060C940F080C940000EFE6F2E044918B
:1002F000E9E2F2E02491E3EEF1E09491992309F42C
:1003000063C0442309F451C050E0FA013197E13150
:10031000F10508F04AC08827EE58FF4F8F4F0C9424
:100320003408809180008F7703C0809180008F7D9A
:10033000809380003AC084B58F7702C084B58F7DEA
:1003400084BD33C08091B0008F7703C08091B0002E
:100350008F7D8093B00029C0809190008F7707C077
:10036000809190008F7D03C080919000877F809363
:1003700090001BC08091A0008F7707C08091A000E3
:100380008F7D03C08091A000877F8093A0000DC067
:10039000809120018F7707C0809120018F7D03C05D
:1003A00080912001877F80932001E92FF0E0EE0FFC
:1003B000FF1FEA56FE4FA591B491EC91E22381E034
:1003C00090E021F480E0089580E090E008950895A1
:1003D0000F931F93CF93DF93FC01A685B7858D0103
:1003E000005C1F4FE8018881998101968F739927DE
:1003F000AD014E5B5F4FEA0128813981281739072B
:10040000D1F3E80128813981A20FB31F6C93A6852F
:10041000B785A05CBF4F11969C938E93A689B78930
:100420002C9181E090E0078C02C0880F991F0A94FC
:10043000E2F7822B8C9381E081A30488F589E02D7B
:1004400080818064808381E090E0DF91CF911F9173
:100450000F910895CF93DF936DE08FEE94E00E94AB
:10046000E801EC016AE08FEE94E00E94E8018C0F55
:100470009D1FDF91CF910895FC0181A1882329F070
:10048000A489B5898C9186FFFBCF11A20895FC0148
:10049000A485B585FD01E05CFF4F20813181329656
:1004A000808191812817390779F080819181A80F87
:1004B000B91F8C91208131812F5F3F4F2F733327DC
:1004C0003183208390E008958FEF9FEF0895DC0142
:1004D0001C96ED91FC911D97DF01A05CBF4F2D9103
:1004E0003C91119712968D919C911197281739077D
:1004F00039F08D919C91E80FF91F808190E008956B
:100500008FEF9FEF0895FC0124853585F901E05CAC
:10051000FF4F80819181329620813181821B930B24
:100520008F7399270895FB01E05CFF4F2081318193
:10053000DB01AE5BBF4F4D915C912F5F3F4F2F733F
:1005400033274217530741F040815181DB01A40F4B
:10055000B51F8C93318320830895CF92DF92EF9261
:10056000FF920F931F93CF93DF936C01EB017B01FD
:10057000E40EF51E00E010E0CE15DF0561F0699194
:10058000D601ED91FC910190F081E02DC601199505
:10059000080F191FF1CFC801DF91CF911F910F9163
:1005A000FF90EF90DF90CF900895863308F0865348
:1005B00090917B00282F2870977F922B90937B003F
:1005C0008770806480937C0080917A00806480933F
:1005D0007A0080917A0086FDFCCF8091780020918E
:1005E000790090E0922B08953FB7F89480916502CE
:1005F00090916602A0916702B091680226B5A89B0F
:1006000005C02F3F19F00196A11DB11D3FBFBA2FA4
:10061000A92F982F8827820F911DA11DB11DBC0104
:10062000CD0142E0660F771F881F991F4A95D1F7C9
:100630000895009769F0FC0101900020E9F73197D7
:10064000AF01481B590BBC018FEE94E00C94AD0236
:1006500080E090E008950C9419034F925F926F929E
:100660007F92AF92BF92CF92DF92EF92FF920F9361
:100670001F93CF93DF93CDB7DEB7A1970FB6F89452
:10068000DEBF0FBECDBF6C01990FEE08FF08F7FE6D
:1006900039C06DE28FEE94E00E94E8018C01F09485
:1006A000E094D094C094C11CD11CE11CF11C19A28F
:1006B0009E012F5D3F4F59013AE0432E512C612C92
:1006C000712CC701B601A30192010E9412088C2D62
:1006D0009AE0299F80191124E1E0AE1AB1088A300E
:1006E00014F4805D01C0895CF501808369017A01A1
:1006F000232B242B252B29F7C5010E941903080F52
:10070000191F2BC01C2D7D2DC70119A29E012F5D25
:100710003F4F79012AE0422E512C612C712C612F20
:10072000A30192010E9412088AE0289F1019112447
:1007300091E0E91AF1081A3014F4105D01C0195C57
:10074000F7011083122F732FCA01232B242B252B83
:1007500031F7C7010E9419038C010E942A02800F01
:10076000911FA1960FB6F894DEBF0FBECDBFDF91EB
:10077000CF911F910F91FF90EF90DF90CF90BF909E
:10078000AF907F906F905F904F9008951F920F925F
:100790000FB60F9211240BB60F922F933F938F93A6
:1007A0009F93EF93FF932091A9023091AA02809129
:1007B000AB029091AC022817390731F480913101D6
:1007C0008F7D8093310114C0E091AB02F091AC02B7
:1007D000E759FD4F20818091AB029091AC020196C8
:1007E0008F7399279093AC028093AB0220933601CC
:1007F000FF91EF919F918F913F912F910F900BBEA1
:100800000F900FBE0F901F9018951F920F920FB66A
:100810000F9211240BB60F922F933F938F939F93B8
:10082000EF93FF932091530330915403809155032C
:10083000909156032817390731F48091D1008F7DAC
:100840008093D10014C0E0915503F0915603ED5E02
:10085000FC4F2081809155039091560301968F7330
:10086000992790935603809355032093D600FF91C8
:10087000EF919F918F913F912F910F900BBE0F9011
:100880000FBE0F901F9018951F920F920FB60F92E8
:1008900011240BB60F922F933F938F939F93EF9357
:1008A000FF932091FD033091FE038091FF0390910F
:1008B00000042817390731F48091C9008F7D809397
:1008C000C90014C0E091FF03F0910004E354FC4F11
:1008D00020818091FF039091000401968F739927E6
:1008E000909300048093FF032093CE00FF91EF913B
:1008F0009F918F913F912F910F900BBE0F900FBE44
:100900000F901F9018951F920F920FB60F921124FF
:100910000BB60F922F933F938F939F93EF93FF9379
:100920002091A7043091A8048091A9049091AA0471
:100930002817390731F48091C1008F7D8093C10061
:1009400014C0E091A904F091AA04E959FB4F208159
:100950008091A9049091AA0401968F73992790938E
:10096000AA048093A9042093C600FF91EF919F9160
:100970008F913F912F910F900BBE0F900FBE0F9054
:100980001F9018951F920F920FB60F9211240BB65D
:100990000F922F933F934F935F936F937F938F9318
:1009A0009F93AF93BF93EF93FF938091300182FDAC
:1009B00007C0809136016DEA72E00E94930202C086
:1009C00080913601FF91EF91BF91AF919F918F91EF
:1009D0007F916F915F914F913F912F910F900BBE3F
:1009E0000F900FBE0F901F9018951F920F920FB689
:1009F0000F9211240BB60F922F933F934F935F9357
:100A00006F937F938F939F93AF93BF93EF93FF93D6
:100A10008091D00082FD07C08091D60067E573E029
:100A20000E94930202C08091D600FF91EF91BF9186
:100A3000AF919F918F917F916F915F914F913F9176
:100A40002F910F900BBE0F900FBE0F901F90189517
:100A50001F920F920FB60F9211240BB60F922F9385
:100A60003F934F935F936F937F938F939F93AF9336
:100A7000BF93EF93FF938091C80082FD07C08091E0
:100A8000CE0061E074E00E94930202C08091CE002B
:100A9000FF91EF91BF91AF919F918F917F916F9156
:100AA0005F914F913F912F910F900BBE0F900FBE12
:100AB0000F901F9018951F920F920FB60F9211244E
:100AC0000BB60F922F933F934F935F936F937F9348
:100AD0008F939F93AF93BF93EF93FF938091C00049
:100AE00082FD07C08091C6006BEA74E00E94930209
:100AF00002C08091C600FF91EF91BF91AF919F918D
:100B00008F917F916F915F914F913F912F910F90B6
:100B10000BBE0F900FBE0F901F9018951F920F9253
:100B20000FB60F9211242F933F938F939F93AF9300
:100B3000BF938091610290916202A0916302B09193
:100B400064023091600223E0230F2D3720F40196D8
:100B5000A11DB11D05C026E8230F0296A11DB11DE0
:100B6000209360028093610290936202A0936302DB
:100B7000B09364028091650290916602A091670231
:100B8000B09168020196A11DB11D809365029093FA
:100B90006602A0936702B0936802BF91AF919F91E4
:100BA0008F913F912F910F900FBE0F901F9018952E
:100BB000CF92DF92EF92FF92EFEEF4E01382128277
:100BC00088EEC82E83E0D82EE12CF12CC482D58289
:100BD000E682F78264E072E0718360838BEA94E0DE
:100BE0009587848787E694E09787868785EC90E0F1
:100BF000918B808B84EC90E0938B828B80EC90E0E7
:100C0000958B848B81EC90E0978B868B82EC90E0C7
:100C1000918F808F86EC90E0938F828F44E0448F99
:100C200033E0358F27E0268F95E0978F81E080A312
:100C3000E5E4F4E013821282C482D582E682F78270
:100C400071836083A1E0B4E0B587A487ADEBB3E026
:100C5000B787A687ADECB0E0B18BA08BACECB0E071
:100C6000B38BA28BA8ECB0E0B58BA48BA9ECB0E061
:100C7000B78BA68BAAECB0E0B18FA08FAEECB0E042
:100C8000B38FA28F448F358F268F978F80A3EBE988
:100C9000F3E013821282C482D582E682F7827183E6
:100CA0006083A7E5B3E0B587A487A3E1B3E0B78786
:100CB000A687A5EDB0E0B18BA08BA4EDB0E0B38B1F
:100CC000A28BA0EDB0E0B58BA48BA1EDB0E0B78B0B
:100CD000A68BA2EDB0E0B18FA08FA6EDB0E0B38FF0
:100CE000A28F448F358F268F978F80A3E1EFF2E09C
:100CF00013821282C482D582E682F7827183608376
:100D00006DEA72E07587648769E672E077876687C7
:100D100065E371E0718B608B64E371E0738B628BD0
:100D200060E371E0758B648B61E371E0778B668BB8
:100D300062E371E0718F608F66E371E0738F628FA1
:100D4000448F358F268F978F80A3FF90EF90DF9091
:100D5000CF900895789484B5826084BD84B5816015
:100D600084BD85B5826085BD85B5816085BD809176
:100D70006E00816080936E001092810080918100EE
:100D800082608093810080918100816080938100E6
:100D9000809180008160809380008091B1008460A8
:100DA0008093B1008091B00081608093B000809109
:100DB0009100826080939100809191008160809386
:100DC0009100809190008160809390008091A100BB
:100DD00082608093A1008091A10081608093A10036
:100DE0008091A00081608093A000809121018260A9
:100DF0008093210180912101816080932101809164
:100E0000200181608093200180917A00846080932A
:100E10007A0080917A00826080937A0080917A00D3
:100E2000816080937A0080917A00806880937A0054
:100E30001092C100E9E2F2E02491E3EEF1E0849146
:100E40008823C1F090E0880F991FFC01E458FE4F01
:100E5000C591D491FC01EE59FE4FA591B4919FB775
:100E6000F8948881322F309583238883EC91E22B8C
:100E7000EC939FBFE0910305F091040581E090E0C1
:100E80009C0100900F0502C0220F331F0A94E2F765
:100E90002083E091FF04F09100051082E0910105AC
:100EA000F09102052FEC208310921005E0910505CA
:100EB000F091060540819C0100900B0502C0220FB5
:100EC000331F0A94E2F7242B2083E0910505F0916B
:100ED000060540819C0100900C0502C0220F331FC3
:100EE0000A94E2F7242B2083E0910505F091060592
:100EF00040819C0100900D0502C0220F331F0A940F
:100F0000E2F7242B2083E0910505F091060520816E
:100F100000900E0502C0880F991F0A94E2F7809591
:100F2000822380838EE30E94D5027C018FE30E949E
:100F3000D502EC010E9475016C0181E4E81682E0A3
:100F4000F8061CF080E192E007C090ECE91691E011
:100F5000F90634F486E192E00E942B0381E001C09F
:100F600080E0C03C91E0D9071CF48DE192E00AC01A
:100F7000C134D2401CF081E292E004C0811104C06F
:100F800087E292E00E942B03CD2821F48FE292E0C9
:100F90000E942B030E942A028EE30E94D5026C015C
:100FA0008FE30E94D5027C010E947501EC0187E36A
:100FB00092E00E942B03C6010E942D038EE392E073
:100FC0000E942B03C7010E942D0385E492E00E943A
:100FD0002B03CE010E942D0381E592E00E941903AC
:100FE0000E942A020E94F402EB0188EEC82E83E0E0
:100FF000D82EE12CF12C0E94F4026C1B7D0B683E74
:101000007340C8F391E0C91AD108E108F108C8514A
:10101000DC4FC114D104E104F10469F783CFF894E3
:101020000C943C08A1E21A2EAA1BBB1BFD010DC0AB
:10103000AA1FBB1FEE1FFF1FA217B307E407F50788
:1010400020F0A21BB30BE40BF50B661F771F881F64
:10105000991F1A9469F760957095809590959B01FA
:10106000AC01BD01CF010895EE0FFF1F881F8BBF9C
:0C1070000790F691E02D1994F894FFCF42
:10107C0000000000E801AD028302470267023C0257
:10108C006C65667420007269676874200075702046
:10109C0000646F776E200063656E7472652000705B
:1010AC00757368656420007856616C3A2000795637
:1010BC00616C3A2000627574746F6E56616C3A20E4
:1010CC00002D2D2D2D2D2D2D2D2D2D2D2D2D0000CB
:00000001FF
