:100000000C9481000C94B2000C94B2000C94B200D9
:100010000C94B2000C94B2000C94B2000C94B20098
:100020000C94B2000C94B2000C94B2000C94B20088
:100030000C94B2000C94B2000C94B2000C94B20078
:100040000C94B2000C94B2000C94B2000C94B20068
:100050000C94B2000C94B2000C94B2000C94F9040D
:100060000C94B2000C94C6040C94EE030C94B200F1
:100070000C94B2000C94B2000C94B2000C94B20038
:100080000C94B2000C94B2000C94B2000C94B20028
:100090000C9493040C94AF030C94B2000C94B20033
:1000A0000C94B2000C94B2000C94B2000C94B20008
:1000B0000C94B2000C94B2000C94B2000C94B200F8
:1000C0000C94B2000C94B2000C94B2000C94600436
:1000D0000C9470030C94B2000C942D040C94310316
:1000E0000C94B2000C9443050C9409010C9450013B
:1000F0000C9434010C947A010C94B5000C94140106
:10010000430511241FBECFEFD1E2DEBFCDBF00E01B
:100110000CBF12E0A0E0B2E0E6EDF0E100E00BBFC2
:1001200002C007900D92A236B107D9F725E0A2E6EA
:10013000B2E001C01D92A331B207E1F710E0C1E8BF
:10014000D0E000E006C021970109802FFE010E9447
:100150005208C038D10780E00807A9F70E941506A9
:100160000C9475070C94000008950F931F93CF9380
:10017000DF93FC01A685B7858D01005C1F4FE80168
:100180008881998101968F739927AD014E5B5F4FEE
:10019000EA012881398128173907D1F3E80128813C
:1001A0003981A20FB31F6C93A685B785A05CBF4FA2
:1001B00011969C938E93A689B7892C9181E090E04B
:1001C000078C02C0880F991F0A94E2F7822B8C9348
:1001D00081E081A30488F589E02D8081806480839B
:1001E00081E090E0DF91CF911F910F910895CF931F
:1001F000DF936DE081EF94E00E94B500EC016AE0CE
:1002000081EF94E00E94B5008C0F9D1FDF91CF918C
:100210000895FC0181A1882329F0A489B5898C91D6
:1002200086FFFBCF11A20895FC01A485B585FD01D1
:10023000E05CFF4F208131813296808191812817C7
:10024000390779F080819181A80FB91F8C912081A5
:1002500031812F5F3F4F2F7333273183208390E00D
:1002600008958FEF9FEF0895DC011C96ED91FC91AE
:100270001D97DF01A05CBF4F2D913C911197129605
:100280008D919C9111972817390739F08D919C9188
:10029000E80FF91F808190E008958FEF9FEF089598
:1002A000FC0124853585F901E05CFF4F8081918157
:1002B000329620813181821B930B8F739927089589
:1002C000FB01E05CFF4F20813181DB01AE5BBF4F62
:1002D0004D915C912F5F3F4F2F7333274217530788
:1002E00041F040815181DB01A40FB51F8C93318314
:1002F00020830895CF92DF92EF92FF920F931F9386
:10030000CF93DF936C01EB017B01E40EF51E00E05F
:1003100010E0CE15DF0561F06991D601ED91FC91F9
:100320000190F081E02DC6011995080F191FF1CF3A
:10033000C801DF91CF911F910F91FF90EF90DF9057
:10034000CF900895009769F0FC0101900020E9F733
:100350003197AF01481B590BBC0181EF94E00C941D
:100360007A0180E090E00895CF93DF930E94A2018C
:10037000EC010E94F7008C0F9D1FDF91CF91089533
:100380008F929F92AF92BF92EF92FF920F931F9323
:10039000CF93DF93CDB7DEB7A1970FB6F894DEBF4A
:1003A0000FBECDBF162F042F19A2423008F40AE069
:1003B0007E0121E2E20EF11C802E912CA12CB12CA9
:1003C000612FA50194010E947807029F1019112442
:1003D00081E0E81AF1081A3014F4105D01C0195CCC
:1003E000F7011083122F732FCA01232B242B252BE7
:1003F00039F7C7010E94A201A1960FB6F894DEBF9B
:100400000FBECDBFDF91CF911F910F91FF90EF9065
:10041000BF90AF909F908F9008952F923F924F92F0
:100420005F926F927F928F929F92AF92BF92CF9284
:10043000DF92EF92FF920F931F93CF93DF93CDB78D
:10044000DEB768970FB6F894DEBF0FBECDBF6983E5
:100450007A838B839C8329013A01E986FA860B878C
:100460001C87A98ABA8ACB8ADC8A80E192E00E9442
:10047000A2014AE069817A818B819C810E94C0013E
:100480008DE192E00E94A2014AE0C301B2010E9404
:10049000C0018DE192E00E94A2014AE069857A855F
:1004A0008B859C850E94C0018AE192E00E94A20196
:1004B00049815A816B817C819A01AB0160E070E0D7
:1004C000CB0129833A834B835C836D837E838F8347
:1004D000988799249394812C312C212C1D8A1E8A73
:1004E0001F8A188E49855A856B857C859A01AB01D8
:1004F00060E070E0CB0129873A874B875C876D8786
:100500007E878F87988B411451046104710409F42C
:100510004BC040FE24C0A980BA80CB80DC80ED8037
:10052000FE800F811885292D382D432D522D6D8980
:100530007E898F89988D0E949A07A984BA84CB847A
:10054000DC84E12CF12C00E010E00E94F307922EF5
:10055000832E342E252E6D8B7E8B8F8B988FA980CA
:10056000BA80CB80DC80ED80FE800F8118859501FC
:10057000A601B701C8010E949A07A984BA84CB8456
:10058000DC84E12CF12C00E010E00E94F3072983C9
:100590003A834B835C836D837E838F8398877694C5
:1005A000679457944794AFCF492C582C632C722CE6
:1005B00069897A898B899C896415750586059705F3
:1005C000A1F18FE192E00E94B40187E292E00E94E3
:1005D000A2014AE069897A898B899C890E94C001BD
:1005E0000E94F70082E392E00E94A2014AE0C30168
:1005F000B2010E94C00168960FB6F894DEBF0FBE2C
:10060000CDBFDF91CF911F910F91FF90EF90DF90C1
:10061000CF90BF90AF909F908F907F906F905F90A2
:100620004F903F902F900C94F70088E392E06896EB
:100630000FB6F894DEBF0FBECDBFDF91CF911F91F3
:100640000F91FF90EF90DF90CF90BF90AF909F9071
:100650008F907F906F905F904F903F902F900C9471
:10066000B4011F920F920FB60F9211240BB60F9286
:100670002F933F938F939F93EF93FF932091AB0220
:100680003091AC028091AD029091AE0228173907EB
:1006900031F4809131018F7D8093310114C0E0915C
:1006A000AD02F091AE02E559FD4F20818091AD027F
:1006B0009091AE0201968F7399279093AE0280932A
:1006C000AD0220933601FF91EF919F918F913F9161
:1006D0002F910F900BBE0F900FBE0F901F9018958B
:1006E0001F920F920FB60F9211240BB60F922F93F9
:1006F0003F938F939F93EF93FF93209155033091F6
:10070000560380915703909158032817390731F405
:100710008091D1008F7D8093D10014C0E091570368
:10072000F0915803EB5EFC4F20818091570390912C
:10073000580301968F73992790935803809357031A
:100740002093D600FF91EF919F918F913F912F9130
:100750000F900BBE0F900FBE0F901F9018951F9219
:100760000F920FB60F9211240BB60F922F933F9357
:100770008F939F93EF93FF932091FF033091000499
:1007800080910104909102042817390731F4809177
:10079000C9008F7D8093C90014C0E0910104F091DD
:1007A0000204E154FC4F20818091010490910204E5
:1007B00001968F73992790930204809301042093EC
:1007C000CE00FF91EF919F918F913F912F910F90CC
:1007D0000BBE0F900FBE0F901F9018951F920F9297
:1007E0000FB60F9211240BB60F922F933F938F9356
:1007F0009F93EF93FF932091A9043091AA048091D5
:10080000AB049091AC042817390731F48091C100F2
:100810008F7D8093C10014C0E091AB04F091AC04D3
:10082000E759FB4F20818091AB049091AC04019675
:100830008F7399279093AC048093AB042093C600E8
:10084000FF91EF919F918F913F912F910F900BBE50
:100850000F900FBE0F901F9018951F920F920FB61A
:100860000F9211240BB60F922F933F934F935F93E8
:100870006F937F938F939F93AF93BF93EF93FF9368
:100880008091300182FD07C0809136016FEA72E0ED
:100890000E94600102C080913601FF91EF91BF91EB
:1008A000AF919F918F917F916F915F914F913F9108
:1008B0002F910F900BBE0F900FBE0F901F901895A9
:1008C0001F920F920FB60F9211240BB60F922F9317
:1008D0003F934F935F936F937F938F939F93AF93C8
:1008E000BF93EF93FF938091D00082FD07C080916A
:1008F000D60069E573E00E94600102C08091D600D5
:10090000FF91EF91BF91AF919F918F917F916F91E7
:100910005F914F913F912F910F900BBE0F900FBEA3
:100920000F901F9018951F920F920FB60F921124DF
:100930000BB60F922F933F934F935F936F937F93D9
:100940008F939F93AF93BF93EF93FF938091C800D2
:1009500082FD07C08091CE0063E074E00E946001D8
:1009600002C08091CE00FF91EF91BF91AF919F9116
:100970008F917F916F915F914F913F912F910F9048
:100980000BBE0F900FBE0F901F9018951F920F92E5
:100990000FB60F9211240BB60F922F933F934F93E4
:1009A0005F936F937F938F939F93AF93BF93EF93D7
:1009B000FF938091C00082FD07C08091C6006DEA60
:1009C00074E00E94600102C08091C600FF91EF9127
:1009D000BF91AF919F918F917F916F915F914F9157
:1009E0003F912F910F900BBE0F900FBE0F901F9055
:1009F00018951F920F920FB60F9211242F933F93C9
:100A00008F939F93AF93BF938091670290916802F9
:100A1000A0916902B0916A023091660223E0230F2F
:100A20002D3720F40196A11DB11D05C026E8230F26
:100A30000296A11DB11D20936602809367029093D8
:100A40006802A0936902B0936A0280916202909159
:100A50006302A0916402B09165020196A11DB11DCF
:100A60008093620290936302A0936402B093650244
:100A7000BF91AF919F918F913F912F910F900FBE9A
:100A80000F901F901895CF92DF92EF92FF92E1EFB7
:100A9000F4E01382128288EEC82E83E0D82EE12C77
:100AA000F12CC482D582E682F78264E072E0718321
:100AB00060838DEA94E09587848789E694E0978740
:100AC000868785EC90E0918B808B84EC90E0938B13
:100AD000828B80EC90E0958B848B81EC90E0978BFF
:100AE000868B82EC90E0918F808F86EC90E0938FE4
:100AF000828F44E0448F33E0358F27E0268F95E0E6
:100B0000978F81E080A3E7E4F4E013821282C4822D
:100B1000D582E682F78271836083A3E0B4E0B58773
:100B2000A487AFEBB3E0B787A687ADECB0E0B18B9D
:100B3000A08BACECB0E0B38BA28BA8ECB0E0B58B93
:100B4000A48BA9ECB0E0B78BA68BAAECB0E0B18F78
:100B5000A08FAEECB0E0B38FA28F448F358F268F7D
:100B6000978F80A3EDE9F3E013821282C482D582CD
:100B7000E682F78271836083A9E5B3E0B587A48735
:100B8000A5E1B3E0B787A687A5EDB0E0B18BA08B58
:100B9000A4EDB0E0B38BA28BA0EDB0E0B58BA48B3D
:100BA000A1EDB0E0B78BA68BA2EDB0E0B18FA08F26
:100BB000A6EDB0E0B38FA28F448F358F268F978F2D
:100BC00080A3E3EFF2E013821282C482D582E68230
:100BD000F782718360836FEA72E0758764876BE6E2
:100BE00072E07787668765E371E0718B608B64E301
:100BF00071E0738B628B60E371E0758B648B61E3F2
:100C000071E0778B668B62E371E0718F608F66E3D2
:100C100071E0738F628F448F358F268F978F80A3FB
:100C2000FF90EF90DF90CF900895AF92BF92CF9258
:100C3000DF92EF92FF920F931F93789484B58260B6
:100C400084BD84B5816084BD85B5826085BD85B570
:100C5000816085BDEEE6F0E0808181608083E1E81F
:100C6000F0E0108280818260808380818160808357
:100C7000E0E8F0E0808181608083E1EBF0E080815A
:100C800084608083E0EBF0E0808181608083E1E933
:100C9000F0E0808182608083808181608083E0E9F0
:100CA000F0E0808181608083E1EAF0E08081826011
:100CB0008083808181608083E0EAF0E080818160D0
:100CC0008083E1E2F1E080818260808380818160C5
:100CD0008083E0E2F1E0808181608083EAE7F0E0F8
:100CE0008081846080838081826080838081816054
:100CF00080838081806880831092C100E1EFF4E0FE
:100D0000A489B58981E090E09C0100A002C0220F77
:100D1000331F0A94E2F72C93A089B1891C92A2890F
:100D2000B3892FEC2C9311A2A689B7894C919C0111
:100D3000048C02C0220F331F0A94E2F7242B2C9359
:100D4000A689B7894C919C01058C02C0220F331FE4
:100D50000A94E2F7242B2C93A689B7894C919C0125
:100D6000068C02C0220F331F0A94E2F7242B2C9327
:100D7000A689B7892C91078C02C0880F991F0A9405
:100D8000E2F7809582238C938CE392E00E94B40179
:100D9000A12CB12C6501A39416E0E12EF12C00E00A
:100DA00010E025E030E040E050E061E070E080E0FD
:100DB00090E00E940D02A12CB12C65011AE0E12EF9
:100DC000F12C00E010E02AE030E040E050E060E08C
:100DD00070E0CB010E940D02E12CF12C8701E3941D
:100DE00025E030E040E050E061E070E080E090E03D
:100DF0000E940D0247E1A42EB12CC12CD12C15E28A
:100E0000E12EF12C00E010E02FE030E040E050E077
:100E100062E070E080E090E00E940D0262EBA62E9E
:100E200064ECB62E65E8C62E65E0D62E15E1E12EFF
:100E30001DECF12E0BE517E029E330E340E050E034
:100E400062E070E080E090E00E940D02E6ECAE2EE1
:100E5000E7EBBE2EE5E1CE2EE4E0DE2E20E432EE1E
:100E600041E050E062E070E080E090E00E940D021E
:100E7000F3E6AF2EF7ECBF2EF5EDCF2EDD24D394A5
:100E800027E836ED42E150E062E070E080E090E07B
:100E90000E940D02ADEDAA2EAFEDBA2EA2E1CA2E30
:100EA000A5E1DA2E12EDE12E12E0F12E06E919E4A9
:100EB00025E13DEC4BE557E06BE770E080E090E02A
:100EC0000E940D0286E592E00E94B40181EF94E059
:100ED0000E94090180E090E01F910F91FF90EF9038
:100EE000DF90CF90BF90AF900895F8940C9469086C
:100EF000A1E21A2EAA1BBB1BFD010DC0AA1FBB1F1E
:100F0000EE1FFF1FA217B307E407F50720F0A21B8F
:100F1000B30BE40BF50B661F771F881F991F1A94FC
:100F200069F760957095809590959B01AC01BD0126
:100F3000CF010895DF93CF931F930F939A9DF02DC8
:100F4000219FF00D8B9DF00D8A9DE02DF10D039FEB
:100F5000F00D029FE00DF11D4E9DE00DF11D5E9D17
:100F6000F00D4F9DF00D7F936F93BF92AF925F9303
:100F70004F93D5010E945A088B01AC01D7010E9402
:100F80005A08EB01E80FF91FD6010E94EA072F91DA
:100F90003F91D6010E945A08C60FD71FE81FF91FBC
:100FA000AF91BF910E94EA072F913F910E945A088A
:100FB000C60FD71FE81FF91FD6010E945A08E60F77
:100FC000F71F9801BE01CF0111240F911F91CF91FE
:100FD000DF9108950E945A08460F571FC81FD91F56
:100FE00008F431960895689401C0E8948F929F9216
:100FF000CF93DF930E940108DF91CF919F908F9054
:10100000089588249924F401E401B0E49F93AA2769
:101010009A158B049C04ED05FE05CF05D007A107AA
:1010200098F4AD2FDC2FCF2FFE2FE92D982C892E91
:10103000982F872F762F652F542F432F322F22275B
:10104000B85031F7BF9127C01B2EBF91BB27220F8D
:10105000331F441F551F661F771F881F991F881C49
:10106000991CEE1FFF1FCC1FDD1FAA1FBB1F8A1478
:101070009B04EC05FD05CE05DF05A007B10748F090
:101080008A189B08EC09FD09CE09DF09A00BB10BFA
:1010900021601A94E1F62EF49401AF01BE01CD0156
:1010A000000C0895EE0FFF1F881F8BBF0790F6916D
:1010B000E02D1994A29FB001B39FC001A39F700DB2
:1010C000811D1124911DB29F700D811D1124911D50
:0610D0000895F894FFCF23
:1010D60000000000B5007A01500114013401090135
:1010E60054657374696E673A20002E2E2E200066B2
:1010F60061696C6564210045787065637465643A5E
:101106002000476F743A20004F4B21004265676903
:101116006E6E696E6720706F776D6F64207465738D
:1011260074732E2E2E00446F6E652074657374736F
:021136000000B7
:00000001FF
