:100000000C9481000C94B2000C94B2000C94B200D9
:100010000C94B2000C94B2000C94B2000C94B20098
:100020000C94B2000C94B2000C94B2000C94B20088
:100030000C94B2000C94B2000C94B2000C94B20078
:100040000C94B2000C94B2000C94B2000C94B20068
:100050000C94B2000C94B2000C94B2000C94CB013E
:100060000C94B2000C94AA030C94D2020C94B2002B
:100070000C94B2000C94B2000C94B2000C94B20038
:100080000C94B2000C94B2000C94B2000C94B20028
:100090000C9477030C9493020C94B2000C94B2006D
:1000A0000C94B2000C94B2000C94B2000C94B20008
:1000B0000C94B2000C94B2000C94B2000C94B200F8
:1000C0000C94B2000C94B2000C94B2000C94440353
:1000D0000C9454020C94B2000C9411030C9415026D
:1000E0000C94B2000C9422010C9478010C9402013F
:1000F0000C943E010C94F7000C94DD030C94B500B5
:10010000DD0311241FBECFEFD1E2DEBFCDBF00E083
:100110000CBF12E0A0E0B2E0E6E0FEE000E00BBFC2
:1001200002C007900D92AE34B107D9F725E0AEE4D6
:10013000B2E001C01D92A730B207E1F710E0C1E8BC
:10014000D0E000E006C021970109802FFE010E9447
:10015000F906C038D10780E00807A9F70E94B70464
:100160000C94D5050C94000008950F931F93CF9322
:10017000DF93FC01A685B7858D01005C1F4FE80168
:100180008881998101968F739927AD014E5B5F4FEE
:10019000EA012881398128173907D1F3E80128813C
:1001A0003981A20FB31F6C93A685B785A05CBF4FA2
:1001B00011969C938E93A689B7892C9181E090E04B
:1001C000078C02C0880F991F0A94E2F7822B8C9348
:1001D00081E081A30488F589E02D8081806480839B
:1001E00081E090E0DF91CF911F910F910895FC0184
:1001F00081A1882329F0A489B5898C9186FFFBCF42
:1002000011A20895FC01A485B585FD01E05CFF4FB6
:10021000208131813296808191812817390779F0C8
:1002200080819181A80FB91F8C91208131812F5F2E
:100230003F4F2F7333273183208390E008958FEF52
:100240009FEF0895DC011C96ED91FC911D97DF0155
:10025000A05CBF4F2D913C91119712968D919C916E
:1002600011972817390739F08D919C91E80FF91FE4
:10027000808190E008958FEF9FEF0895FC01248521
:100280003585F901E05CFF4F8081918132962081B4
:100290003181821B930B8F73992708958FED94E022
:1002A0000E943E0185E394E00E943E018BE893E0CA
:1002B0000E943E0181EE92E00C943E01FB01E05C65
:1002C000FF4F20813181DB01AE5BBF4F4D915C91CF
:1002D0002F5F3F4F2F7333274217530741F0408161
:1002E0005181DB01A40FB51F8C93318320830895C6
:1002F000CF92DF92EF92FF920F931F93CF93DF93F2
:100300006C01EB017B01E40EF51E00E010E0CE1560
:10031000DF0561F06991D601ED91FC910190F081CA
:10032000E02DC6011995080F191FF1CFC801DF9103
:10033000CF911F910F91FF90EF90DF90CF90089594
:100340000F931F93CF93DF93009779F0FC010190F7
:100350000020E9F73197AF01481B590BBC018FED25
:1003600094E00E9478018C0102C000E010E06DE092
:100370008FED94E00E94B500EC016AE08FED94E00F
:100380000E94B500C00FD11F8C0F9D1FDF91CF9130
:100390001F910F9108951F920F920FB60F92112483
:1003A0002F933F938F939F93AF93BF938091550269
:1003B00090915602A0915702B09158023091540288
:1003C00023E0230F2D3720F40196A11DB11D05C098
:1003D00026E8230F0296A11DB11D2093540280939D
:1003E000550290935602A0935702B0935802809101
:1003F000500290915102A0915202B0915302019685
:10040000A11DB11D8093500290935102A0935202FE
:10041000B0935302BF91AF919F918F913F912F91D4
:100420000F900FBE0F901F9018951F920F920FB64E
:100430000F9211240BB60F922F933F938F939F939C
:10044000EF93FF932091990230919A0280919B0241
:1004500090919C022817390731F4809131018F7DEA
:100460008093310114C0E0919B02F0919C02E75A05
:10047000FD4F208180919B0290919C0201968F7389
:10048000992790939C0280939B0220933601FF91C1
:10049000EF919F918F913F912F910F900BBE0F90F5
:1004A0000FBE0F901F9018951F920F920FB60F92CC
:1004B00011240BB60F922F933F938F939F93EF933B
:1004C000FF93209143033091440380914503909121
:1004D00046032817390731F48091D1008F7D80932E
:1004E000D10014C0E0914503F0914603ED5FFC4F4D
:1004F0002081809145039091460301968F7399273F
:1005000090934603809345032093D600FF91EF918B
:100510009F918F913F912F910F900BBE0F900FBE27
:100520000F901F9018951F920F920FB60F921124E3
:100530000BB60F922F933F938F939F93EF93FF935D
:100540002091ED033091EE038091EF039091F00341
:100550002817390731F48091C9008F7D8093C90035
:1005600014C0E091EF03F091F003E355FC4F2081BC
:100570008091EF039091F00301968F7399279093E8
:10058000F0038093EF032093CE00FF91EF919F91B2
:100590008F913F912F910F900BBE0F900FBE0F9038
:1005A0001F9018951F920F920FB60F9211240BB641
:1005B0000F922F933F938F939F93EF93FF932091ED
:1005C0009704309198048091990490919A04281787
:1005D000390731F48091C1008F7D8093C10014C030
:1005E000E0919904F0919A04E95AFB4F208180919F
:1005F000990490919A0401968F73992790939A0485
:10060000809399042093C600FF91EF919F918F9161
:100610003F912F910F900BBE0F900FBE0F901F9028
:1006200018951F920F920FB60F9211240BB60F92CE
:100630002F933F934F935F936F937F938F939F93EA
:10064000AF93BF93EF93FF938091300182FD07C07A
:10065000809136016DE972E00E945E0102C08091D6
:100660003601FF91EF91BF91AF919F918F917F9153
:100670006F915F914F913F912F910F900BBE0F9013
:100680000FBE0F901F9018951F920F920FB60F92EA
:1006900011240BB60F922F933F934F935F936F9359
:1006A0007F938F939F93AF93BF93EF93FF9380912B
:1006B000D00082FD07C08091D60067E473E00E94FD
:1006C0005E0102C08091D600FF91EF91BF91AF9182
:1006D0009F918F917F916F915F914F913F912F915A
:1006E0000F900BBE0F900FBE0F901F9018951F928A
:1006F0000F920FB60F9211240BB60F922F933F93C8
:100700004F935F936F937F938F939F93AF93BF9319
:10071000EF93FF938091C80082FD07C08091CE00C7
:1007200061EF73E00E945E0102C08091CE00FF91F4
:10073000EF91BF91AF919F918F917F916F915F9159
:100740004F913F912F910F900BBE0F900FBE0F90C6
:100750001F9018951F920F920FB60F9211240BB68F
:100760000F922F933F934F935F936F937F938F934A
:100770009F93AF93BF93EF93FF938091C00082FD4F
:1007800007C08091C6006BE974E00E945E0102C060
:100790008091C600FF91EF91BF91AF919F918F9192
:1007A0007F916F915F914F913F912F910F900BBE71
:1007B0000F900FBE0F901F901895CF92DF92EF927F
:1007C000FF92EFEDF4E01382128288EEC82E83E0F0
:1007D000D82EE12CF12CC482D582E682F7826AE021
:1007E00072E0718360838BE994E09587848787E565
:1007F00094E09787868785EC90E0918B808B84ECE2
:1008000090E0938B828B80EC90E0958B848B81ECD5
:1008100090E0978B868B82EC90E0918F808F86ECB6
:1008200090E0938F828F44E0448F33E0358F27E050
:10083000268F95E0978F81E080A3E5E3F4E01382B3
:100840001282C482D582E682F78271836083A1EF2F
:10085000B3E0B587A487ADEAB3E0B787A687ADEC70
:10086000B0E0B18BA08BACECB0E0B38BA28BA8EC6A
:10087000B0E0B58BA48BA9ECB0E0B78BA68BAAEC4B
:10088000B0E0B18FA08FAEECB0E0B38FA28F448FF9
:10089000358F268F978F80A3EBE8F3E013821282C7
:1008A000C482D582E682F78271836083A7E4B3E0D5
:1008B000B587A487A3E0B3E0B787A687A5EDB0E02E
:1008C000B18BA08BA4EDB0E0B38BA28BA0EDB0E018
:1008D000B58BA48BA1EDB0E0B78BA68BA2EDB0E0F9
:1008E000B18FA08FA6EDB0E0B38FA28F448F358F6C
:1008F000268F978F80A3E1EEF2E013821282C482EA
:10090000D582E682F782718360836DE972E0758734
:10091000648769E572E07787668765E371E0718BCC
:10092000608B64E371E0738B628B60E371E0758BC5
:10093000648B61E371E0778B668B62E371E0718FAA
:10094000608F66E371E0738F628F448F358F268FDF
:10095000978F80A380E091E00E94D80590930205D4
:1009600080930105FF90EF90DF90CF9008957894E9
:1009700084B5826084BD84B5816084BD85B58260A4
:1009800085BD85B5816085BD80916E008160809355
:100990006E001092810080918100826080938100BE
:1009A00080918100816080938100809180008160CE
:1009B000809380008091B10084608093B100809129
:1009C000B00081608093B00080919100826080933C
:1009D00091008091910081608093910080919000BE
:1009E0008160809390008091A10082608093A1003B
:1009F0008091A10081608093A1008091A00081601E
:100A00008093A000809121018260809321018091D8
:100A10002101816080932101809120018160809378
:100A2000200180917A00846080937A0080917A001E
:100A3000826080937A0080917A00816080937A004E
:100A400080917A00806880937A001092C100E091D2
:100A5000F304F091F40481E090E09C010090FF0425
:100A600002C0220F331F0A94E2F72083E091EF04C3
:100A7000F091F0041082E091F104F091F2042FEC77
:100A8000208310920005E091F504F091F604408176
:100A90009C010090FB0402C0220F331F0A94E2F76E
:100AA000242B2083E091F504F091F60440819C0111
:100AB0000090FC0402C0220F331F0A94E2F7242B9B
:100AC0002083E091F504F091F60440819C010090B0
:100AD000FD0402C0220F331F0A94E2F7242B208367
:100AE000E091F504F091F60420810090FE0402C02C
:100AF000880F991F0A94E2F780958223808386E10C
:100B000092E00E94A0018EE192E00E94A00180E4A8
:100B100092E00E94A00110924F0210924E02E091CA
:100B20000105F091020510828FED94E00E943E01D4
:100B3000892BC1F18FED94E00E9402018A3011F0FF
:100B40008D30B9F445E050E068E472E08FED94E058
:100B50000E94780180910105909102050E94A001F8
:100B600010924F0210924E02E0910105F0910205A1
:100B700018C020914E0230914F022F3F310590F462
:100B80004091010550910205FA01E20FF31F8083A5
:100B90002F5F3F4F30934F0220934E02FA01E20F36
:100BA000F31F10820E944E01BFCFF8940C940107EE
:100BB0000F931F93CF93DF938230910510F482E05F
:100BC00090E0E0910505F091060520E030E0A0E01E
:100BD000B0E0309719F140815181028113814817AB
:100BE0005907C8F08417950769F4109731F01296E9
:100BF0000C93129713961C9327C00093050510932E
:100C0000060522C02115310519F04217530718F4C3
:100C10009A01BD01EF01DF01F801DBCF211531059C
:100C2000F9F0281B390B2430310580F48A819B812F
:100C30006115710521F0FB019383828304C09093B9
:100C4000060580930505FE01329644C0FE01E20FC1
:100C5000F31F8193919322503109398328833AC03D
:100C60002091030530910405232B41F420910202C9
:100C70003091030230930405209303052091000274
:100C8000309101022115310541F42DB73EB7409155
:100C9000040250910502241B350BE0910305F091ED
:100CA0000405E217F307A0F42E1B3F0B28173907A2
:100CB00078F0AC014E5F5F4F2417350748F04E0FB8
:100CC0005F1F50930405409303058193919302C0E5
:100CD000E0E0F0E0CF01DF91CF911F910F910895F7
:100CE000CF93DF93009709F481C0FC013297138200
:100CF0001282A0910505B0910605109781F420811C
:100D00003181820F931F209103053091040528172C
:100D1000390751F5F0930405E093030567C0ED0131
:100D200020E030E0CE17DF0740F44A815B819E016E
:100D300041155105F1F0EA01F5CFD383C28340811B
:100D40005181840F951FC817D90759F4888199815B
:100D5000840F951F0296918380838A819B81938360
:100D600082832115310529F4F0930605E0930505EA
:100D70003DC0E901FB83EA8349915991C40FD51F16
:100D8000EC17FD0761F480819181840F951F029615
:100D9000E90199838883828193819B838A83E0E040
:100DA000F0E012968D919C911397009719F0FD0138
:100DB000DC01F7CF8D919C9111979D012E5F3F4FE4
:100DC000820F931F209103053091040528173907DE
:100DD00069F4309729F4109206051092050502C0B7
:100DE00013821282B0930405A0930305DF91CF9183
:100DF0000895EE0FFF1F881F8BBF0790F691E02D1F
:060E00001994F894FFCFE5
:100E060000000705200000000000B50078013E0143
:100E160002012201F7005048415345303100436C2E
:100E260069656E74207369646520697320776169EA
:100E360074696E6720666F7220696E7075742E0015
:0E0E46005048415345303200476F743A200047
:00000001FF
