:100000000C9442010C9473010C9473010C947301D1
:100010000C9473010C9473010C9473010C94730190
:100020000C9473010C9473010C9473010C94730180
:100030000C9473010C9473010C9473010C94730170
:100040000C9473010C9473010C9473010C94730160
:100050000C9473010C9473010C9473010C941005AF
:100060000C9473010C94DD040C9405040C9473013E
:100070000C9473010C9473010C9473010C94730130
:100080000C9473010C9473010C9473010C94730120
:100090000C94AA040C94C6030C9473010C94730181
:1000A0000C9473010C9473010C9473010C94730100
:1000B0000C9473010C9473010C9473010C947301F0
:1000C0000C9473010C9473010C9473010C947704D9
:1000D0000C9487030C9473010C9444040C9448030F
:1000E0000C94730168026B025E026202A2026F024C
:1000F000730279027D02810287028B028F02A202C3
:10010000950299029D020C9468020C949D020C9435
:100110007D020C948F020C9475010C946B020C946C
:1001200087020C946F020C948B020C945E020C9468
:10013000EB010C945A050C9479020C94E0010C9498
:10014000A2020C9473020C949E010C9499020C94DC
:1001500081020C9495020C9462020C9427020C9478
:100160000B0200002100240027002A002D0030008F
:10017000330001010000040107010A010000220010
:10018000250028002B002E00310034000201000061
:10019000050108010B0100002000230026002900B2
:1001A0002C002F00320000010000030106010901AC
:1001B00005050505070508080808020202020A0AE3
:1001C0000808040404040101010101010101030301
:1001D000030303030303040707070C0C0C0C0C0CAC
:1001E0000C0C0202020206060606060606060B0BA9
:1001F0000B0B0B0B0B0B01021020200808102040EA
:1002000010204080020102010804020101020408DA
:100210001020408080402010080402018004020168
:1002200080402010080402010804020101020408B1
:100230001020408001020408102040800000090ABC
:1002400002080B0C0D07060304010000000000006B
:10025000000000000000000000000000000000009E
:10026000000000000000000011100F00000000005E
:10027000000000000000000000000000000000007E
:1002800000005A0511241FBECFEFD1E2DEBFCDBF63
:1002900000E00CBF12E0A0E0B2E0E8E7F0E100E02F
:1002A0000BBF02C007900D92A032B107D9F724E02E
:1002B000A0E2B2E001C01D92A53EB207E1F711E055
:1002C000C2E4D1E000E006C021970109802FFE01C1
:1002D0000E943208C134D10780E00807A9F70E94C4
:1002E0002C060C942F080C940000CF92DF92EF9212
:1002F000FF920F931F93CF93DF936C01EB017B0170
:10030000E40EF51E00E010E0CE15DF0561F0699106
:10031000D601ED91FC910190F081E02DC601199577
:10032000080F191FF1CFC801DF91CF911F910F91D5
:10033000FF90EF90DF90CF90089508950F931F9353
:10034000CF93DF93FC01A685B7858D01005C1F4F1D
:10035000E8018881998101968F739927AD014E5BE1
:100360005F4FEA012881398128173907D1F3E80165
:1003700028813981A20FB31F6C93A685B785A05C35
:10038000BF4F11969C938E93A689B7892C9181E0DB
:1003900090E0078C02C0880F991F0A94E2F7822B25
:1003A0008C9381E081A30488F589E02D80818064AD
:1003B000808381E090E0DF91CF911F910F910895AC
:1003C000FC0181A1882329F0A489B5898C9186FF3D
:1003D000FBCF11A20895FC01A485B585FD01E05C69
:1003E000FF4F208131813296808191812817390712
:1003F00079F080819181A80FB91F8C912081318182
:100400002F5F3F4F2F7333273183208390E0089570
:100410008FEF9FEF0895DC011C96ED91FC911D97E5
:10042000DF01A05CBF4F2D913C91119712968D91E9
:100430009C9111972817390739F08D919C91E80FFD
:10044000F91F808190E008958FEF9FEF0895FC01E0
:1004500024853585F901E05CFF4F808191813296DA
:1004600020813181821B930B8F7399270895FB01A3
:10047000E05CFF4F20813181DB01AE5BBF4F4D91CE
:100480005C912F5F3F4F2F7333274217530741F083
:1004900040815181DB01A40FB51F8C9331832083F0
:1004A000089590E0FC013197E131F10508F04AC070
:1004B0008827EE58FF4F8F4F0C94320880918000B0
:1004C0008F7703C0809180008F7D80938000089596
:1004D00084B58F7702C084B58F7D84BD08958091E7
:1004E000B0008F7703C08091B0008F7D8093B00003
:1004F0000895809190008F7707C0809190008F7D44
:1005000003C080919000877F809390000895809130
:10051000A0008F7707C08091A0008F7D03C08091DD
:10052000A000877F8093A0000895809120018F779D
:1005300007C0809120018F7D03C080912001877FBB
:10054000809320010895CF93DF93282F30E0F901A5
:10055000E45CFD4F8491F901EA50FE4FD491F9011A
:10056000E055FE4FC491CC2391F081110E945102BD
:10057000EC2FF0E0EE0FFF1FEA56FE4FA591B4916D
:10058000EC91ED2381E090E021F480E002C080E076
:1005900090E0DF91CF9108951F93CF93DF93282FA1
:1005A00030E0F901E45CFD4F8491F901EA50FE4F1F
:1005B000D491F901E055FE4FC491CC23C1F0162F20
:1005C00081110E945102EC2FF0E0EE0FFF1FE45862
:1005D000FE4FA591B4919FB7F894111104C08C916E
:1005E000D095D82302C0EC91DE2BDC939FBFDF9126
:1005F000CF911F9108953FB7F8948091390290915F
:100600003A02A0913B02B0913C0226B5A89B05C0DE
:100610002F3F19F00196A11DB11D3FBFBA2FA92F81
:10062000982F8827820F911DA11DB11DBC01CD01FE
:1006300042E0660F771F881F991F4A95D1F70895EA
:10064000CF92DF92EF92FF92CF93DF930E94FB0253
:10065000EB0182E3C82ED12CE12CF12C0E94FB028D
:100660006C1B7D0B683E7340C8F381E0C81AD1084B
:10067000E108F108C851DC4FC114D104E104F104D0
:1006800069F7DF91CF91FF90EF90DF90CF900895C1
:100690001F920F920FB60F9211240BB60F922F9349
:1006A0003F938F939F93EF93FF9320917D0230911F
:1006B0007E0280917F02909180022817390731F4E1
:1006C000809131018F7D8093310114C0E0917F02D0
:1006D000F0918002E35CFD4F208180917F02909138
:1006E000800201968F7399279093800280937F02F6
:1006F00020933601FF91EF919F918F913F912F9120
:100700000F900BBE0F900FBE0F901F9018951F9269
:100710000F920FB60F9211240BB60F922F933F93A7
:100720008F939F93EF93FF9320912703309128039A
:100730008091290390912A032817390731F4809179
:10074000D1008F7D8093D10014C0E0912903F091F6
:100750002A03E951FD4F20818091290390912A03BA
:1007600001968F73992790932A03809329032093EE
:10077000D600FF91EF919F918F913F912F910F9014
:100780000BBE0F900FBE0F901F9018951F920F92E7
:100790000FB60F9211240BB60F922F933F938F93A6
:1007A0009F93EF93FF932091D1033091D2038091D7
:1007B000D3039091D4032817390731F48091C900ED
:1007C0008F7D8093C90014C0E091D303F091D403CE
:1007D000EF56FC4F20818091D3039091D403019672
:1007E0008F7399279093D4038093D3032093CE00E3
:1007F000FF91EF919F918F913F912F910F900BBEA1
:100800000F900FBE0F901F9018951F920F920FB66A
:100810000F9211240BB60F922F933F938F939F93B8
:10082000EF93FF9320917B0430917C0480917D04B1
:1008300090917E042817390731F48091C1008F7D93
:100840008093C10014C0E0917D04F0917E04E55CCA
:10085000FB4F208180917D0490917E0401968F73DF
:10086000992790937E0480937D042093C600FF9186
:10087000EF919F918F913F912F910F900BBE0F9011
:100880000FBE0F901F9018951F920F920FB60F92E8
:1008900011240BB60F922F933F934F935F936F9357
:1008A0007F938F939F93AF93BF93EF93FF93809129
:1008B000300182FD07C08091360161E872E00E943C
:1008C000370202C080913601FF91EF91BF91AF9145
:1008D0009F918F917F916F915F914F913F912F9158
:1008E0000F900BBE0F900FBE0F901F9018951F9288
:1008F0000F920FB60F9211240BB60F922F933F93C6
:100900004F935F936F937F938F939F93AF93BF9317
:10091000EF93FF938091D00082FD07C08091D600B5
:100920006BE273E00E94370202C08091D600FF9113
:10093000EF91BF91AF919F918F917F916F915F9157
:100940004F913F912F910F900BBE0F900FBE0F90C4
:100950001F9018951F920F920FB60F9211240BB68D
:100960000F922F933F934F935F936F937F938F9348
:100970009F93AF93BF93EF93FF938091C80082FD45
:1009800007C08091CE0065ED73E00E94370202C07F
:100990008091CE00FF91EF91BF91AF919F918F9188
:1009A0007F916F915F914F913F912F910F900BBE6F
:1009B0000F900FBE0F901F9018951F920F920FB6B9
:1009C0000F9211240BB60F922F933F934F935F9387
:1009D0006F937F938F939F93AF93BF93EF93FF9307
:1009E0008091C00082FD07C08091C6006FE774E06F
:1009F0000E94370202C08091C600FF91EF91BF9123
:100A0000AF919F918F917F916F915F914F913F91A6
:100A10002F910F900BBE0F900FBE0F901F90189547
:100A20001F920F920FB60F9211242F933F938F9323
:100A30009F93AF93BF938091350290913602A0911E
:100A40003702B09138023091340223E0230F2D3762
:100A500020F40196A11DB11D05C026E8230F0296C2
:100A6000A11DB11D2093340280933502909336026C
:100A7000A0933702B09338028091390290913A02E4
:100A8000A0913B02B0913C020196A11DB11D809343
:100A9000390290933A02A0933B02B0933C02BF917B
:100AA000AF919F918F913F912F910F900FBE0F901B
:100AB0001F901895CF92DF92EF92FF92E3ECF4E053
:100AC0001382128288EEC82E83E0D82EE12CF12CFE
:100AD000C482D582E682F78264E172E0718360832A
:100AE0008FE794E0958784878BE394E097878687E8
:100AF00085EC90E0918B808B84EC90E0938B828BE3
:100B000080EC90E0958B848B81EC90E0978B868BCA
:100B100082EC90E0918F808F86EC90E0938F828FB3
:100B200044E0448F33E0358F27E0268F95E0978FA0
:100B300081E080A3E9E1F4E013821282C482D582CD
:100B4000E682F78271836083A5EDB3E0B587A48761
:100B5000A1E9B3E0B787A687ADECB0E0B18BA08B7D
:100B6000ACECB0E0B38BA28BA8ECB0E0B58BA48B5F
:100B7000A9ECB0E0B78BA68BAAECB0E0B18FA08F48
:100B8000AEECB0E0B38FA28F448F358F268F978F56
:100B900080A3EFE6F3E013821282C482D582E6825C
:100BA000F78271836083ABE2B3E0B587A487A7EED9
:100BB000B2E0B787A687A5EDB0E0B18BA08BA4ED1E
:100BC000B0E0B38BA28BA0EDB0E0B58BA48BA1ED10
:100BD000B0E0B78BA68BA2EDB0E0B18FA08FA6EDF1
:100BE000B0E0B38FA28F448F358F268F978F80A36D
:100BF000E5ECF2E013821282C482D582E682F782AB
:100C00007183608361E872E0758764876DE372E0E9
:100C10007787668765E371E0718B608B64E371E0D1
:100C2000738B628B60E371E0758B648B61E371E0C1
:100C3000778B668B62E371E0718F608F66E371E0A2
:100C4000738F628F448F358F268F978F80A3FF908D
:100C5000EF90DF90CF900895789484B5826084BD42
:100C600084B5816084BD85B5826085BD85B58160B0
:100C700085BD80916E00816080936E00109281002E
:100C800080918100826080938100809181008160E9
:100C900080938100809180008160809380008091AA
:100CA000B10084608093B1008091B0008160809336
:100CB000B0008091910082608093910080919100BA
:100CC000816080939100809190008160809390007A
:100CD0008091A10082608093A1008091A100816039
:100CE0008093A1008091A00081608093A0008091FA
:100CF0002101826080932101809121018160809394
:100D000021018091200181608093200180917A00EF
:100D1000846080937A0080917A00826080937A0068
:100D200080917A00816080937A0080917A00806857
:100D300080937A001092C100E091D704F091D8041A
:100D400081E090E09C010090E30402C0220F331F79
:100D50000A94E2F72083E091D304F091D404108246
:100D6000E091D504F091D6042FEC20831092E40496
:100D7000E091D904F091DA0440819C010090DF04F5
:100D800002C0220F331F0A94E2F7242B2083E09144
:100D9000D904F091DA0440819C010090E00402C083
:100DA000220F331F0A94E2F7242B2083E091D90409
:100DB000F091DA0440819C010090E10402C0220F0E
:100DC000331F0A94E2F7242B2083E091D904F09199
:100DD000DA0420810090E20402C0880F991F0A946F
:100DE000E2F7809582238083C0E0D2E00AE212E03D
:100DF000DE01888199819927FC01EA50FE4F4491D8
:100E0000FC01E055FE4F84918823A1F090E0880F0B
:100E1000991FFC01EE59FE4F25913491FC01E458D5
:100E2000FE4F859194918FB7F894F9019081942B9E
:100E300090838FBFF80160810E5F1F4F22968C91C7
:100E40000E94CC02F2E0CA30DF0791F6CAE0D2E09D
:100E5000DE01888199819927FC01EA50FE4F249197
:100E6000FC01E055FE4F84918823C9F090E0880F83
:100E7000991FFC01EE59FE4F45915491FC01E45835
:100E8000FE4F659174919FB7F894FA018081209587
:100E900082238083FB018081822380839FBF2296EF
:100EA00061E08C910E94CC02F2E0C031DF0781F654
:100EB000C1E0D0E0EE24E394F12C54E3C52E52E0DF
:100EC000D52E86E00E94A302892BD1F586E00E94F0
:100ED000A302892B19F40E942003F8CF00E012E04E
:100EE0003AE2832E32E0932EA12CB12C85E0A81695
:100EF000B104C1F0F40180819181009741F4F18245
:100F0000E08261E0F80180810E94CC020BC0019771
:100F100059F4F4011182108260E0F80180810E948E
:100F2000CC0202C081E001C080E0FFEFAF1ABF0A2F
:100F300092E0890E911C0E5F1F4F8823B9F28CC07E
:100F400087E00E94A302892BD9F587E00E94A302C3
:100F5000892B19F40E942003F8CF00E012E02AE266
:100F6000822E22E0922EA12CB12CE5E0AE16B10427
:100F7000C9F0F401808191818130910541F41182A1
:100F8000108260E0F80180810E94CC020BC0892BA6
:100F900059F4F401F182E08261E0F80180810E945D
:100FA000CC0202C081E001C080E0FFEFAF1ABF0AAF
:100FB00092E0890E911C0E5F1F4F8823B1F24CC046
:100FC00085E00E94A302892B09F046C085E00E94BB
:100FD000A302892B19F40E942003F8CFC130D10558
:100FE000C9F490E2A92E92E0B92E00E012E0CAE224
:100FF000D2E089919991F501819391935F01F80174
:1010000080810E5F1F4F60E00E94CC02CC16DD068F
:1010100081F720C0209701F5C0E2D2E080E0A82E41
:1010200082E0B82E0AE212E0688189812296F801F6
:10103000608381830E5F1F4FF5018081F2E0AF0E68
:10104000B11C0E94CC0282E0CA32D80769F7C1E025
:10105000D0E002C0C0E0D0E00E94200332CFF8947C
:101060000C943A08EE0FFF1F881F8BBF0790F69174
:08107000E02D1994F894FFCF64
:1010780009000A000B000C000D000500060007001F
:10108800000000009E0175012702EB010B02E00140
:00000001FF
