:100000000C9435010C9466010C9466010C94660105
:100010000C9466010C9466010C9466010C946601C4
:100020000C9466010C9466010C9466010C946601B4
:100030000C9466010C9466010C9466010C946601A4
:100040000C9466010C9466010C9466010C94660194
:100050000C9466010C9466010C9466010C94A20445
:100060000C9466010C946F040C9497030C94660135
:100070000C9466010C9466010C9466010C94660164
:100080000C9466010C9466010C9466010C94660154
:100090000C943C040C9458030C9466010C94660177
:1000A0000C9466010C9466010C9466010C94660134
:1000B0000C9466010C9466010C9466010C94660124
:1000C0000C9466010C9466010C9466010C9409046E
:1000D0000C9419030C9466010C94D6030C94DA0268
:1000E0000C9466016F02720265026902A90276022F
:1000F0007A028002840288028E0292029602A9028B
:100100009C02A002A4020C9468010C94A0020C941E
:1001100080020C947A020C9472020C9465020C9486
:100120006F020C94DE010C94EC040C9496020C9477
:10013000A4020C94D3010C9492020C94A9020C9486
:100140009C020C9484020C9491010C9488020C94EF
:100150008E020C9469020C941A020C9476020C9490
:10016000FE0100002100240027002A002D0030009D
:10017000330001010000040107010A010000220010
:10018000250028002B002E00310034000201000061
:10019000050108010B010505050507050808080804
:1001A000020202020A0A080804040404010101010F
:1001B000010101010303030303030303040707070A
:1001C0000C0C0C0C0C0C0C0C0202020206060606AF
:1001D000060606060B0B0B0B0B0B0B0B010210207C
:1001E000200808102040102040800201020108046D
:1001F0000201010204081020408080402010080401
:100200000201800402018040201008040201080459
:10021000020101020408102040800102040810209D
:1002200040800000090A02080B0C0D0706030401B8
:1002300000000000000000000000000000000000BE
:10024000000000000000000000000000000011108D
:100250000F0000000000000000000000000000008F
:100260000000000000000000EC0411241FBECFEFCE
:10027000D1E2DEBFCDBF00E00CBF12E0A0E0B2E0F3
:10028000E0EDFDE000E00BBF02C007900D92AA3147
:10029000B107D9F724E0AAE1B2E001C01D92AB3C5E
:1002A000B207E1F711E0C5E3D1E000E006C0219715
:1002B0000109802FFE010E94DE06C433D10780E0D1
:1002C0000807A9F70E94BE050C94DB060C940000F9
:1002D000CF92DF92EF92FF920F931F93CF93DF9312
:1002E0006C01EB017B01E40EF51E00E010E0CE1581
:1002F000DF0561F06991D601ED91FC910190F081EB
:10030000E02DC6011995080F191FF1CFC801DF9123
:10031000CF911F910F91FF90EF90DF90CF900895B4
:1003200008950F931F93CF93DF93FC01A685B785A4
:100330008D01005C1F4FE8018881998101968F73C0
:100340009927AD014E5B5F4FEA012881398128175B
:100350003907D1F3E80128813981A20FB31F6C93CB
:10036000A685B785A05CBF4F11969C938E93A689F6
:10037000B7892C9181E090E0078C02C0880F991F0B
:100380000A94E2F7822B8C9381E081A30488F5899B
:10039000E02D80818064808381E090E0DF91CF91C7
:1003A0001F910F910895FC0181A1882329F0A48950
:1003B000B5898C9186FFFBCF11A20895FC01A4851D
:1003C000B585FD01E05CFF4F20813181329680814F
:1003D00091812817390779F080819181A80FB91F81
:1003E0008C91208131812F5F3F4F2F7333273183D1
:1003F000208390E008958FEF9FEF0895DC011C9615
:10040000ED91FC911D97DF01A05CBF4F2D913C91B8
:10041000119712968D919C9111972817390739F0F1
:100420008D919C91E80FF91F808190E008958FEFE6
:100430009FEF0895FC0124853585F901E05CFF4FAD
:1004400080819181329620813181821B930B8F7341
:1004500099270895FB01E05CFF4F20813181DB018A
:10046000AE5BBF4F4D915C912F5F3F4F2F73332792
:100470004217530741F040815181DB01A40FB51FA2
:100480008C93318320830895362F90E0FC01EE5D3C
:10049000FD4F4491FC01E452FE4F2491FC01EA56C9
:1004A000FE4F9491992309F468C0442309F451C084
:1004B00050E0FA013197E131F10508F04AC0882790
:1004C000EE58FF4F8F4F0C94DE06809180008F779F
:1004D00003C0809180008F7D809380003AC084B5F6
:1004E0008F7702C084B58F7D84BD33C08091B0000A
:1004F0008F7703C08091B0008F7D8093B00029C0BA
:10050000809190008F7707C0809190008F7D03C00D
:1005100080919000877F809390001BC08091A00005
:100520008F7707C08091A0008F7D03C08091A000CD
:10053000877F8093A0000DC0809120018F7707C036
:10054000809120018F7D03C080912001877F80935F
:100550002001E92FF0E0EE0FFF1FE458FE4FA591B8
:10056000B4919FB7F894311104C08C912095282341
:1005700002C0EC912E2B2C939FBF08950F931F93D5
:10058000CF93DF93082FC0E0D2E011E0802F8123CA
:1005900011F061E001C060E088810E944402110F07
:1005A000229682E0CA30D80789F7DF91CF911F9158
:1005B0000F9108951F920F920FB60F9211240BB650
:1005C0000F922F933F938F939F93EF93FF932091DD
:1005D000630230916402809165029091660228174F
:1005E000390731F4809131018F7D8093310114C03E
:1005F000E0916502F0916602ED5DFD4F20818091F2
:1006000065029091660201968F7399279093660216
:100610008093650220933601FF91EF919F918F9116
:100620003F912F910F900BBE0F900FBE0F901F9018
:1006300018951F920F920FB60F9211240BB60F92BE
:100640002F933F938F939F93EF93FF9320910D03ED
:1006500030910E0380910F039091100328173907F2
:1006600031F48091D1008F7D8093D10014C0E0914E
:100670000F03F0911003E353FD4F208180910F038E
:100680009091100301968F73992790931003809394
:100690000F032093D600FF91EF919F918F913F918F
:1006A0002F910F900BBE0F900FBE0F901F901895BB
:1006B0001F920F920FB60F9211240BB60F922F9329
:1006C0003F938F939F93EF93FF932091B7033091C4
:1006D000B8038091B9039091BA032817390731F410
:1006E0008091C9008F7D8093C90014C0E091B90347
:1006F000F091BA03E958FC4F20818091B9039091A1
:10070000BA0301968F7399279093BA038093B90324
:100710002093CE00FF91EF919F918F913F912F9168
:100720000F900BBE0F900FBE0F901F9018951F9249
:100730000F920FB60F9211240BB60F922F933F9387
:100740008F939F93EF93FF93209161043091620404
:1007500080916304909164042817390731F48091E3
:10076000C1008F7D8093C10014C0E0916304F091BB
:100770006404EF5DFB4F20818091630490916404D9
:1007800001968F7399279093640480936304209358
:10079000C600FF91EF919F918F913F912F910F9004
:1007A0000BBE0F900FBE0F901F9018951F920F92C7
:1007B0000FB60F9211240BB60F922F933F934F93C6
:1007C0005F936F937F938F939F93AF93BF93EF93B9
:1007D000FF938091300182FD07C08091360167E66A
:1007E00072E00E942A0202C080913601FF91EF91CF
:1007F000BF91AF919F918F917F916F915F914F9139
:100800003F912F910F900BBE0F900FBE0F901F9036
:1008100018951F920F920FB60F9211240BB60F92DC
:100820002F933F934F935F936F937F938F939F93F8
:10083000AF93BF93EF93FF938091D00082FD07C0E9
:100840008091D60061E173E00E942A0202C080918B
:10085000D600FF91EF91BF91AF919F918F917F91C2
:100860006F915F914F913F912F910F900BBE0F9021
:100870000FBE0F901F9018951F920F920FB60F92F8
:1008800011240BB60F922F933F934F935F936F9367
:100890007F938F939F93AF93BF93EF93FF93809139
:1008A000C80082FD07C08091CE006BEB73E00E9410
:1008B0002A0202C08091CE00FF91EF91BF91AF91CB
:1008C0009F918F917F916F915F914F913F912F9168
:1008D0000F900BBE0F900FBE0F901F9018951F9298
:1008E0000F920FB60F9211240BB60F922F933F93D6
:1008F0004F935F936F937F938F939F93AF93BF9328
:10090000EF93FF938091C00082FD07C08091C600E5
:1009100065E674E00E942A0202C08091C600FF9141
:10092000EF91BF91AF919F918F917F916F915F9167
:100930004F913F912F910F900BBE0F900FBE0F90D4
:100940001F9018951F920F920FB60F9211242F939C
:100950003F938F939F93AF93BF9380911F0290918A
:100960002002A0912102B091220230911E0223E0C8
:10097000230F2D3720F40196A11DB11D05C026E8D7
:10098000230F0296A11DB11D20931E0280931F020A
:1009900090932002A0932102B093220280911A0228
:1009A00090911B02A0911C02B0911D020196A11D05
:1009B000B11D80931A0290931B02A0931C02B09366
:1009C0001D02BF91AF919F918F913F912F910F90F9
:1009D0000FBE0F901F901895CF92DF92EF92FF926B
:1009E000E9EAF4E01382128288EEC82E83E0D82E62
:1009F000E12CF12CC482D582E682F7826EE072E0AF
:100A00007183608385E694E09587848781E294E032
:100A10009787868785EC90E0918B808B84EC90E0C3
:100A2000938B828B80EC90E0958B848B81EC90E0B3
:100A3000978B868B82EC90E0918F808F86EC90E094
:100A4000938F828F44E0448F33E0358F27E0268FE9
:100A500095E0978F81E080A3EFEFF3E0138212829D
:100A6000C482D582E682F78271836083ABEBB3E008
:100A7000B587A487A7E7B3E0B787A687ADECB0E05A
:100A8000B18BA08BACECB0E0B38BA28BA8ECB0E048
:100A9000B58BA48BA9ECB0E0B78BA68BAAECB0E029
:100AA000B18FA08FAEECB0E0B38FA28F448F358FA3
:100AB000268F978F80A3E5E5F3E013821282C4822C
:100AC000D582E682F78271836083A1E1B3E0B587C6
:100AD000A487ADECB2E0B787A687A5EDB0E0B18BF7
:100AE000A08BA4EDB0E0B38BA28BA0EDB0E0B58BF2
:100AF000A48BA1EDB0E0B78BA68BA2EDB0E0B18FD7
:100B0000A08FA6EDB0E0B38FA28F448F358F268FD4
:100B1000978F80A3EBEAF2E013821282C482D5821F
:100B2000E682F7827183608367E672E07587648787
:100B300063E272E07787668765E371E0718B608BB3
:100B400064E371E0738B628B60E371E0758B648B9F
:100B500061E371E0778B668B62E371E0718F608F88
:100B600066E371E0738F628F448F358F268F978F86
:100B700080A3FF90EF90DF90CF900895789484B594
:100B8000826084BD84B5816084BD85B5826085BD89
:100B900085B5816085BD80916E00816080936E0017
:100BA0001092810080918100826080938100809109
:100BB00081008160809381008091800081608093BA
:100BC00080008091B10084608093B1008091B0007A
:100BD00081608093B0008091910082608093910049
:100BE000809191008160809391008091900081605C
:100BF000809390008091A10082608093A1008091F9
:100C0000A10081608093A1008091A0008160809309
:100C1000A0008091210182608093210180912101B7
:100C20008160809321018091200181608093200167
:100C300080917A00846080937A0080917A0082604B
:100C400080937A0080917A00816080937A0080910D
:100C50007A00806880937A001092C100E091BD0410
:100C6000F091BE0481E090E09C010090C90402C0B4
:100C7000220F331F0A94E2F72083E091B904F09128
:100C8000BA041082E091BB04F091BC042FEC2083E5
:100C90001092CA04E091BF04F091C00440819C010D
:100CA0000090C50402C0220F331F0A94E2F7242BE0
:100CB0002083E091BF04F091C00440819C0100902A
:100CC000C60402C0220F331F0A94E2F7242B2083AC
:100CD000E091BF04F091C00440819C010090C704E2
:100CE00002C0220F331F0A94E2F7242B2083E091E5
:100CF000BF04F091C00420810090C80402C0880F96
:100D0000991F0A94E2F7809582238083C0E0D2E0A5
:100D10000AE012E0899199919C013327F901E4528C
:100D2000FE4F4491F901EA56FE4F2491222399F097
:100D300030E0220F331FF901EE59FE4FA591B49117
:100D4000F901E458FE4F259134912FB7F894EC91B6
:100D5000E42BEC932FBF60E00E9444020C171D07A8
:100D6000C9F6C0E089EA94E00E941A021816190632
:100D7000CCF789EA94E00E94DE01803211F08D30D8
:100D800021F480E00E94BE02ECCF90ED980F9A30E3
:100D900010F4892F0BC09FE9980F963010F48755F7
:100DA00005C09FEB980F9630E8F68753C80F8C2F3D
:100DB0000E94BE02D7CFF8940C94E606EE0FFF1FF8
:100DC000881F8BBF0790F691E02D1994F894FFCF00
:100DD00009000A000B000C000D000000000091014A
:0A0DE00068011A02DE01FE01D301D2
:00000001FF
